:100000000C946C010C949D010C949D010C949D0129
:100010000C949D010C949D010C949D010C949D01E8
:100020000C949D010C949D010C949D010C949D01D8
:100030000C949D010C949D010C949D010C949D01C8
:100040000C949D010C949D010C949D010C949D01B8
:100050000C949D010C949D010C949D010C94B80589
:100060000C949D010C942C060C9402060C949D019A
:100070000C949D010C949D010C949D010C949D0188
:100080000C949D010C949D010C949D010C949D0178
:100090000C949D010C949D010C949D010C949D0168
:1000A0000C949D010C949D010C949D010C949D0158
:1000B0000C949D010C949D010C949D010C949D0148
:1000C0000C949D010C949D010C949D010C949D0138
:1000D0000C949D010C949D010C949D010C949D0128
:1000E0000C949D01CE01D101C001C401C8010802D8
:1000F000D501D901DF01E301E701ED01F101F501CE
:100100000802FB01FF010302810286028B029502B5
:100110009F021803A902B102B902C302CD02D7029D
:10012000E602F0021803FA0204030E030C94F10134
:100130000C94D1010C94EA030C9486020C940403F1
:100140000C94CD020C94D9010C94FA020C9418036F
:100150000C94C0010C94CE010C94F0020C94ED01AF
:100160000C948B020C94C3020C94F5010C94B9020C
:100170000C94FF010C942F040C9403020C94C801FE
:100180000C949F020C940E030C94E7010C94DF0175
:100190000C94E6020C94C4010C945F0A0C94FB01CD
:1001A0000C9476040C94D7020C94E3010C94D603BF
:1001B0000C9408020C94F8030C94B1020C94A9025C
:1001C0000C9495020C94D5010C94AB030C94810211
:1001D00000002100240027002A002D0030003300F9
:1001E00001010000040107010A01000022002500AE
:1001F00028002B002E003100340002010000050110
:1002000008010B0105050505070508080808020295
:1002100002020A0A080804040404010101010101A0
:1002200001010303030303030303040707070C0C83
:100230000C0C0C0C0C0C020202020606060606064A
:1002400006060B0B0B0B0B0B0B0B010210202008EF
:100250000810204010204080020102010804020121
:100260000102040810204080804020100804020190
:1002700080040201804020100804020108040201E9
:100280000102040810204080010204081020408070
:1002900000000A0B02090C0D0E0807030401000000
:1002A000000000000000000000000000000000004E
:1002B000000000000000000000000000121110000B
:1002C000000000000000000000000000000000002E
:1002D0000000000000005F0A11241FBECFEFD1E232
:1002E000DEBFCDBF00E00CBF12E0A0E0B2E0ECEE5C
:1002F000F9E100E00BBF02C007900D92A033B107F7
:10030000D9F723E0A0E3B2E001C01D92A931B20702
:10031000E1F711E0CCE6D1E000E006C02197010949
:10032000802FFE010E94E70CCB36D10780E0080742
:10033000A9F70E9462060C94F40C0C940000362F6E
:1003400090E0FC01E057FD4F4491FC01E65BFD4F5E
:100350002491FC01EC5FFD4F9491992309F46BC04B
:10036000442309F455C050E0FA013197E231F10518
:1003700008F04EC08827EE58FF4F8F4F0C94E70CC3
:10038000809180008F7707C0809180008F7D03C0AF
:1003900080918000877F809380003AC084B58F77FA
:1003A00002C084B58F7D84BD33C08091B0008F774B
:1003B00003C08091B0008F7D8093B00029C08091F0
:1003C00090008F7707C0809190008F7D03C080914F
:1003D0009000877F809390001BC08091A0008F7752
:1003E00007C08091A0008F7D03C08091A000877F0F
:1003F0008093A0000DC0809120018F7707C080916D
:1004000020018F7D03C080912001877F8093200190
:10041000E92FF0E0EE0FFF1FE651FE4FA591B491DA
:100420008FB7F894EC91311103C020952E2301C0B1
:100430002E2B2C938FBF0895CF93DF9390E0FC0178
:10044000E65BFD4F2491FC01EC5FFD4F8491882316
:1004500061F190E0880F991FFC01E053FE4FC591B8
:10046000D491FC01E651FE4FA591B491611109C0F0
:100470009FB7F8948881209582238883EC912E235E
:100480000BC0623061F49FB7F8943881822F809559
:1004900083238883EC912E2B2C939FBF06C08FB7AC
:1004A000F894E8812E2B28838FBFDF91CF91089598
:1004B0001F93CF93DF93182FEB0161E00E941C0282
:1004C000209711F460E004C0CF3FD10539F461E01A
:1004D000812FDF91CF911F910C949F01E12FF0E0CC
:1004E000E057FD4FE4914E2F50E0FA013197E23191
:1004F000F10508F09DC08827EC57FF4F8F4F0C94F3
:10050000E70C84B5806884BDC7BD97C084B58062A0
:1005100084BDC8BD92C080918000806880938000B7
:10052000D0938900C093880088C080918000806249
:1005300080938000D0938B00C0938A007EC080910E
:100540008000886080938000D0938D00C0938C00E1
:1005500074C08091B00080688093B000C093B300F5
:100560006CC08091B00080628093B000C093B400F2
:1005700064C080919000806880939000D09399002F
:10058000C09398005AC08091900080628093900040
:10059000D0939B00C0939A0050C0809190008860D7
:1005A00080939000D0939D00C0939C0046C08091A2
:1005B000A00080688093A0008091A0008F7B809332
:1005C000A000D093A900C093A80037C08091A000DC
:1005D00080628093A000D093AB00C093AA002DC08E
:1005E0008091A00088608093A000D093AD00C0935C
:1005F000AC0023C080912001806880932001D093BB
:100600002901C093280119C0809120018062809344
:100610002001D0932B01C0932A010FC080912001AB
:10062000886080932001D0932D01C0932C0105C0D8
:10063000C038D1050CF04BCF45CFDF91CF911F9142
:100640000895863308F0865390917B00282F2870F8
:10065000977F922B90937B008770806480937C00BF
:1006600080917A00806480937A0080917A0086FD80
:10067000FCCF809178002091790090E0922B089532
:100680003FB7F8948091780290917902A0917A0214
:10069000B0917B0226B5A89B05C02F3F19F00196AB
:1006A000A11DB11D3FBFBA2FA92F982F8827820FF8
:1006B000911DA11DB11DBC01CD0142E0660F771F48
:1006C000881F991F4A95D1F708958F929F92AF92F4
:1006D000BF92CF92DF92EF92FF926B017C010E945A
:1006E00040034B015C01C114D104E104F104F1F0B9
:1006F0000E944003DC01CB0188199909AA09BB09B2
:10070000883E9340A105B10570F321E0C21AD108DB
:10071000E108F10888EE880E83E0981EA11CB11C48
:10072000C114D104E104F10419F7DDCFFF90EF907B
:10073000DF90CF90BF90AF909F908F9008952FB78C
:10074000F894609174027091750280917602909194
:1007500077022FBF0895CF92DF92EF92FF920F930F
:100760001F93CF93DF936C017A018B01C0E0D0E03F
:10077000CE15DF0589F0D8016D918D01D601ED917F
:10078000FC910190F081E02DC6011995892B11F49F
:100790007E0102C02196ECCFC701DF91CF911F915E
:1007A0000F91FF90EF90DF90CF900895FC01918D15
:1007B000828D981761F0828DDF01A80FB11D5D96C3
:1007C0008C91928D9F5F9F73928F90E008958FEF31
:1007D0009FEF0895FC01918D828D981731F0828DE5
:1007E000E80FF11D858D90E008958FEF9FEF08953C
:1007F000FC01918D228D892F90E0805C9F4F821BA0
:1008000091098F73992708958CE792E00E94F8036D
:1008100021E0892B09F420E0822F0895FC01848DCA
:10082000DF01A80FB11DA35ABF4F2C91848D90E01A
:1008300001968F739927848FA689B7892C93A089F5
:10084000B1898C9180648C93938D848D981306C0AC
:100850000288F389E02D80818F7D80830895EF9257
:10086000FF920F931F93CF93DF93EC0181E0888F6A
:100870009B8D8C8D981305C0E889F989808185FD51
:1008800024C0F62E0B8D10E00F5F1F4F0F73112742
:10089000E02E8C8DE8120CC00FB607FCFACFE88969
:1008A000F989808185FFF5CFCE010E940E04F1CF3A
:1008B0008B8DFE01E80FF11DE35AFF4FF0820B8F85
:1008C000EA89FB898081806207C0EE89FF896083A5
:1008D000E889F98980818064808381E090E0DF91FC
:1008E000CF911F910F91FF90EF900895CF93DF93D9
:1008F000EC01888D8823C9F0EA89FB89808185FD18
:1009000005C0A889B9898C9186FD0FC00FB607FC78
:10091000F5CF808185FFF2CFA889B9898C9185FFB9
:10092000EDCFCE010E940E04E7CFDF91CF91089565
:1009300080E090E0892B21F00E940404811125C001
:1009400080E090E0892B41F080E090E0892B21F05D
:100950000E94000081111CC080E090E0892B41F0D2
:1009600080E090E0892B21F00E940000811113C0EB
:1009700080E090E0892BA1F080E090E0892B81F06D
:100980000E94000081110AC008950E940000D8CF83
:100990000E940000E1CF0E940000EACF0C9400000A
:1009A00008954F925F926F927F928F929F92AF9233
:1009B000BF92CF92DF92EF92FF92CF93DF93CDB7AA
:1009C000DEB728970FB6F894DEBF0FBECDBFC0903C
:1009D0006402D09065020D2C000CEE08FF0888EE32
:1009E000C80E83E0D81EE11CF11CAFEFB0E0A701F8
:1009F00096010E94050B20ED822E27E0922EA12C5D
:100A0000B12CA50194010E94E60A29833A834B8305
:100A10005C83A981BA81B0933702A0933602A1E02A
:100A2000BFEFA70196010E94130BA50194010E943C
:100A3000E60ADA01C90181509F4FAF4FBF4F8D8346
:100A40009E83AF83B8879093350280933402C09021
:100A50006202D09063020D2C000CEE08FF0898EEA5
:100A6000C90E93E0D91EE11CF11CAFEFB0E0A70165
:100A700096010E94050BA50194010E94E60A290136
:100A80003A013093330220933202A1E0BFEFA70175
:100A900096010E94130BA50194010E94E60A6901C8
:100AA0007A01AFEFCA0ED11CE11CF11CD0923102C9
:100AB000C092300269817A8189E00E9458026D817A
:100AC0007E818AE00E945802B20186E00E945802AC
:100AD000B60185E028960FB6F894DEBF0FBECDBFF5
:100AE000DF91CF91FF90EF90DF90CF90BF90AF90CC
:100AF0009F908F907F906F905F904F900C945802D2
:100B0000009769F0FC0101900020E9F73197AF01EF
:100B1000481B590BBC018CE792E00C94AB0380E0BE
:100B200090E008950E94EF0CCF93DF9300D01F92C6
:100B3000CDB7DEB7611571058105910579F09B018F
:100B4000AC0169833A834B835C830E94D90A298173
:100B50003A814B815C810E94E60A03C060E070E04C
:100B6000CB010F900F900F900F90DF91CF910895D0
:100B70001F920F920FB60F9211242F933F938F93D2
:100B80009F93AF93BF938091740290917502A0914F
:100B90007602B09177023091730223E0230F2D3754
:100BA00020F40196A11DB11D05C026E8230F029671
:100BB000A11DB11D2093730280937402909375025E
:100BC000A0937602B0937702809178029091790297
:100BD000A0917A02B0917B020196A11DB11D809374
:100BE000780290937902A0937A02B0937B02BF912E
:100BF000AF919F918F913F912F910F900FBE0F90CA
:100C00001F9018951F920F920FB60F9211240BB6DA
:100C10000F922F933F934F935F936F937F938F9395
:100C20009F93AF93BF93EF93FF938CE792E00E9463
:100C30000E04FF91EF91BF91AF919F918F917F91A2
:100C40006F915F914F913F912F910F900BBE0F903D
:100C50000FBE0F901F9018951F920F920FB60F9214
:100C600011240BB60F922F938F939F93EF93FF93C3
:100C7000E0918C02F0918D028081E0919202F091DE
:100C8000930282FD12C09081809195028F5F8F73D5
:100C900020919602821751F0E0919502F0E0E4581D
:100CA000FD4F958F8093950201C08081FF91EF9158
:100CB0009F918F912F910F900BBE0F900FBE0F90B1
:100CC0001F901895CF93DF93CDB7DEB7A5970FB6DA
:100CD000F894DEBF0FBECDBF789484B5826084BD2A
:100CE00084B5816084BD85B5826085BD85B5816030
:100CF00085BD80916E00816080936E0010928100AE
:100D00008091810082608093810080918100816068
:100D10008093810080918000816080938000809129
:100D2000B10084608093B1008091B00081608093B5
:100D3000B000809191008260809391008091910039
:100D400081608093910080919000816080939000F9
:100D50008091A10082608093A1008091A1008160B8
:100D60008093A1008091A00081608093A000809179
:100D70002101826080932101809121018160809313
:100D800021018091200181608093200180917A006F
:100D9000846080937A0080917A00826080937A00E8
:100DA00080917A00816080937A0080917A008068D7
:100DB00080937A001092C100E0918C02F0918D0234
:100DC00082E08083E0918802F09189021082E091B4
:100DD0008A02F0918B028FEC808310929402E09152
:100DE0009002F091910286E08083E0918E02F09172
:100DF0008F02808180618083E0918E02F0918F026A
:100E0000808188608083E0918E02F0918F028081E2
:100E100080688083E0918E02F0918F0280818F7DC7
:100E2000808368EB7BE080E090E00E94650360E0F7
:100E30008DE30E941C0260E08CE30E941C0260E0D3
:100E40008BE30E941C0260E08AE30E941C02EAE03D
:100E5000EE2EF12C64E670E080E090E00E946503E5
:100E600000E412E072E2C72E72E0D72EB2E008343E
:100E70001B07A9F0D6018C91B2E0CB0ED11C0E94C9
:100E80002103F80120813181820F931F97FD019684
:100E900095958795D8018D939D938D01E7CFE1E0DE
:100EA000EE1AF108B9F661E089E00E941C0261E0E7
:100EB0008AE00E941C0261E086E00E941C0261E060
:100EC00085E00E941C0260E087E30E941C0260E053
:100ED00086E30E941C0262E088E30E941C0268EE26
:100EE00073E080E090E00E94650387E30E942103A5
:100EF0008C0190933F0280933E0286E30E9421037F
:100F000090933D0280933C02000F111F10933B020F
:100F100000933A029C01220F331F30933902209331
:100F200038025AE0852E912CA12CB12C61E070E0A2
:100F300080E090E00E9465030E949F032B013C012A
:100F400028E432E03BA32AA3190102E212E0B0E553
:100F50002B16B2E03B0609F486C0D1016D917C915D
:100F6000072E000C880B990B0E94EE0B6B017C0185
:100F7000F80180810E5F1F4F0E9421039DA38CA367
:100F80002AE939E949E55FE3C701B6010E947A0C15
:100F90000E94BD0B80E090E00E94EC0B6B017C0195
:100FA0002CA13DA1B901330F880B990B0E94EE0BC8
:100FB00028E939E949E15EE30E947A0C9B01AC0122
:100FC000C701B6010E944A0B0E94B60BD1016D9376
:100FD0007D931D016B01770FEE08FF08F7FE26C019
:100FE000E0917C02F0917D020190F081E02D6DE2B4
:100FF0008CE792E0199522273327A9012C193D0986
:101000004E095F0919A2FE01B1967F01CA01B9011B
:10101000A50194010E94180B605DD7016E937D01BC
:10102000211531054105510589F715C0A701960124
:1010300019A2FE01B1967F01CA01B901A50194016F
:101040000E94180B605DD7016E937D01211531055B
:101050004105510589F7C7010E9480058AE292E0A7
:101060000E94800574CF8CE292E00E948005E0E44B
:10107000F2E010E080E090E0AAA1BBA16D917D912B
:10108000BBA3AAA341915191440F551F21E030E029
:101090004617570714F020E030E0082E01C0220F59
:1010A0000A94EAF7122B01968430910529F71093E0
:1010B0006E0280916F0290917002A0917102B091C6
:1010C0007202A3019201281B390B4A0B5B0B2431DE
:1010D00031054105510508F4EFC140926F0250926D
:1010E0007002609271027092720200910C02109173
:1010F0000D020830110509F487C10031110509F40A
:1011000038C10130110509F0D7C10E949F032B019E
:101110003C01E0905C02F0905D0231E0E316F104E6
:1011200009F461C042E0E416F10409F4C1C0EF28FB
:1011300009F004C1109261021092600210925F02E5
:1011400010925E0210926502109264021092630285
:10115000109262020E94D10480915802909159022B
:10116000A0915A02B0915B02B301A201481B590B36
:101170006A0B7B0B8091020290910302A091040202
:10118000B091050284179507A607B70708F0D6C0E7
:10119000409258025092590260925A0270925B0239
:1011A00068E873E180E090E00E949405DC01CB01E7
:1011B00088579C4EAF4FBF4F80930202909303021B
:1011C000A0930402B093050260ED77E080E090E028
:1011D0000E949405683E7340810591050CF05EC045
:1011E00081E090E060C0809100029091010240E9AE
:1011F00051E0849F9001859F300D949F300D112404
:10120000309365022093640240E75EEF849F900173
:10121000859F300D949F300D1124309363022093ED
:1012200062020E94D1048091540290915502A091D3
:101230005602B0915702A3019201281B390B4A0BA9
:101240005B0BDA01C901813D9740A105B10508F4A6
:1012500075C04092540250925502609256027092AC
:10126000570260ED77E080E090E00E949405683ED0
:101270007340810591051CF4EE24EA94FE2CF09253
:101280000102E092000260ED77E080E090E00E94D1
:101290009405683E7340810591051CF082E090E062
:1012A00002C080E090E090935D0280935C0246C0B3
:1012B00010926102109260028AEF90E090935F02B8
:1012C00080935E0286E09FEF9093650280936402B4
:1012D00090936302809362020E94D1048091500235
:1012E00090915102A0915202B0915302A301920138
:1012F000281B390B4A0B5B0BDA01C901893B9B4068
:10130000A105B105D8F0409250025092510260926E
:1013100052027092530268EE73E080E090E00E9407
:10132000940521E030E06C3271408105910514F4A0
:1013300020E030E030935D0220935C0280916E02E9
:101340008F3009F4B9C08D7F813011F40FEF1FEF9A
:1013500010930B0200930A020E949F0360936A029B
:1013600070936B0280936C0290936D0280E190E029
:101370009FC00E949F0300916A0210916B0220910E
:101380006C0230916D02DC01CB01801B910BA20B32
:10139000B30B883E9340A105B105A8F410926102F9
:1013A0001092600286E09FEF90935F0280935E024E
:1013B0008AEF90E0909365028093640290936302B9
:1013C000809362025CC068EB7BE080E090E00E946A
:1013D0009405DC01CB0188519C4FAF4FBF4F8093E8
:1013E000060290930702A0930802B09309020E949C
:1013F0009F036093660270936702809368029093E4
:10140000690288E090E054C00E949F030091660248
:10141000109167022091680230916902DC01CB01D2
:10142000801B910BA20BB30B0091060210910702D7
:10143000209108023091090280179107A207B30793
:1014400008F580910A0290910B0240E951E0849FD7
:101450009001859F300D949F300D112430936502CB
:101460002093640240E75EEF849F9001859F300DDA
:10147000949F300D112430936302209362020E94E6
:10148000D1041AC068EB7BE080E090E00E949405F4
:10149000DC01CB0188519C4FAF4FBF4F80930602B8
:1014A00090930702A0930802B093090281E090E0B4
:1014B00090930D0280930C020E94980437CDECE7C4
:1014C000F2E01382128288EE93E0A0E0B0E0848321
:1014D0009583A683B78386E192E09183808385EC30
:1014E00090E09587848784EC90E09787868780ECEE
:1014F00090E0918B808B81EC90E0938B828B82ECDF
:1015000090E0958B848B86EC90E0978B868B118E88
:10151000128E138E148E08958F929F92AF92BF9267
:10152000CF92DF92EF92FF92CF93DF93EC0168812D
:1015300079818A819B81611571058105910521F46D
:1015400064E279ED8BE597E02DE133EF41E050E087
:101550000E94E60A49015A019B01AC01A7EAB1E4E5
:101560000E94050B6B017C01ACEEB4EFA501940168
:101570000E94130BDC01CB018C0D9D1DAE1DBF1D08
:10158000B7FF03C00197A109B04888839983AA8354
:10159000BB83BC01CD019F77DF91CF91FF90EF908E
:1015A000DF90CF90BF90AF909F908F9008950C9454
:1015B0008C0A8EE092E00C948C0A60930E02709379
:1015C0000F0280931002909311020895052E97FB4D
:1015D0001EF400940E94FD0A57FD07D00E94180BCC
:1015E00007FC03D04EF40C94FD0A509540953095BD
:1015F00021953F4F4F4F5F4F08959095809570957F
:1016000061957F4F8F4F9F4F08950E943A0BA59F82
:10161000900DB49F900DA49F800D911D11240895ED
:10162000B7FF0C94050B0E94050B821B930B0895CA
:10163000A1E21A2EAA1BBB1BFD010DC0AA1FBB1FD6
:10164000EE1FFF1FA217B307E407F50720F0A21B48
:10165000B30BE40BF50B661F771F881F991F1A94B5
:1016600069F760957095809590959B01AC01BD01DF
:10167000CF010895A29FB001B39FC001A39F700D39
:10168000811D1124911DB29F700D811D1124911D8A
:1016900008955058BB27AA270E94610B0C94400C58
:1016A0000E94320C38F00E94390C20F039F49F3F30
:1016B00019F426F40C942F0C0EF4E095E7FB0C942F
:1016C000290CE92F0E94510C58F3BA1762077307CF
:1016D0008407950720F079F4A6F50C94730C0EF4AA
:1016E000E0950B2EBA2FA02D0B01B90190010C0132
:1016F000CA01A0011124FF27591B99F0593F50F44A
:10170000503E68F11A16F040A22F232F342F4427A1
:10171000585FF3CF469537952795A795F040539599
:10172000C9F77EF41F16BA0B620B730B840BBAF069
:101730009150A1F0FF0FBB1F661F771F881FC2F7D4
:101740000EC0BA0F621F731F841F48F487957795E8
:101750006795B795F7959E3F08F0B0CF9395880FA2
:1017600008F09927EE0F9795879508950E94BD0B75
:101770006894B1110C94740C08950E94590C88F06F
:101780009F5798F0B92F9927B751B0F0E1F0660F45
:10179000771F881F991F1AF0BA95C9F714C0B13086
:1017A00091F00E94730CB1E008950C94730C672FB4
:1017B000782F8827B85F39F0B93FCCF386957795B5
:1017C0006795B395D9F73EF490958095709561959E
:1017D0007F4F8F4F9F4F0895E89409C097FB3EF4C9
:1017E00090958095709561957F4F8F4F9F4F99236E
:1017F000A9F0F92F96E9BB279395F69587957795EC
:101800006795B795F111F8CFFAF4BB0F11F460FFAB
:101810001BC06F5F7F4F8F4F9F4F16C0882311F003
:1018200096E911C0772321F09EE8872F762F05C017
:10183000662371F096E8862F70E060E02AF09A95B2
:10184000660F771F881FDAF7880F9695879597F9A7
:10185000089597F99F6780E870E060E008959FEF32
:1018600080EC089500240A94161617061806090637
:10187000089500240A941216130614060506089506
:10188000092E0394000C11F4882352F0BB0F40F48E
:10189000BF2B11F460FF04C06F5F7F4F8F4F9F4FCE
:1018A000089557FD9058440F551F59F05F3F71F050
:1018B0004795880F97FB991F61F09F3F79F08795B7
:1018C0000895121613061406551FF2CF4695F1DF40
:1018D00008C0161617061806991FF1CF86957105D0
:1018E000610508940895E894BB2766277727CB0104
:1018F00097F908950E948D0C0C94400C0E94320CB4
:1019000038F00E94390C20F0952311F00C94290C2A
:101910000C942F0C11240C94740C0E94510C70F335
:10192000959FC1F3950F50E0551F629FF001729F84
:10193000BB27F00DB11D639FAA27F00DB11DAA1F93
:10194000649F6627B00DA11D661F829F2227B00DE0
:10195000A11D621F739FB00DA11D621F839FA00D6B
:10196000611D221F749F3327A00D611D231F849FBB
:10197000600D211D822F762F6A2F11249F57504012
:101980009AF0F1F088234AF0EE0FFF1FBB1F661F8D
:10199000771F881F91505040A9F79E3F510580F056
:1019A0000C94290C0C94740C5F3FE4F3983ED4F330
:1019B000869577956795B795F795E7959F5FC1F7FA
:1019C000FE2B880F911D9695879597F90895EE0F38
:1019D000FF1F881F8BBF0790F691E02D199481E0BF
:0C19E00090E0F8940C94F40CF894FFCF05
:1019EC00010010270000D0070000010001000100D9
:1019FC000000000000002F04AB03F803D603EA0339
:101A0C0076043D003C003B003A0009000D0A000042
:00000001FF
