:100000000C9470010C94A1010C94A1010C94A10119
:100010000C94A1010C94A1010C94A1010C94A101D8
:100020000C94A1010C94A1010C94A1010C94A101C8
:100030000C94A1010C94A1010C94A1010C94A101B8
:100040000C94A1010C94A1010C94A1010C94A101A8
:100050000C94A1010C94A1010C94A1010C94050A2B
:100060000C94A1010C94B9070C94EF070C94A10116
:100070000C94A1010C94A1010C94A1010C94A10178
:100080000C94A1010C94A1010C94A1010C94A10168
:100090000C94A1010C94A1010C94A1010C94A10158
:1000A0000C94A1010C94A1010C94A1010C94A10148
:1000B0000C94A1010C94A1010C94A1010C94A10138
:1000C0000C94A1010C94A1010C94A1010C94A10128
:1000D0000C94A1010C94A1010C94A1010C94A10118
:1000E0000C94A101530B580B5D0B670B710BEA0BC2
:1000F0007B0B830B8B0B950B9F0BA90BB80BC20BC8
:10010000EA0BCC0BD60BE00B0C0C0F0CFE0B020C0D
:10011000080C460C130C170C1D0C210C250C2B0C79
:100120002F0C330C460C390C3D0C410C0C94080C74
:100130000C94330C0C94830B0C949F0B0C94CC0BF1
:100140000C9476080C94F2060C941D0C0C94210C63
:100150000C94D0060C94460C0C94E00B0C94390CC7
:100160000C9423080C9445060C943D0C0C94670BDE
:100170000C94A90B0C94250C0C945E060C940F0C9B
:100180000C942F0C0C94950B0C94170C0C94B80B2E
:100190000C94130C0C947B0B0C94580B0C94C20B0A
:1001A0000C9419080C9472060C94FE0B0C942B0CF6
:1001B0000C94410C0C94EA0B0C94710B0C94530BA3
:1001C0000C948B0B0C94D60B0C940C0C0C94020C12
:1001D0000C9450060C945D0B00000A0B02090C0DE8
:1001E0000E080703040100000000000000000000EA
:1001F00000000000000000000000000000000000FF
:1002000000000000121110000000000000000000BB
:1002100000000000000000000000000000000102DB
:100220001020200808102040102040800201020108
:1002300008040201010204081020408080402010C0
:100240000804020180040201804020100804020119
:100250000804020101020408102040800102040881
:10026000102040800505050507050808080802025A
:1002700002020A0A08080404040401010101010140
:1002800001010303030303030303040707070C0C23
:100290000C0C0C0C0C0C02020202060606060606EA
:1002A00006060B0B0B0B0B0B0B0B000022002500A3
:1002B00028002B002E00310034000201000005014F
:1002C00008010B0100002100240027002A002D0056
:1002D0003000330001010000040107010A01230876
:1002E00011241FBECFEFD1E2DEBFCDBF00E00CBFB7
:1002F00012E0A0E0B2E0E0E3FEE100E00BBF02C0EC
:1003000007900D92AE37B107D9F723E0AEE7B2E020
:1003100001C01D92A736B207E1F712E0C0EED2E0AD
:1003200000E006C022970109FE010BBF0E94A00E4B
:10033000CE3DD10780E00807A9F70E9467080C941A
:10034000160F0C94000061E089E00E94470C61E008
:100350008AE00E94470C61E086E00E94470C61E061
:1003600085E00E94470C60E087E30E94470C60E054
:1003700086E30E94470C62E088E30E94470C68EE27
:1003800073E080E090E00E947E0A87E30E94080B01
:100390009093BC028093BB0286E30E94080B90936B
:1003A000BA028093B9022091BB023091BC02220FA5
:1003B000331F3093B8022093B702880F991F909390
:1003C000B6028093B50208957093C0026093BF0295
:1003D00022273327281B390B3093BE022093BD02FE
:1003E0009B01280F391F3093AA022093A902861B74
:1003F000970B9093AC028093AB020895869F900177
:10040000879F300D969F300D11243093AA022093C0
:10041000A902719561957109869F9001879F300DA2
:10042000969F300D11243093AC022093AB020895B7
:10043000AF92BF92CF92DF92EF92FF920F931F93F2
:10044000CF936091A9027091AA02882777FD8095C9
:10045000982F1F921F921F92CFEFCF93A12CB12CF8
:10046000650118EEE12E13E0F12E00E010E028E126
:100470003CEF4FEF5FEF0E94BE097093B4026093B0
:10048000B3026091A9027091AA02882777FD809536
:10049000982F1F921F921F921F92A12CB12C6501C1
:1004A000AA9428E13CEF4FEF5FEF0E94BE097093E2
:1004B000B2026093B1026091AB027091AC028827E6
:1004C00077FD8095982F1F921F921F92CF93A12C9A
:1004D000B12C650128E13CEF4FEF5FEF0E94BE09B0
:1004E0007093B0026093AF026091AB027091AC0266
:1004F000882777FD8095982F1F921F921F921F9239
:10050000A12CB12C6501AA9428E13CEF4FEF5FEFDD
:100510000E94BE097093AE026093AD026091B30277
:100520007091B40289E00E942D0B6091B10270912C
:10053000B2028AE00E942D0B6091AF027091B0026E
:1005400086E00E942D0B8DB79EB740960FB6F894AB
:100550009EBF0FBE8DBF6091AD027091AE0285E06F
:10056000CF911F910F91FF90EF90DF90CF90BF90B0
:10057000AF900C942D0B4F925F926F927F928F925F
:100580009F92AF92BF92CF92DF92EF92FF920F9322
:100590001F934B015C01CA01B90167017801A701F2
:1005A00096010E94DB0D0E94210D80E090E00E94E8
:1005B0004D0D2B013C01A701960160E070E080E841
:1005C0009FE30E94B70C9B01AC01C501B4010E94DE
:1005D000DB0D9B01AC01C301B2010E94B80C0E946B
:1005E0001C0DCB011F910F91FF90EF90DF90CF90EA
:1005F000BF90AF909F908F907F906F905F904F9043
:100600000895CF92DF92EF92FF920F931F93CF93B3
:10061000DF93CAE0D0E064E670E080E090E00E9402
:100620007E0A54E2C52E52E0D52E01EA12E0E12CFA
:10063000F12CF6018081F2E0CF0ED11C0E94080B54
:10064000F80120813181280F391F37FF02C02F5F49
:100650003F4F35952795F801219331938F01FFEF97
:10066000EF1AFF0A84E0E816F10419F7219799F6CA
:10067000DF91CF911F910F91FF90EF90DF90CF907E
:100680000895CF93DF93C4E2D2E082E0CC32D80762
:1006900031F08881229660E00E94470CF6CFDF910E
:1006A000CF910C9401034F925F926F927F928F9241
:1006B0009F92AF92BF92CF92DF92EF92FF920F93F1
:1006C0001F93CF93DF9300D01F92CDB7DEB769E9B8
:1006D000862E62E0962E74E2C72E72E0D72EA12CF1
:1006E000B12C409020025090210260902202709024
:1006F0002302F40160817181882777FD8095982F0E
:100700000E944F0D9B01AC01F6018081F2E0CF0EFB
:10071000D11C29833A834B835C830E94080BBC0164
:10072000882777FD8095982F0E944F0D83017201D5
:1007300029813A814B815C810E94BB02F401819343
:1007400091934F014AE050E0BC0181EC92E00E949D
:10075000760961E372E081EC92E00E94B408FFEF59
:10076000AF1ABF0A84E0A816B10409F0BACF81EC31
:1007700092E00F900F900F900F90DF91CF911F910B
:100780000F91FF90EF90DF90CF90BF90AF909F9030
:100790008F907F906F905F904F900C94BD08CF9397
:1007A000E9E9F2E0A1EAB2E0C0E080E090E0619126
:1007B00071912D913D91220F331F41E050E026179A
:1007C000370714F040E050E0082E01C0440F0A94AF
:1007D000EAF74C2B01968430910511F0C42FE7CF36
:1007E00040939802CF91089526E040E855E260E0FA
:1007F00070E081EC92E00E94570768EB7BE080E0BC
:1008000090E00E947E0A0E9441030C94A301CF92C3
:10081000DF92EF92FF926B017C0180918A029091AE
:100820008B028130910509F45CC08230910509F496
:10083000B8C0892B09F0FBC060E070E080E090E078
:100840000E94E4010E941802809186029091870222
:10085000A0918802B0918902B701A601481B590BEB
:100860006A0B7B0B80910E0290910F02A0911002F7
:10087000B091110284179507A607B70708F0D7C0F3
:10088000C0928602D0928702E0928802F09289029A
:1008900020E137E240E050E068E873E180E090E07A
:1008A0000E94A20960930E0270930F0280931002BF
:1008B0009093110228EE33E040E050E068E17CEFD5
:1008C0008FEF9FEF0E94A20960957095809590959B
:1008D000662797FD63957727882799276F5F7F4F56
:1008E0005BC060912C0270912D0280910402909166
:1008F00005020E94FE010E941802809182029091DE
:100900008302A0918402B0918502B701A601481B21
:10091000590B6A0B7B0B80910A0290910B02A091FC
:100920000C02B0910D0284179507A607B70708F0CF
:100930007EC0C0928202D0928302E0928402F09242
:10094000850228EE33E040E050E068E17CEF8FEF75
:100950009FEF0E94A20997FF03C08FEF9FEF02C095
:1009600081E090E0909305028093040228EE33E04A
:1009700040E050E068E17CEF8FEF9FEF0E94A2091A
:100980006095709580959095662797FD639577277C
:1009900088279927660F771F70938B0260938A02CE
:1009A00046C080912E0290912F0260E070E09195F8
:1009B000819591090E94E4010E94180280917E02B3
:1009C00090917F02A0918002B0918102B701A601AF
:1009D000481B590B6A0B7B0B809106029091070212
:1009E000A0910802B091090284179507A607B707DE
:1009F000F0F4C0927E02D0927F02E0928002F092E8
:100A0000810228EE33E040E050E060E070E0CB018E
:100A10000E94A20921E030E0643F71408105910508
:100A200014F420E030E030938B0220938A02FF9090
:100A3000EF90DF90CF900895809198028D7F813064
:100A400019F48FEF9FEF089581E090E00895CF9221
:100A5000DF92EF92FF920F931F93CF93DF9300D01B
:100A60001F92CDB7DEB761E070E080E090E00E94B9
:100A70007E0A0E944F0A69837A838B839C830E943B
:100A800053030E94CF03009194021091950220918C
:100A900096023091970269817A818B819C816B01EA
:100AA0007C01C01AD10AE20AF30A00911C021091DB
:100AB0001D02222717FD2095322FC016D106E2060F
:100AC000F30608F4D5C06093940270939502809366
:100AD00096029093970280911E0290911F02883097
:100AE000910509F47AC080319105A1F1019709F0CF
:100AF000BFC00E944F0A0E9407048091980289306B
:100B000009F4B6C00E941C0590931B0280931A0240
:100B10000E944F0A60938C0270938D0280938E0224
:100B200090938F0280E190E090931F0280931E02C9
:100B300063E372E081EC92E00F900F900F900F90C2
:100B4000DF91CF911F910F91FF90EF90DF90CF90A9
:100B50000C94C1080E944F0A00918C0210918D02E2
:100B600020918E0230918F02601B710B820B930BD0
:100B7000009112021091130220911402309115027B
:100B8000601771078207930748F460E070E0809176
:100B90002E0290912F020E94E40144C020EA3FE01F
:100BA00040E050E068EE73E080E090E00E94A2092F
:100BB00060931602709317028093180290931902A3
:100BC0000E944F0A60939002709391028093920268
:100BD0009093930288E090E047C00E944F0A0091F2
:100BE0009002109191022091920230919302601B29
:100BF000710B820B930B009116021091170220913A
:100C00001802309119026017710782079307C0F428
:100C100060912C0270912D0280911A0290911B021A
:100C20000E94FE010F900F900F900F90DF91CF91D7
:100C30001F910F91FF90EF90DF90CF900C941802CE
:100C400020EA3FE040E050E068EE73E080E090E0B2
:100C50000E94A209609316027093170280931802F3
:100C60009093190281E090E090931F0280931E02FE
:100C70000F900F900F900F90DF91CF911F910F91D8
:100C8000FF90EF90DF90CF900895FC01818D228D31
:100C900090E0805C9F4F821B91098F739927089584
:100CA000FC01918D828D981731F0828DE80FF11D36
:100CB000858D90E008958FEF9FEF0895FC01918D51
:100CC000828D981761F0828DDF01A80FB11D5D96AE
:100CD0008C91928D9F5F9F73928F90E008958FEF1C
:100CE0009FEF089589E198E0892B41F080E090E042
:100CF000892B21F00E941908811125C080E090E025
:100D0000892B41F080E090E0892B21F00E940000C7
:100D100081111CC080E090E0892B41F080E090E0E0
:100D2000892B21F00E940000811113C080E090E027
:100D3000892BA1F080E090E0892B81F00E940000D7
:100D400081110AC008950E940000D8CF0E940000BF
:100D5000E1CF0E940000EACF0C9400000895FC014E
:100D6000848DDF01A80FB11DA35ABF4F2C91848D34
:100D700090E001968F739927848FA689B7892C9369
:100D8000A089B1898C9180648C93938D848D981304
:100D900006C00288F389E02D80818F7D80830895CD
:100DA000CF93DF93EC01888D8823C9F0EA89FB8912
:100DB000808185FD05C0A889B9898C9186FD0FC009
:100DC0000FB607FCF5CF808185FFF2CFA889B989DE
:100DD0008C9185FFEDCFCE010E94AF06E7CFDF916A
:100DE000CF910895CF92DF92FF920F931F93CF93ED
:100DF000DF931F92CDB7DEB76C0181E0D601589624
:100E00008C9358975B969C915B975C968C915C97C2
:100E1000981307C05096ED91FC915197808185FD04
:100E20002EC0F601038D10E00F5F1F4F0F731127C7
:100E3000F02EF601848DF81211C00FB607FCF9CF21
:100E4000D6015096ED91FC915197808185FFF1CFAD
:100E5000C60169830E94AF066981EBCF838DE80FDD
:100E6000F11DE35AFF4F6083D6015B960C935B97AD
:100E70005296ED91FC915397808180620CC0D6010F
:100E80005696ED91FC91579760835096ED91FC91A9
:100E9000519780818064808381E090E00F90DF91A2
:100EA000CF911F910F91FF90DF90CF900895BF9247
:100EB000CF92DF92EF92FF92CF93DF93EC016A0122
:100EC0007B01B22EE889F98982E08083411581EEA9
:100ED000580761057105A1F060E079E08DE390E0CD
:100EE000A70196010E944E0E215031094109510976
:100EF0005695479537952795211580E1380798F045
:100F0000E889F989108260E874E88EE190E0A70131
:100F100096010E944E0E2150310941095109569502
:100F2000479537952795EC85FD853083EE85FF85C0
:100F30002083188EEC89FD89B082EA89FB89808143
:100F400080618083EA89FB89808188608083EA8967
:100F5000FB89808180688083EA89FB8980818F7D1D
:100F60008083DF91CF91FF90EF90DF90CF90BF9083
:100F700008951F920F920FB60F9211240BB60F9285
:100F80002F938F939F93EF93FF93E091D102F09172
:100F9000D2028081E091D702F091D80282FD12C086
:100FA00090818091DA028F5F8F732091DB0282172C
:100FB00051F0E091DA02F0E0EF53FD4F958F80930E
:100FC000DA0201C08081FF91EF919F918F912F9163
:100FD0000F900BBE0F900FBE0F901F9018951F9291
:100FE0000F920FB60F9211240BB60F922F933F93CF
:100FF0004F935F936F937F938F939F93AF93BF9321
:10100000EF93FF9381EC92E00E94AF06FF91EF9186
:10101000BF91AF919F918F917F916F915F914F9110
:101020003F912F910F900BBE0F900FBE0F901F900E
:10103000189581EC92E00E94450621E0892B09F485
:1010400020E0822F08951092C4021092C30288EE0D
:1010500093E0A0E0B0E08093C5029093C602A09315
:10106000C702B093C80280E692E09093C2028093D8
:10107000C10285EC90E09093CE028093CD0284EC87
:1010800090E09093D0028093CF0280EC90E0909318
:10109000D2028093D10281EC90E09093D4028093AD
:1010A000D30282EC90E09093D6028093D50286EC36
:1010B00090E09093D8028093D7021092DA021092B7
:1010C000DB021092DC021092DD02089508950E9466
:1010D000A60A0E9466080E94F403C2E7D6E00E94B6
:1010E00027052097E1F30E947206F9CFCF92DF9295
:1010F000EF92FF920F931F93CF93DF936C017A01CE
:10110000EB01E60EF71E00E010E0CE15DF0561F002
:101110006991D601ED91FC910190F081E02DC6011D
:101120001995080F191FF1CFC801DF91CF911F91B9
:101130000F91FF90EF90DF90CF90089561157105AA
:1011400081F0DB010D900020E9F7AD01415051091C
:10115000461B570BDC01ED91FC910280F381E02DE1
:10116000199480E090E008950C949E08DC01ED91C4
:10117000FC910190F081E02D19946CE672E00C94E2
:101180009E080F931F93CF93DF93EC010E949E085C
:101190008C01CE010E94BD08800F911FDF91CF917D
:1011A0001F910F9108958F929F92AF92BF92CF920D
:1011B000DF92EF92FF920F931F93CF93DF93CDB700
:1011C000DEB7A1970FB6F894DEBF0FBECDBF7C018E
:1011D000C42EE52FCB01D22E19A221E02D1510F03F
:1011E0002AE0D22E8E010F5D1F4F8D2C912CA12C49
:1011F000B12C6C2D7E2FA50194010E944E0E8C2DDA
:10120000D29E80191124015011098A3014F4805D96
:1012100001C0895CF8018083211531054105510524
:1012200021F0C22EE32FCA01E4CFB801C7010E940A
:101230009E08A1960FB6F894DEBF0FBECDBFDF911A
:10124000CF911F910F91FF90EF90DF90CF90BF90C3
:10125000AF909F908F900895CF92DF92EF92FF9280
:101260000F931F93CF93DF93EC016A017B0121154C
:10127000310579F4E881F9810190F081E02D642F46
:10128000DF91CF911F910F91FF90EF90DF90CF9062
:1012900019942A303105E9F477FF1AC06DE20E94F3
:1012A000B6088C0144275527BA014C195D096E090F
:1012B0007F092AE0CE010E94D308800F911FDF91A1
:1012C000CF911F910F91FF90EF90DF90CF900895F5
:1012D0002AE0B701A601CE01DF91CF911F910F91B6
:1012E000FF90EF90DF90CF900C94D3089A01AB0160
:1012F000662757FD6095762F0C942C09CF93DF93CA
:1013000000D01F92CDB7DEB79B01AC01611571050E
:101310008105910569F069833A834B835C830E9460
:10132000010F29813A814B815C810E94700E03C0BC
:1013300060E070E0CB010F900F900F900F90DF9165
:10134000CF910895CF92DF92EF92FF926B017C01D3
:10135000621773078407950764F4CA01B9016C1911
:101360007D098E099F090E947E096C0D7D1D8E1DD1
:101370009F1DFF90EF90DF90CF9008954F925F9266
:101380006F927F92AF92BF92CF92DF92EF92FF92D5
:101390000F931F93CF93DF93CDB7DEB729013A01A7
:1013A000621B730B840B950B2A893B894C895D89E1
:1013B0002A193B094C095D092A8B3B8B4C8B5D8BB1
:1013C0009B01AC016A897B898C899D890E943E0EB4
:1013D000E418F50806091709A80197010E94700E84
:1013E0002A0D3B1D4C1D5D1DCA01B901DF91CF9136
:1013F0001F910F91FF90EF90DF90CF90BF90AF9033
:101400007F906F905F904F9008951F920F920FB64C
:101410000F9211242F933F938F939F93AF93BF937A
:1014200080915F0390916003A0916103B09162038A
:1014300030915E0323E0230F2D3720F40196A11D88
:10144000B11D05C026E8230F0296A11DB11D2093F2
:101450005E0380935F0390936003A0936103B09356
:1014600062038091630390916403A0916503B0913E
:1014700066030196A11DB11D8093630390936403DD
:10148000A0936503B0936603BF91AF919F918F9135
:101490003F912F910F900FBE0F901F9018952FB76F
:1014A000F89460915F037091600380916103909163
:1014B00062032FBF08953FB7F89480916303909122
:1014C0006403A0916503B091660326B5A89B05C08F
:1014D0002F3F19F00196A11DB11D3FBF6627782F40
:1014E000892F9A2F620F711D811D911D42E0660F99
:1014F000771F881F991F4A95D1F70895CF92DF92E1
:10150000EF92FF92CF93DF936B017C010E945B0A05
:10151000EB01C114D104E104F10489F00E94B60C7E
:101520000E945B0A6C1B7D0B683E734090F381E068
:10153000C81AD108E108F108C851DC4FEACFDF91A1
:10154000CF91FF90EF90DF90CF900895789484B57D
:10155000826084BD84B5816084BD85B5826085BDAF
:1015600085B5816085BDEEE6F0E080818160808395
:10157000E1E8F0E010828081826080838081816078
:101580008083E0E8F0E0808181608083E1EBF0E03F
:10159000808184608083E0EBF0E0808181608083E3
:1015A000E1E9F0E0808182608083808181608083D6
:1015B000E0E9F0E0808181608083E1EAF0E0808111
:1015C00082608083808181608083E0EAF0E08081B6
:1015D00081608083E1E2F1E08081826080838081AC
:1015E00081608083E0E2F1E0808181608083EAE7CE
:1015F000F0E080818460808380818260808380814C
:10160000816080838081806880831092C10008950A
:10161000863308F0865320917B00982F9870277F9F
:10162000922B90937B0087702091300290E4299F49
:1016300090011124822B80937C0080917A00806439
:1016400080937A0080917A0086FDFCCF80917800AB
:101650002091790090E0922B08951F93CF93DF9310
:10166000182FEB0161E00E94470C209711F460E015
:1016700004C0CF3FD10539F461E0812FDF91CF91D4
:101680001F910C94800CE12FF0E0E852FE4F449142
:1016900050E0FA013197E231F10508F09BC0EE58B5
:1016A000FF4F0C948F0E84B5806884BDC7BD97C072
:1016B00084B5806284BDC8BD92C08091800080687E
:1016C00080938000D0938900C093880088C0809167
:1016D0008000806280938000D0938B00C0938A004A
:1016E0007EC080918000886080938000D0938D00C0
:1016F000C0938C0074C08091B00080688093B0006B
:10170000C093B3006CC08091B00080628093B00041
:10171000C093B40064C08091900080688093900072
:10172000D0939900C09398005AC080919000806235
:1017300080939000D0939B00C0939A0050C08091FA
:101740009000886080939000D0939D00C0939C008F
:1017500046C08091A00080688093A0008091A00086
:101760008F7B8093A000D093A900C093A80037C0BE
:101770008091A00080628093A000D093AB00C093C2
:10178000AA002DC08091A00088608093A000D09313
:10179000AD00C093AC0023C080912001806880938D
:1017A0002001D0932901C093280119C08091200104
:1017B000806280932001D0932B01C0932A010FC037
:1017C00080912001886080932001D0932D01C093E7
:1017D0002C0105C0C038D1050CF04ECF48CFDF91A9
:1017E000CF911F91089590E0FC013197E231F1050E
:1017F00008F04CC0EC57FF4F0C948F0E8091800086
:101800008F7703C0809180008F7D80938000089542
:1018100080918000877FF9CF84B58F7702C084B52F
:101820008F7D84BD08958091B0008F7703C0809133
:10183000B0008F7D8093B0000895809190008F77E5
:1018400007C0809190008F7D03C080919000877FBA
:101850008093900008958091A0008F7707C08091B9
:10186000A0008F7D03C08091A000877F8093A0009F
:101870000895809120018F7707C0809120018F7D8E
:1018800003C080912001877F809320010895CF932A
:10189000DF9390E0FC01E25EFD4F2491FC01EC59E6
:1018A000FD4F8491882349F190E0880F991FFC0136
:1018B000EC53FD4FA591B49186559D4FFC01C59108
:1018C000D4919FB7611108C0F8948C912095822320
:1018D0008C93888182230AC0623051F4F8948C91F1
:1018E000322F309583238C938881822B888304C088
:1018F000F8948C91822B8C939FBFDF91CF910895A8
:101900000F931F93CF93DF931F92CDB7DEB7282F8E
:1019100030E0F901E852FE4F8491F901E25EFD4F9B
:101920001491F901EC59FD4F04910023C9F088236B
:1019300021F069830E94F30B6981E02FF0E0EE0F44
:10194000FF1FE655FD4FA591B4919FB7F8948C9178
:10195000611103C01095812301C0812B8C939FBF1F
:101960000F90DF91CF911F910F91089508955058D6
:10197000BB27AA270ED0E5C0D6D030F0DBD020F0B0
:1019800031F49F3F11F41EF4CBC00EF4E095E7FB59
:10199000C1C0E92FE7D080F3BA1762077307840745
:1019A000950718F071F49EF5FFC00EF4E0950B2E2C
:1019B000BA2FA02D0B01B90190010C01CA01A001A1
:1019C0001124FF27591B99F0593F50F4503E68F1FC
:1019D0001A16F040A22F232F342F4427585FF3CF3D
:1019E000469537952795A795F0405395C9F77EF40E
:1019F0001F16BA0B620B730B840BBAF09150A1F057
:101A0000FF0FBB1F661F771F881FC2F70EC0BA0FDC
:101A1000621F731F841F48F4879577956795B79564
:101A2000F7959E3F08F0B3CF9395880F08F099275C
:101A3000EE0F97958795089504D06894B111B5C0BD
:101A4000089598D088F09F5790F0B92F9927B751F3
:101A5000A0F0D1F0660F771F881F991F1AF0BA9572
:101A6000C9F712C0B13081F09FD0B1E008959CC099
:101A7000672F782F8827B85F39F0B93FCCF3869568
:101A800077956795B395D9F73EF4909580957095C5
:101A900061957F4F8F4F9F4F0895E89409C097FB42
:101AA0003EF490958095709561957F4F8F4F9F4F35
:101AB0009923A9F0F92F96E9BB279395F695879579
:101AC00077956795B795F111F8CFFAF4BB0F11F43C
:101AD00060FF1BC06F5F7F4F8F4F9F4F16C08823E3
:101AE00011F096E911C0772321F09EE8872F762F19
:101AF00005C0662371F096E8862F70E060E02AF05A
:101B00009A95660F771F881FDAF7880F9695879545
:101B100097F9089597F99F6780E870E060E008956D
:101B20009FEF80EC089500240A94161617061806F5
:101B30000906089500240A941216130614060506D1
:101B40000895092E0394000C11F4882352F0BB0F62
:101B500040F4BF2B11F460FF04C06F5F7F4F8F4FC5
:101B60009F4F089557FD9058440F551F59F05F3F00
:101B700071F04795880F97FB991F61F09F3F79F0AF
:101B800087950895121613061406551FF2CF469531
:101B9000F1DF08C0161617061806991FF1CF8695B3
:101BA0007105610508940895E894BB276627772797
:101BB000CB0197F908950BD0C4CFB5DF28F0BADF79
:101BC00018F0952309F0A6CFABCF1124EECFCADFD2
:101BD000A0F3959FD1F3950F50E0551F629FF00140
:101BE000729FBB27F00DB11D639FAA27F00DB11D99
:101BF000AA1F649F6627B00DA11D661F829F222722
:101C0000B00DA11D621F739FB00DA11D621F839FA8
:101C1000A00D611D221F749F3327A00D611D231F7E
:101C2000849F600D211D822F762F6A2F11249F57CC
:101C300050408AF0E1F088234AF0EE0FFF1FBB1FEF
:101C4000661F771F881F91505040A9F79E3F51058E
:101C500070F060CFAACF5F3FECF3983EDCF386953F
:101C600077956795B795F795E7959F5FC1F7FE2B39
:101C7000880F911D9695879597F90895DB018F93AD
:101C80009F930E94950EBF91AF91A29F800D911DD1
:101C9000A39F900DB29F900D11240895A1E21A2EDA
:101CA000AA1BBB1BFD010DC0AA1FBB1FEE1FFF1F00
:101CB000A217B307E407F50720F0A21BB30BE40B50
:101CC000F50B661F771F881F991F1A9469F7609597
:101CD0007095809590959B01AC01BD01CF01089551
:101CE000052E97FB1EF400940E94870E57FD07D027
:101CF0000E944E0E07FC03D04EF40C94870E5095B4
:101D00004095309521953F4F4F4F5F4F08959095E7
:101D10008095709561957F4F8F4F9F4F0895EE0F7F
:101D2000FF1F0590F491E02D19940E94A40EA59F29
:101D3000900DB49F900DA49F800D911D11240895C6
:101D40000790F691E02D1994A29FB001B39FC001B6
:101D5000A39F700D811D1124911DB29F700D811DD7
:101D60001124911D08958F929F92AF92BF92CF92AE
:101D7000DF92EF92FF92CF93DF93EC01688179813C
:101D80008A819B81611571058105910521F464E2C9
:101D900079ED8BE597E02DE133EF41E050E00E94D3
:101DA000700E49015A019B01AC01A7EAB1E40E94FF
:101DB000950E6B017C01ACEEB4EFA50194010E947D
:101DC000110FC60ED71EE81EF91EF7FE06C081E0F1
:101DD000C81AD108E10880E8F80AC882D982EA82E4
:101DE000FB82C701B6019F77DF91CF91FF90EF9003
:101DF000DF90CF90BF90AF909F908F9008950C94FC
:101E0000B30E80E092E00C94B30E609300027093E6
:101E1000010280930202909303020895B7FF0C948D
:101E2000950E0E94950E821B930B0895F894FFCF98
:101E3000010000000100B80B0000B80B00001027E3
:101E40000000E8030000D0070000010014000100BA
:101E50009A99593F3D003C003B003A009001FA003E
:101E600001090064657465637461646F30303030FB
:101E70003030303030303030303030303030303062
:101E80003030303030303030303030000000000042
:101E9000F206760845065E065006D0060D0A006E6C
:0E1EA000616E00696E66006F7666002E0000AF
:00000001FF
