:100000000C946C000C9494000C9494000C94940048
:100010000C9494000C9494000C9494000C94940010
:100020000C9494000C9494000C9494000C94940000
:100030000C9494000C9494000C9494000C949400F0
:100040000C9409050C9494000C9479050C945305B8
:100050000C9494000C9494000C9494000C949400D0
:100060000C9494000C9494002A0838084508380829
:1000700045084508450838082F082A0845082A0871
:100080002F082A082F0800000000240027002A005B
:1000900000000000250028002B00040404040404D0
:1000A0000404020202020202030303030303010227
:1000B00004081020408001020408102001020408F6
:1000C00010200000000800020100000304070000E7
:1000D000000000000000AB0511241FBECFEFD8E0E8
:1000E000DEBFCDBF11E0A0E0B1E0E4ECF4E102C07E
:1000F00005900D92A637B107D9F722E0A6E7B1E047
:1001000001C01D92AD35B207E1F710E0CCE6D0E0BA
:1001100004C02197FE010E94550ACB36D107C9F7CA
:100120000E94F6050C94600A0C9400001092A7013E
:100130001092A60122273327281B390B3093A501E3
:100140002093A4019093A3018093A2019093A10115
:100150008093A001089590E0FC01EE53FF4F34918D
:10016000FC01E255FF4F2491FC01E656FF4FE4915C
:10017000EE2309F43BC0332339F1333091F038F4E6
:100180003130A9F0323001F584B58F7D12C037309F
:1001900091F03830A1F03430B9F4809180008F7D37
:1001A00003C0809180008F77809380000DC084B55C
:1001B0008F7784BD09C08091B0008F7703C0809194
:1001C000B0008F7D8093B000F0E0EE0FFF1FE0578E
:1001D000FF4FA591B4918FB7F894EC91611103C0D2
:1001E00020952E2301C02E2B2C938FBF0895CF93E3
:1001F000DF9390E0FC01E255FF4F2491FC01E656AD
:10020000FF4F8491882361F190E0880F991FFC01D2
:10021000EA57FF4FC591D491FC01E057FF4FA591DC
:10022000B491611109C09FB7F89488812095822309
:100230008883EC912E230BC0623061F49FB7F89451
:100240003881822F809583238883EC912E2B2C93E9
:100250009FBF06C08FB7F894E8812E2B28838FBFED
:10026000DF91CF9108951F93CF93DF93182FEB0168
:1002700061E00E94F700209711F460E004C0CF3FD6
:10028000D10539F461E0812FDF91CF911F910C945A
:10029000AB00E12FF0E0EE53FF4FE491E330F9F0D3
:1002A00048F4E130B9F0E230A1F584B5806284BD54
:1002B000C8BD34C0E730E9F0E83019F1E43049F561
:1002C00080918000806280938000D0938B00C093E7
:1002D0008A0024C084B5806884BDC7BD1FC08091DA
:1002E0008000806880938000D0938900C09388004C
:1002F00015C08091B00080688093B000C093B300B7
:100300000DC08091B00080628093B000C093B400B3
:1003100005C0C038D1050CF0B5CFAFCFDF91CF917C
:100320001F9108958E3008F08E50877080648093FE
:100330007C0080917A00806480937A0080917A00BA
:1003400086FDFCCF809178002091790090E0922B7F
:1003500008953FB7F89480919C0190919D01A091E0
:100360009E01B0919F0126B5A89B05C02F3F19F0B3
:100370000196A11DB11D3FBFBA2FA92F982F882725
:10038000820F911DA11DB11DBC01CD0142E0660F80
:10039000771F881F991F4A95D1F708958F929F92D2
:1003A000AF92BF92CF92DF92EF92FF926B017C01EE
:1003B0000E94A9014B015C01C114D104E104F104C4
:1003C000F1F00E94A901DC01CB0188199909AA0961
:1003D000BB09883E9340A105B10570F321E0C21A24
:1003E000D108E108F10888EE880E83E0981EA11C70
:1003F000B11CC114D104E104F10419F7DDCFFF9061
:10040000EF90DF90CF90BF90AF909F908F90089526
:10041000CF92DF92EF92FF920F931F93CF93DF93D0
:100420006C017A018B01C0E0D0E0CE15DF0589F0C8
:10043000D8016D918D01D601ED91FC910190F08173
:10044000E02DC6010995892B11F47E0102C0219689
:10045000ECCFC701DF91CF911F910F91FF90EF90EB
:10046000DF90CF900895FC01918D828D981761F0F7
:10047000828DDF01A80FB11D5D968C91928D9F5FDB
:100480009F73928F90E008958FEF9FEF0895FC0186
:10049000918D828D981731F0828DE80FF11D858D39
:1004A00090E008958FEF9FEF0895FC01918D228DCC
:1004B000892F90E0805C9F4F821B91098F73992751
:1004C000089588EA91E00E94550221E0892B09F401
:1004D00020E0822F0895FC01848DDF01A80FB11D5B
:1004E000A35ABF4F2C91848D90E001968F7399276A
:1004F000848FA689B7892C93A089B1898C91806457
:100500008C93938D848D981306C00288F389E02D17
:1005100080818F7D80830895EF92FF920F931F93C8
:10052000CF93DF93EC0181E0888F9B8D8C8D9813A6
:1005300005C0E889F989808185FD24C0F62E0B8DE0
:1005400010E00F5F1F4F0F731127E02E8C8DE81204
:100550000CC00FB607FCFACFE889F989808185FFC6
:10056000F5CFCE010E946B02F1CF8B8DFE01E80F1B
:10057000F11DE35AFF4FF0820B8FEA89FB898081DE
:10058000806207C0EE89FF896083E889F9898081EC
:100590008064808381E090E0DF91CF911F910F9183
:1005A000FF90EF900895CF93DF93EC01888D88231F
:1005B000C9F0EA89FB89808185FD05C0A889B989D0
:1005C0008C9186FD0FC00FB607FCF5CF808185FFAB
:1005D000F2CFA889B9898C9185FFEDCFCE010E9419
:1005E0006B02E7CFDF91CF91089580E090E0892BF7
:1005F00029F00E94610281110C9400000895CF93AC
:10060000DF93EC0160E08E810E94AB0061E08E819F
:100610000E94AB0060E08E810E94AB008BE891E00D
:100620000197F1F7DF91CF910895CF92DF92EF928A
:10063000FF920F931F93CF93DF937C016C0187E0B0
:10064000C80ED11CC0E0D0E0062F10E0B8010C2E7F
:1006500002C0759567950A94E2F76170F601819181
:100660006F010E94AB002196C430D10579F7C70114
:10067000DF91CF911F910F91FF90EF90DF90CF907E
:100680000C94FF02CF92DF92EF92FF920F931F9391
:10069000CF93DF93EC01F62E642F8C810E94AB0088
:1006A0008D818F3F19F060E00E94AB008F850F2D88
:1006B00010E084FF25C06E0187E0C80ED11CE12C3C
:1006C000F12CB8010E2C02C0759567950A94E2F7DB
:1006D0006170F60181916F010E94AB00FFEFEF1A8C
:1006E000FF0A88E0E816F10461F7CE01DF91CF91AF
:1006F0001F910F91FF90EF90DF90CF900C94FF022D
:10070000B80184E0759567958A95E1F7CE010E945E
:1007100015036F2DCE01DF91CF911F910F91FF90A7
:10072000EF90DF90CF900C94150341E00E944203BC
:1007300081E090E0089540E00C944203EF92FF9234
:100740000F931F93CF93DF93EC01623018F08F85E6
:1007500088608F876B8B1C8A80E48D8B80E18E8B09
:1007600080E58F8B61E08C810E94F7008D818F3F47
:1007700019F061E00E94F70061E08E810E94F700AD
:100780007E0187E0E80EF11C00E010E08F8584FD1B
:1007900003C084E090E002C088E090E008171907E9
:1007A0004CF461E0F70181917F010E94F7000F5F37
:1007B0001F4FECCF8BE39DE00197F1F760E08C8158
:1007C0000E94AB0060E08E810E94AB008D818F3F64
:1007D00019F060E00E94AB006F8564FD1DC063E00E
:1007E000CE010E9415030BE416E4C8010197F1F74E
:1007F00063E0CE010E941503C8010197F1F763E0A1
:10080000CE010E94150383E592E00197F1F762E0C3
:10081000CE010E94150316C06062CE010E949B03A8
:100820008BE496E40197F1F76F856062CE010E9438
:100830009B0383E592E00197F1F76F856062CE013B
:100840000E949B036F856062CE010E949B0384E03F
:10085000888B6CE0CE010E949B0361E0CE010E9478
:100860009B038BE39FE10197F1F782E0898B66E0C0
:10087000CE01DF91CF911F910F91FF90EF900C94DB
:100880009B034F925F926F927F928F929F92AF9253
:10089000BF92CF92DF92EF92FF92CF93DF93CDB7CB
:1008A000DEB728970FB6F894DEBF0FBECDBFC0905D
:1008B000A201D090A3010D2C000CEE08FF0888EED9
:1008C000C80E83E0D81EE11CF11CAFEFB0E0A70119
:1008D00096010E94730820ED822E27E0922EA12C13
:1008E000B12CA50194010E94540829833A834B83BB
:1008F0005C83A981BA81B0937D01A0937C01A1E0C2
:10090000BFEFA70196010E948108A50194010E94F2
:100910005408DA01C90181509F4FAF4FBF4F8D83FB
:100920009E83AF83B88790937B0180937A01C090B8
:10093000A001D090A1010D2C000CEE08FF0898EE4C
:10094000C90E93E0D91EE11CF11CAFEFB0E0A70186
:1009500096010E947308A50194010E945408290180
:100960003A013093790120937801A1E0BFEFA7010C
:1009700096010E948108A50194010E945408690112
:100980007A01AFEFCA0ED11CE11CF11CD0927701A5
:10099000C092760169817A8189E00E9433016D817C
:1009A0007E818AE00E943301B20185E00E9433011A
:1009B000B60186E028960FB6F894DEBF0FBECDBF15
:1009C000DF91CF91FF90EF90DF90CF90BF90AF90ED
:1009D0009F908F907F906F905F904F900C94330119
:1009E0000E945B0A6115710579F0FB0101900020FE
:1009F000E9F73197AF01461B570BDC01ED91FC91F4
:100A00000280F381E02D099480E090E008950C9439
:100A1000F2041F920F920FB60F9211242F933F935F
:100A20008F939F93AF93BF93809198019091990179
:100A3000A0919A01B0919B013091970123E0230F7F
:100A40002D3720F40196A11DB11D05C026E8230F06
:100A50000296A11DB11D2093970180939801909358
:100A60009901A0939A01B0939B0180919C01909170
:100A70009D01A0919E01B0919F010196A11DB11D04
:100A800080939C0190939D01A0939E01B0939F0140
:100A9000BF91AF919F918F913F912F910F900FBE7A
:100AA0000F901F9018951F920F920FB60F9211245E
:100AB0002F933F934F935F936F937F938F939F9366
:100AC000AF93BF93EF93FF9388EA91E00E946B028C
:100AD000FF91EF91BF91AF919F918F917F916F9116
:100AE0005F914F913F912F910F900FBE0F901F90EC
:100AF00018951F920F920FB60F9211242F938F9378
:100B00009F93EF93FF93E091B801F091B901808139
:100B1000E091BE01F091BF0182FD12C090818091F1
:100B2000C1018F5F8F732091C201821751F0E09154
:100B3000C101F0E0E855FE4F958F8093C10101C0DF
:100B40008081FF91EF919F918F912F910F900FBE18
:100B50000F901F901895E8EAF1E01382128288EE58
:100B600093E0A0E0B0E084839583A683B7838CE014
:100B700091E09183808385EC90E09587848784EC75
:100B800090E09787868780EC90E0918B808B81EC5A
:100B900090E0938B828B82EC90E0958B848B86EC3B
:100BA00090E0978B868B118E128E138E148EE5E457
:100BB000F2E0138212828CE191E0918380838BE0DA
:100BC00084838FEF85838CE0868384E1878386E14D
:100BD000808788E181878AE182871386148615865B
:100BE0001686178661E0CF010C949E03CF93DF93A6
:100BF000CDB7DEB7A1970FB6F894DEBF0FBECDBF5D
:100C0000789484B5826084BD84B5816084BD85B5E7
:100C1000826085BD85B5816085BD80916E008160F3
:100C200080936E0010928100809181008260809399
:100C3000810080918100816080938100809180009B
:100C40008160809380008091B10084608093B100C6
:100C50008091B00081608093B00080917A008460C0
:100C600080937A0080917A00826080937A008091EC
:100C70007A00816080937A0080917A008068809306
:100C80007A001092C100E091B801F091B90182E0C0
:100C90008083E091B401F091B5011082E091B6013A
:100CA000F091B7018FEC80831092C001E091BC01FC
:100CB000F091BD0186E08083E091BA01F091BB0123
:100CC000808180618083E091BA01F091BB018081D5
:100CD00088608083E091BA01F091BB0180818068D7
:100CE0008083E091BA01F091BB0180818F7D808388
:100CF00060E085E10E94F70060E084E10E94F70077
:100D000060E083E10E94F70060E082E10E94F7006A
:100D100064E670E080E090E00E94CE01E6E8EE2E0E
:100D2000E1E0FE2E00E011E0F1E008301F0789F05D
:100D3000D8018C910E5F1F4F0E949201F7018193A1
:100D400091937F016AE070E080E090E00E94CE0124
:100D5000EBCF61E089E00E94F70061E08AE00E9449
:100D6000F70061E085E00E94F70061E086E00E9404
:100D7000F70060E08FE00E94F70060E08EE00E94E4
:100D8000F70062E080E10E94F70068EE73E080E027
:100D900090E00E94CE018FE00E9492018C0190931E
:100DA0008501809384018EE00E94920190938301DB
:100DB00080938201000F111F109381010093800125
:100DC0009C01220F331F30937F0120937E0162E04C
:100DD00085E492E00E949E037AE0872E912CA12C5C
:100DE000B12C61E070E080E090E00E94CE013EE82E
:100DF000232E31E0332E810140E0E42E41E0F42E39
:100E0000B1E006391B0709F488C0D8016D917C91C7
:100E1000072E000C880B990B0E945C092B013C01EA
:100E2000F7018081F2E0EF0EF11C0E9492016C014B
:100E30002DEC3CEC4CE45FE3C301B2010E94E809F5
:100E40000E942B0980E090E00E945A092B013C018E
:100E5000B601DD0C880B990B0E945C092CEC3CEC74
:100E60004CE45EE30E94E8099B01AC01C301B201BE
:100E70000E94B8080E942409D8016D937D938D01CA
:100E80002B01770F6608770877FE26C0E091A8014E
:100E9000F091A9010190F081E02D6DE288EA91E0E6
:100EA000099522273327A90124193509460957092D
:100EB00019A2FE01B1966F01CA01B901A501940101
:100EC0000E948608605DD6016E936D012115310583
:100ED0004105510589F715C0A301920119A2FE0130
:100EE000B1966F01CA01B901A50194010E9486085B
:100EF000605DD6016E936D012115310541055105E7
:100F000089F7B60188EA91E00E94F20460E271E09C
:100F100088EA91E00E94070573CF62E271E088EAF7
:100F200091E00E94F204E6E8F1E010E080E090E059
:100F3000D1016D917D911D0141915191440F551F3A
:100F400021E030E04617570714F020E030E0082E8B
:100F500001C0220F0A94EAF7122B01968430910502
:100F600039F71093960161E085E492E00E949B03BB
:100F70008BE39FE10197F1F7E1E080915802811145
:100F8000E0E0E195F0E0EB5BFD4F6489606885E4AB
:100F900092E00E949B03111103C065E271E04AC018
:100FA000113019F46AE271E045C0123019F46FE2B1
:100FB00071E040C0133019F464E371E03BC01430B9
:100FC00019F469E371E036C0153019F46EE371E08D
:100FD00031C0163019F463E471E02CC0173019F4F5
:100FE00068E471E027C0183019F46DE471E022C0A4
:100FF000193019F462E571E01DC01A3019F467E583
:1010000071E018C01B3019F46CE571E013C01C309E
:1010100019F461E671E00EC01D3019F466E671E066
:1010200009C01E3019F46BE671E004C01F3031F4C2
:1010300060E771E085E492E00E940705E091960187
:101040008E2F90E08F30910500F5FC01EC5CFF4F96
:101050000C94550A80E991E00E9496001EC080E73A
:101060009EEF9093A3018093A20180E991E008C0D4
:1010700080E991E09093A3018093A20180E79EEF25
:101080009093A1018093A00108C01092A301109237
:10109000A2011092A1011092A0010E9441040E949D
:1010A00041040E94F5029DCE052E97FB1EF400948C
:1010B0000E946B0857FD07D00E94860807FC03D0EA
:1010C0004EF40C946B0850954095309521953F4F08
:1010D0004F4F5F4F089590958095709561957F4F24
:1010E0008F4F9F4F08950E94A808A59F900DB49F11
:1010F000900DA49F800D911D11240895B7FF0C94AD
:1011000073080E947308821B930B0895A1E21A2EA4
:10111000AA1BBB1BFD010DC0AA1FBB1FEE1FFF1F9B
:10112000A217B307E407F50720F0A21BB30BE40BEB
:10113000F50B661F771F881F991F1A9469F7609532
:101140007095809590959B01AC01BD01CF010895EC
:10115000A29FB001B39FC001A39F700D811D1124F8
:10116000911DB29F700D811D1124911D089550583D
:10117000BB27AA270E94CF080C94AE090E94A009A1
:1011800038F00E94A70920F039F49F3F19F426F4A3
:101190000C949D090EF4E095E7FB0C949709E92F58
:1011A0000E94BF0958F3BA176207730784079507AF
:1011B00020F079F4A6F50C94E1090EF4E0950B2EDD
:1011C000BA2FA02D0B01B90190010C01CA01A00199
:1011D0001124FF27591B99F0593F50F4503E68F1F4
:1011E0001A16F040A22F232F342F4427585FF3CF35
:1011F000469537952795A795F0405395C9F77EF406
:101200001F16BA0B620B730B840BBAF09150A1F04E
:10121000FF0FBB1F661F771F881FC2F70EC0BA0FD4
:10122000621F731F841F48F4879577956795B7955C
:10123000F7959E3F08F0B0CF9395880F08F0992757
:10124000EE0F9795879508950E942B096894B11128
:101250000C94E20908950E94C70988F09F5798F0FE
:10126000B92F9927B751B0F0E1F0660F771F881FAB
:10127000991F1AF0BA95C9F714C0B13091F00E94C5
:10128000E109B1E008950C94E109672F782F8827D0
:10129000B85F39F0B93FCCF3869577956795B395EC
:1012A000D9F73EF490958095709561957F4F8F4F5B
:1012B0009F4F0895E89409C097FB3EF49095809560
:1012C000709561957F4F8F4F9F4F9923A9F0F92F0C
:1012D00096E9BB279395F695879577956795B7958A
:1012E000F111F8CFFAF4BB0F11F460FF1BC06F5F70
:1012F0007F4F8F4F9F4F16C0882311F096E911C082
:10130000772321F09EE8872F762F05C0662371F0A2
:1013100096E8862F70E060E02AF09A95660F771FB6
:10132000881FDAF7880F9695879597F9089597F9AA
:101330009F6780E870E060E008959FEF80EC08957B
:1013400000240A94161617061806090608950024A4
:101350000A9412161306140605060895092E03941E
:10136000000C11F4882352F0BB0F40F4BF2B11F492
:1013700060FF04C06F5F7F4F8F4F9F4F089557FDF1
:101380009058440F551F59F05F3F71F04795880FF3
:1013900097FB991F61F09F3F79F08795089512168A
:1013A00013061406551FF2CF4695F1DF08C0161636
:1013B00017061806991FF1CF8695710561050894E7
:1013C0000895E894BB2766277727CB0197F90895FE
:1013D0000E94FB090C94AE090E94A00938F00E94FB
:1013E000A70920F0952311F00C9497090C949D09FE
:1013F00011240C94E2090E94BF0970F3959FC1F378
:10140000950F50E0551F629FF001729FBB27F00DB2
:10141000B11D639FAA27F00DB11DAA1F649F662707
:10142000B00DA11D661F829F2227B00DA11D621F56
:10143000739FB00DA11D621F839FA00D611D221F10
:10144000749F3327A00D611D231F849F600D211DF4
:10145000822F762F6A2F11249F5750409AF0F1F077
:1014600088234AF0EE0FFF1FBB1F661F771F881FE0
:1014700091505040A9F79E3F510580F00C94970978
:101480000C94E2095F3FE4F3983ED4F38695779598
:101490006795B795F795E7959F5FC1F7FE2B880F86
:1014A000911D9695879597F90895EE0FFF1F05906A
:1014B000F491E02D099481E090E0F8940C94600A96
:0414C000F894FFCFCE
:1014C4001500140013001200000000008C02080232
:1014D400550233024702D3020000000095030802BC
:1014E40009000D0A002D2D2D2D002D2D2D78002DF8
:1014F4002D782D002D2D7878002D782D2D002D7828
:101504002D78002D78782D002D78787800782D2D81
:101514002D00782D2D7800782D782D00782D787871
:101524000078782D2D0078782D78007878782D0043
:06153400787878780000D1
:00000001FF
