:100000000C94A7010C94A9140C94DA140C940B15FD
:100010000C943C150C946D150C949E150C94CF15F6
:100020000C9400160C94D8010C94D8010C94D801AF
:100030000C94D8010C94CD120C94D8010C94D801D6
:100040000C94D8010C94D8010C94D8010C94D801CC
:100050000C94D8010C94D8010C94D8010C9431164E
:100060000C94D8010C94B90D0C94EF0D0C94D8019C
:100070000C94D8010C94D8010C94D8010C94D8019C
:100080000C94D8010C94D8010C94D8010C94D8018C
:100090000C94D8010C94D8010C94D8010C94D8017C
:1000A0000C94D8010C94D8010C94D8010C94D8016C
:1000B0000C94D8010C94D8010C94D8010C94D8015C
:1000C0000C94D8010C94D8010C94D8010C94D8014C
:1000D0000C94D8010C94D8010C94D8010C94D8013C
:1000E0000C94D80116072C073C072C073C073C074B
:1000F0003C072C071F0716073C0716071F071607A4
:100100001F0783144D14551461146E148F149C141E
:100110008A178F1794179E17A8172118B217BA17A6
:10012000C217CC17D617E017EF17F91721180318C5
:100130000D18171843184618351839183F187D1828
:100140004A184E18541858185C18621866186A181D
:100150007D187018741878180C944A180C94EF17BE
:100160000C9439180C9443180C949E170C9478181E
:100170000C943F0C0C94DA010C944E180C94171844
:100180000C9416070C9461140C948A170C942C0789
:100190000C9458180C9453080C94E0170C94D00C41
:1001A0000C94190E0C9466180C949C140C94720CFC
:1001B0000C9454180C94230E0C94A8170C94CC1780
:1001C0000C94450C0C944D140C946E080C9421184E
:1001D0000C94F20C0C9474180C943F180C94701836
:1001E0000C9494170C94C2170C941F070C940D18C0
:1001F0000C945C180C94B2170C946A180C943C077D
:100200000C948F140C94F9170C9483140C94760EA0
:100210000C948F170C946E140C94BA170C947D18D0
:100220000C9455140C9462180C9403180C94500CF4
:100230000C9446180C94D6170C945E0C0C9435183C
:100240000200000A0B02090C0D0E0807030401004E
:10025000000000000000000000000000000000009E
:10026000000000000000000000000000001211105B
:10027000000000000000000000000000000000007E
:1002800000000000000000010210202008081020DB
:100290004010204080020102010804020101020412
:1002A00008102040808040201008040201800402D1
:1002B0000180402010080402010804020101020428
:1002C0000810204080010204081020408005050528
:1002D00005070508080808020202020A0A080804BD
:1002E00004040401010101010101010303030303EB
:1002F000030303040707070C0C0C0C0C0C0C0C027A
:1003000002020206060606060606060B0B0B0B0B80
:100310000B0B0B00002200250028002B002E0031C3
:1003200000340002010000050108010B010000215A
:1003300000240027002A002D0030003300010100B6
:1003400000040107010A01005308230E6E0811245E
:100350001FBECFEFD1E2DEBFCDBF00E00CBF13E088
:10036000A0E0B2E0ECE0FBE300E00BBF02C00790CE
:100370000D92AA30B107D9F724E0AAE0B3E001C09A
:100380001D92AB36B207E1F713E0CCE4D3E000E016
:1003900006C022970109FE010BBF0E94D71AC8347C
:1003A000D10780E00807A9F70E94670E0C94741D1E
:1003B0000C94000020910A0330910B0381E090E03F
:1003C000232B11F080E090E090930B0380930A03BD
:1003D000089561E089E00E947E1861E08AE00E9451
:1003E0007E1861E086E00E947E1861E085E00E9450
:1003F0007E1860E087E30E947E1860E086E30E943A
:100400007E1862E088E30E947E1868EE73E080E068
:1004100090E00E94AA1687E30E943F179093820300
:100420008093810386E30E943F179093800380931B
:100430007F032091810330918203220F331F309379
:100440007E0320937D03880F991F90937C038093F4
:100450007B030895709386036093850322273327D7
:10046000281B390B30938403209383039B01280FAF
:10047000391F3093700320936F03861B970B909363
:100480007203809371030895869F9001879F300DBA
:10049000969F300D11243093700320936F03719554
:1004A00061957109869F9001879F300D969F300D51
:1004B000112430937203209371030895AF92BF9279
:1004C000CF92DF92EF92FF920F931F93CF936091A1
:1004D0006F0370917003882777FD8095982F1F9286
:1004E0001F921F92CFEFCF93A12CB12C650118EE74
:1004F000E12E13E0F12E00E010E028E13CEF4FEF99
:100500005FEF0E946D1370937A036093790360919B
:100510006F0370917003882777FD8095982F1F9245
:100520001F921F921F92A12CB12C6501AA9428E161
:100530003CEF4FEF5FEF0E946D1370937803609371
:1005400077036091710370917203882777FD80951E
:10055000982F1F921F921F92CF93A12CB12C65014F
:1005600028E13CEF4FEF5FEF0E946D13709376032D
:10057000609375036091710370917203882777FD12
:100580008095982F1F921F921F921F92A12CB12C21
:100590006501AA9428E13CEF4FEF5FEF0E946D13D5
:1005A00070937403609373036091790370917A037D
:1005B00089E00E94641760917703709178038AE064
:1005C0000E946417609175037091760386E00E9423
:1005D00064178DB79EB740960FB6F8949EBF0FBEB6
:1005E0008DBF609173037091740385E0CF911F916B
:1005F0000F91FF90EF90DF90CF90BF90AF900C9451
:10060000641761E08EE10E947E1861E080E20E9442
:100610007E1861E086E10E947E1861E088E10E9418
:100620007E1861E08AE10E947E1861E08CE10E9400
:100630007E1820E042E060E187E593E00C945E0BD9
:10064000CF93DF93EC0187E593E00E943D0B41E0FF
:1006500060E087E593E00E94440BBE0187E593E0EC
:10066000DF91CF910C94B40E4F925F926F927F9274
:100670008F929F92AF92BF92CF92DF92EF92FF92B2
:100680000F931F934B015C01CA01B9016701780107
:10069000A70196010E94121A0E94581980E090E06A
:1006A0000E9484192B013C01A701960160E070E0D3
:1006B00080E89FE30E94EE189B01AC01C501B401E4
:1006C0000E94121A9B01AC01C301B2010E94EF18F3
:1006D0000E945319CB011F910F91FF90EF90DF9073
:1006E000CF90BF90AF909F908F907F906F905F90D2
:1006F0004F9008950F931F93CF93DF9364E670E0BC
:1007000080E090E00E94AA16CEE2D2E00FE413E06F
:10071000F2E0C633DF0779F0888122960E943F1706
:10072000F801819391938F016AE070E080E090E09E
:100730000E94AA16EDCFDF91CF911F910F910895DE
:10074000CF93DF93CEE2D2E082E0C633D80731F018
:100750008881229660E00E947E18F6CFDF91CF91CB
:100760000C947A034F925F926F927F928F929F9236
:10077000AF92BF92CF92DF92EF92FF920F931F93AF
:10078000CF93DF9300D01F92CDB7DEB747E4842E1E
:1007900043E0942E5EE2C52E52E0D52EA12CB12C62
:1007A00040902A0250902B0260902C0270902D02F3
:1007B000F40160817181882777FD8095982F0E94D0
:1007C00086199B01AC01F6018081F2E0CF0ED11CAD
:1007D00029833A834B835C830E943F17BC0188279F
:1007E00077FD8095982F0E948619830172012981D7
:1007F0003A814B815C810E943403F401819391938F
:100800004F014AE050E0BC0187E893E00E94840F6A
:1008100064EA72E087E893E00E94C20EFFEFAF1A2D
:10082000BF0A84E0A816B10409F0BACF87E893E0C4
:100830000F900F900F900F90DF91CF911F910F911C
:10084000FF90EF90DF90CF90BF90AF909F908F90F0
:100850007F906F905F904F900C94CB0ECF93E7E416
:10086000F3E0AFE4B3E0C0E080E090E0619171912B
:100870002D913D91220F331F41E050E0261737079D
:1008800014F040E050E0082E01C0440F0A94EAF74B
:100890004C2B01968430910511F0C42FE7CF409383
:1008A0004603CF91089561E08CE00E947E188CE0B1
:1008B0000E94B81261E08CE00E94B7188DE293E0CC
:1008C0000C948608EF92FF920F931F93CF93DF93C0
:1008D0000E947B160091190310911A0320911B03AB
:1008E00030911C03601B710B820B930B009124024F
:1008F00010912502222717FD2095322F60177107CE
:100900008207930710F10E947B166093190370937E
:100910001A0380931B0390931C03209122023091B1
:1009200023028091170390911803820F931F9093D5
:100930001803809317030197069718F031952195B6
:1009400031093093230220932202CDE1D3E000E06D
:1009500010E058E7E52EF12C8091170390911803D1
:100960000817190719F4F982E88212C08881998161
:100970008A30910534F08A3021E092072CF40A97EE
:1009800005C080E090E002C08FEF90E099838883FB
:1009900088812296482F682F0E948B0A9B01AC0108
:1009A000B8018DE293E00E94260A0F5F1F4F0830C6
:1009B000110591F68DE293E0DF91CF911F910F9198
:1009C000FF90EF900C940A090F931F93CF93DF933E
:1009D000109218031092170381E090E09093230285
:1009E000809322020DE113E0C0E0D0E0F801119203
:1009F00011928F0140E060E08FEF0E948B0A9B0113
:100A0000AC01BE018DE293E00E94260A2196C83017
:100A1000D10561F78DE293E00E940A0981E0DF9140
:100A2000CF911F910F9108950F931F93CF93DF9351
:100A3000109218031092170381E090E09093230224
:100A4000809322020DE113E0C0E0D0E0F8011192A2
:100A500011928F0140E060E080E00E948B0A9B01D0
:100A6000AC01BE018DE293E00E94260A2196C830B7
:100A7000D10561F78DE293E0DF91CF911F910F9146
:100A80000C940A098CE00E94B81261E08CE00C948E
:100A9000B718CF92DF92EF92FF92CF93DF936B0163
:100AA0007C018091160381110BC00E94E4048093A5
:100AB000160366EA72E087E893E00E94CF0E38C022
:100AC000C0E0D0E08091170390911803C817D907B0
:100AD00061F440E06FEF80E00E948B0A9B01AC0163
:100AE000BE018DE293E00E94260A2196C830D1050E
:100AF00049F78DE293E00E940A09809119039091D1
:100B00001A03A0911B03B0911C03B701A601481B57
:100B1000590B6A0B7B0B80911E0290911F02A091D2
:100B20002002B0912102481759076A077B0710F489
:100B300080E026C0C0921903D0921A03E0921B03F2
:100B4000F0921C03809117039091180301969093E3
:100B5000180380931703089758F384E090E090936C
:100B6000290280932802109216030E9414050E9405
:100B7000420568EE73E080E090E00E94AA1681E0F2
:100B8000DF91CF91FF90EF90DF90CF900895CF92BB
:100B9000DF92EF92FF92CF93DF936B017C01C0E075
:100BA000D0E080911403482F682F0E948B0A9B018C
:100BB000AC01BE018DE293E00E94260A2196C83066
:100BC000D10579F78DE293E00E940A09809119031B
:100BD00090911A03A0911B03B0911C03C81AD90A63
:100BE000EA0AFB0A80911C0290911D02AA2797FD38
:100BF000A095BA2FC816D906EA06FB0648F120913F
:100C00001A0230911B02C90164E0880F991F6A958E
:100C1000E1F74091140350911503840F951F8F3F06
:100C2000910519F014F08FEF90E097FF02C080E07B
:100C300090E0909315038093140301978E3F9105E4
:100C400018F031952195310930931B0220931A0237
:100C5000DF91CF91FF90EF90DF90CF900895CF92EA
:100C6000DF92EF92FF920E947B166B017C018091D4
:100C7000100390911103A0911203B0911303B701D7
:100C8000A601481B590B6A0B7B0B809116029091B1
:100C90001702A0911802B0911902481759076A0764
:100CA0007B0730F164E670E080E090E00E942D1355
:100CB00060931602709317028093180290931902A2
:100CC000C0921003D0921103E0921203F09213032A
:100CD00020EA3FE040E050E068EE73E080E090E022
:100CE0000E94511320E030E0A9018CE00E948C0F9B
:100CF00080910C0390910D03A0910E03B0910F030E
:100D0000B701A601481B590B6A0B7B0B809112029D
:100D100090911302A0911402B0911502481759073F
:100D20006A077B0770F16CED75E080E090E00E944F
:100D30002D136C5E7F4F8F4F9F4F60931202709305
:100D400013028093140290931502C0920C03D09268
:100D50000D03E0920E03F0920F0320EA3FE040E023
:100D600050E068EE73E080E090E00E94511320E0D4
:100D700030E0A9018CE0FF90EF90DF90CF900C94D1
:100D80008C0FFF90EF90DF90CF90089526E040E821
:100D900055E260E070E087E893E00E94570D0E9402
:100DA000A0030E94E9010E9401030E94530460E035
:100DB00082E00E947E1842E050E06AED71E080E03F
:100DC0000E9438140C944205CF93DF9368EE73E0D1
:100DD00080E090E00E942D13643F714081059105F1
:100DE0001CF4C1E0D0E002C0CFEFDFEF80914603FA
:100DF000882371F06091360270913702CE010E9413
:100E000044020E945E020E94B2030E942E04EECFB2
:100E1000DF91CF9108958091460390E08F30910546
:100E200058F5FC01EE58FF4F0C94C61A60E070E0D4
:100E300080913602909137020E942A0225C080914B
:100E400036029091370222273327281B390B309323
:100E5000700320936F030BC080913602909137028C
:100E60009093700380936F0391958195910990936E
:100E700072038093710308C01092700310926F0385
:100E800010927203109271030C945E028F929F92E3
:100E9000AF92BF92CF92DF92EF92FF92CF93DF9308
:100EA00000D000D0CDB7DEB761E070E080E090E028
:100EB0000E94AA160E947B166B017C010E94B2035D
:100EC0000E942E04809146038F3011F40E94E406A4
:100ED0008091420390914303A0914403B091450354
:100EE000B701A601481B590B6A0B7B0B80912602A8
:100EF00090912702AA2797FDA095BA2F4817590766
:100F00006A077B0708F4BEC0C0924203D092430335
:100F1000E0924403F09245038091280290912902C7
:100F20008230910591F18430910509F466C00197F2
:100F300009F0A8C064EB72E0CE0101960E94221471
:100F4000CE0101960E942003CE0101960E94B413A7
:100F50000E9462040E940B0780910A0290910B028A
:100F6000A0910C02B0910D02C816D906EA06FB0644
:100F700008F488C060E070E080E090E00E942A02FF
:100F80000E945E0282E090E033C06EEB72E0CE0120
:100F900001960E942214CE0101960E942003CE01E8
:100FA00001960E94B4130E942F06C701B6010E9449
:100FB0004905882309F466C00E947B166B017C01F9
:100FC00060910E0270910F028091100290911102B7
:100FD0000E942D136C0D7D1D8E1D9F1D60930A02B6
:100FE00070930B0280930C0290930D0284E090E0CA
:100FF000909329028093280245C061ED72E0CE01F2
:1010000001960E942214CE0101960E942003CE0177
:1010100001960E94B41380910A0290910B02A09154
:101020000C02B0910D02C816D906EA06FB0630F193
:101030000E947B166B017C0160910E0270910F0281
:10104000809110029091110246015701860E971E61
:10105000A81EB91E0E942D13680D791D8A1D9B1DA7
:1010600060930A0270930B0280930C0290930D021E
:1010700081E090E09093290280932802C701B60195
:101080000E94C70526960FB6F894DEBF0FBECDBFEF
:10109000DF91CF91FF90EF90DF90CF90BF90AF9016
:1010A0009F908F900895CF92EF920F937CE1C72E7F
:1010B000EAE1EE2E08E126E140E26EE187E593E009
:1010C0000E94190C22E530E047E068E070E08DE214
:1010D00093E00F91EF90CF900C94FE098DE293E096
:1010E0000C947208CF93DF93EC0188859985009763
:1010F00011F00E94821B8E8187FD05C060E0DF91A8
:10110000CF910C947E18DF91CF910895CF93DF9308
:10111000EC018E8187FD07C061E00E947E1860E0CF
:101120008E810E94B71881E08983DF91CF91089565
:10113000EF92FF920F931F93CF93DF93EC017B010C
:1011400088859985009711F00E94821B9D858A856C
:10115000981303C083E090E002C084E090E08E9D8D
:1011600080018F9D100D9E9D100D11241D830C83F9
:10117000C8010E94EA1A99878887009741F0A80160
:1011800060E070E00E945E1DFB82EA8204C01D8266
:101190001C821B821A82DF91CF911F910F91FF90C9
:1011A000EF900895FC0121E095858285981320E059
:1011B000CB0136E0969587953A95E1F7482F437035
:1011C0004587CB0154E0969587955A95E1F7382FDE
:1011D00033703287CB019695879596958795837066
:1011E0008387862F8370848781E06F3F710511F0BC
:1011F00008F080E0808380859185892B51F091E013
:10120000431390E0921729F062817381CF010C940F
:1012100098080895CF92DF92EF92FF920F931F9359
:10122000CF93DF93CDB7DEB729970FB6F894DEBF23
:101230000FBECDBF8C01DC0118968D919C91199742
:10124000892B09F49AC00E948716F801C684D784B6
:10125000E088F1886C197D098E099F096233710558
:101260008105910580F3F894848195819A8389831F
:10127000A085B1857D01EFEFEE1AFE0A8C9189877A
:10128000D8019C9152960D90BC91A02DF8018489B3
:10129000992309F42EC09C91982B98879C91809556
:1012A00089238F838F818E8388E08D8358856F811A
:1012B00049853D812E8189819A81F7015C9347FDA3
:1012C000252F3A952C93262F39F0441F00C000009B
:1012D0006C93000000C0F2CF38E041916C930000A5
:1012E000019761F7F801B38BA28B49873D832E8369
:1012F00038C09C91982B98879C91809589238F83E7
:101300008F818C8388E08B8358856F8149853B81F1
:101310002C8189819A81F7015C9347FD252F00C0BC
:1013200000C02C9300C000C000C000C000C06C937F
:101330000000262F3A9541F0441F000000C000C075
:1013400000C000C000C0E8CF38E0419100C06C93FD
:1013500000C0019709F7F801B38BA28B49873B8343
:101360002C839A83898378940E948716D8011E96CD
:101370006D937D938D939C93519729960FB6F89416
:10138000DEBF0FBECDBFDF91CF911F910F91FF90B8
:10139000EF90DF90CF9008951F93CF93DF93EC01F0
:1013A000162F8981882331F08E8187FD03C060E08C
:1013B0000E947E181E838981882341F061E0812F7D
:1013C0000E947E1860E0812F0E94B718812F90E064
:1013D000FC01E353FD4FE491F0E0EE0FFF1FED5EE3
:1013E000FC4F259134913B8B2A8BFC01E957FD4F33
:1013F00084918C8BDF91CF911F910895EF92FF9292
:101400000F931F93CF93DF931F92CDB7DEB77C016D
:101410008B01FC01118217821186108616861786B1
:10142000108A118AB90149830E94D208B801C70104
:101430000E9498084981642FC7010F90DF91CF91D6
:101440001F910F91FF90EF900C94CC09CF92DF92F7
:10145000EF92FF920F931F93CF93DF93FC01828152
:1014600093816817790708F04DC0CA01AA27BB27E6
:10147000182FC32ED42EE52EFF24DC2DC22F07817A
:10148000002361F0809FC0011124192FC09E6001CC
:101490001124DD2D209FC0011124C92FF5848285E0
:1014A000A085B185F81208C0CB01880F991F860F5F
:1014B000971F8A0F9B1F17C0CB01880F991F880F9A
:1014C000991F8A0F9B1F452F552766277727DC0119
:1014D000AF0DB11D002329F0409F90011124232F4F
:1014E00001C0242F2C932285DC01A20FB11D1C9377
:1014F0002385DC01A20FB11DDC932485FC01E20FE2
:10150000F11DC083DF91CF911F910F91FF90EF905C
:10151000DF90CF900895962F50E060E070E0592B57
:10152000682BCB01BA010895CF93DF93EC0160E003
:101530008E810E94B71881E090E00E94D21661E08F
:101540008E810E94B71881E090E00E94D21660E080
:101550008E810E94B71884E690E0DF91CF910C94C1
:10156000D216CF92DF92EF92FF920F931F93CF93F9
:10157000DF937C01C0E0D0E0C62ED12C87010C0F98
:101580001D1F61E0F80187810E947E18B6010C2EB4
:1015900002C0759567950A94E2F76170F80187813A
:1015A0000E94B7182196C430D10541F7C701DF91D9
:1015B000CF911F910F91FF90EF90DF90CF900C94FF
:1015C000940ACF92DF92EF92FF920F931F93CF93E3
:1015D000DF937C01C0E0D0E0C62ED12C87010C0F38
:1015E0001D1F61E0F80187810E947E18B6010C2E54
:1015F00002C0759567950A94E2F76170F8018781DA
:101600000E94B7182196C830D10541F7C701DF9174
:10161000CF911F910F91FF90EF90DF90CF900C949E
:10162000940A1F93CF93DF93EC01162F642F8C81C4
:101630000E94B7188D818F3F19F060E00E94B718A3
:101640008F85612F84FF06C0CE01DF91CF911F915E
:101650000C94E10A70E084E0759567958A95E1F74E
:10166000CE010E94B10A612FCE01DF91CF911F916F
:101670000C94B10A40E00C94110B61E00E943A0B0B
:1016800080ED97E00C94D216443008F043E0FC0162
:101690002389421710F04FEF420FFC01E40FF11DB8
:1016A0002489260F2068622F0C943A0BFC01608974
:1016B000262F2460208B6C600C943A0BCF93DF9321
:1016C000EC01423018F08F8588608F874B8B1C8A25
:1016D00080E48D8B6E8B70E0605C7F4F6F8B22237C
:1016E00029F0413019F48F8584608F8780E593EC71
:1016F0000E94D21660E08C810E94B71860E08E8153
:101700000E94B7188D818F3F19F060E00E94B718D2
:101710006F8564FD1DC063E0CE010E94B10A84E9BB
:1017200091E10E94D21663E0CE010E94B10A84E9E1
:1017300091E10E94D21663E0CE010E94B10A86E9CF
:1017400090E00E94D21662E0CE010E94B10A16C05B
:101750006062CE010E943A0B84E991E10E94D216A8
:101760006F856062CE010E943A0B86E990E00E948C
:10177000D2166F856062CE010E943A0B6F8560625F
:10178000CE010E943A0B84E0888BCE010E94560B5A
:10179000CE010E943D0B82E0898B66E0CE01DF9195
:1017A000CF910C943A0B6F927F928F92AF92CF921F
:1017B000EF920F931F93CF93DF93CDB7DEB73C012A
:1017C000162F842F5E854F8538899989F30184838C
:1017D00025830683E782C086A18682865387448755
:1017E0003587968761E00E947E18F30185818F3FDF
:1017F00019F061E00E947E1861E0F30186810E9489
:101800007E18112319F0F301178603C080E1F3015C
:10181000878720E041E060E1C301DF91CF911F9114
:101820000F91EF90CF90AF908F907F906F900C942E
:101830005E0B8F92AF92CF92EF920F93DC011396D3
:101840001C921E921297E4EEF2E0ED93FC931F922D
:101850001F921F921F928C2CAE2CC02EE22E042FB2
:101860002FEF462F61E00E94D30B0F900F900F9047
:101870000F900F91EF90CF90AF908F90089541E02F
:101880000E94110B81E090E00895FC01818D228D72
:1018900090E0805C9F4F821B91098F739927089578
:1018A000FC01918D828D981731F0828DE80FF11D2A
:1018B000858D90E008958FEF9FEF0895FC01918D45
:1018C000828D981761F0828DDF01A80FB11D5D96A2
:1018D0008C91928D9F5F9F73928F90E008958FEF10
:1018E0009FEF089589E19EE0892B41F080E090E030
:1018F000892B21F00E94190E811125C080E090E013
:10190000892B41F080E090E0892B21F00E940000BB
:1019100081111CC080E090E0892B41F080E090E0D4
:10192000892B21F00E940000811113C080E090E01B
:10193000892BA1F080E090E0892B81F00E940000CB
:1019400081110AC008950E940000D8CF0E940000B3
:10195000E1CF0E940000EACF0C9400000895FC0142
:10196000848DDF01A80FB11DA35ABF4F2C91848D28
:1019700090E001968F739927848FA689B7892C935D
:10198000A089B1898C9180648C93938D848D9813F8
:1019900006C00288F389E02D80818F7D80830895C1
:1019A000CF93DF93EC01888D8823C9F0EA89FB8906
:1019B000808185FD05C0A889B9898C9186FD0FC0FD
:1019C0000FB607FCF5CF808185FFF2CFA889B989D2
:1019D0008C9185FFEDCFCE010E94AF0CE7CFDF9158
:1019E000CF910895CF92DF92FF920F931F93CF93E1
:1019F000DF931F92CDB7DEB76C0181E0D601589618
:101A00008C9358975B969C915B975C968C915C97B6
:101A1000981307C05096ED91FC915197808185FDF8
:101A20002EC0F601038D10E00F5F1F4F0F731127BB
:101A3000F02EF601848DF81211C00FB607FCF9CF15
:101A4000D6015096ED91FC915197808185FFF1CFA1
:101A5000C60169830E94AF0C6981EBCF838DE80FCB
:101A6000F11DE35AFF4F6083D6015B960C935B97A1
:101A70005296ED91FC915397808180620CC0D60103
:101A80005696ED91FC91579760835096ED91FC919D
:101A9000519780818064808381E090E00F90DF9196
:101AA000CF911F910F91FF90DF90CF900895BF923B
:101AB000CF92DF92EF92FF92CF93DF93EC016A0116
:101AC0007B01B22EE889F98982E08083411581EE9D
:101AD000580761057105A1F060E079E08DE390E0C1
:101AE000A70196010E94851A215031094109510927
:101AF0005695479537952795211580E1380798F039
:101B0000E889F989108260E874E88EE190E0A70125
:101B100096010E94851A21503109410951095695B3
:101B2000479537952795EC85FD853083EE85FF85B4
:101B30002083188EEC89FD89B082EA89FB89808137
:101B400080618083EA89FB89808188608083EA895B
:101B5000FB89808180688083EA89FB8980818F7D11
:101B60008083DF91CF91FF90EF90DF90CF90BF9077
:101B700008951F920F920FB60F9211240BB60F9279
:101B80002F938F939F93EF93FF93E0919703F0919F
:101B900098038081E0919D03F0919E0382FD12C025
:101BA00090818091A0038F5F8F732091A103821792
:101BB00051F0E091A003F0E0E957FC4F958F80933E
:101BC000A00301C08081FF91EF919F918F912F9190
:101BD0000F900BBE0F900FBE0F901F9018951F9285
:101BE0000F920FB60F9211240BB60F922F933F93C3
:101BF0004F935F936F937F938F939F93AF93BF9315
:101C0000EF93FF9387E893E00E94AF0CFF91EF9171
:101C1000BF91AF919F918F917F916F915F914F9104
:101C20003F912F910F900BBE0F900FBE0F901F9002
:101C3000189587E893E00E94450C21E0892B09F470
:101C400020E0822F089510928A031092890388EE73
:101C500093E0A0E0B0E080938B0390938C03A0937B
:101C60008D03B0938E038CEE92E090938803809363
:101C7000870385EC90E0909394038093930384EC26
:101C800090E0909396038093950380EC90E090937E
:101C900098038093970381EC90E090939A0380934C
:101CA000990382EC90E090939C0380939B0386ECD5
:101CB00090E090939E0380939D031092A003109256
:101CC000A1031092A2031092A303089508950E9405
:101CD000DD160E94660E0E94C606C2E7DCE00E9486
:101CE00046072097E1F30E94720CF9CFCF92DF9262
:101CF000EF92FF920F931F93CF93DF936C017A01C2
:101D0000EB01E60EF71E00E010E0CE15DF0561F0F6
:101D10006991D601ED91FC910190F081E02DC60111
:101D20001995080F191FF1CFC801DF91CF911F91AD
:101D30000F91FF90EF90DF90CF900895611571059E
:101D400081F0DB010D900020E9F7AD014150510910
:101D5000461B570BDC01ED91FC910280F381E02DD5
:101D6000199480E090E00895DC01ED91FC91DB0195
:101D700014964D915C9115976D917C910280F38141
:101D8000E02D19940C949E0EDC01ED91FC910190D4
:101D9000F081E02D199468EF72E00C949E0E0F9381
:101DA0001F93CF93DF93EC010E949E0E8C01CE0116
:101DB0000E94CB0E800F911FDF91CF911F910F9149
:101DC00008958F929F92AF92BF92CF92DF92EF923F
:101DD000FF920F931F93CF93DF93CDB7DEB7A197F9
:101DE0000FB6F894DEBF0FBECDBF7C01C42EE52F29
:101DF000CB01D22E19A221E02D1510F02AE0D22E0F
:101E00008E010F5D1F4F8D2C912CA12CB12C6C2DB0
:101E10007E2FA50194010E94851A8C2DD29E8019D7
:101E20001124015011098A3014F4805D01C0895CCD
:101E3000F8018083211531054105510521F0C22E9D
:101E4000E32FCA01E4CFB801C7010E949E0EA196FC
:101E50000FB6F894DEBF0FBECDBFDF91CF911F91BB
:101E60000F91FF90EF90DF90CF90BF90AF909F9039
:101E70008F900895CF92DF92EF92FF920F931F936E
:101E8000CF93DF93EC016A017B012115310579F4D1
:101E9000E881F9810190F081E02D642FDF91CF91ED
:101EA0001F910F91FF90EF90DF90CF9019942A30FF
:101EB0003105E9F477FF1AC06DE20E94C40E8C016F
:101EC00044275527BA014C195D096E097F092AE09C
:101ED000CE010E94E10E800F911FDF91CF911F91E3
:101EE0000F91FF90EF90DF90CF9008952AE0B70117
:101EF000A601CE01DF91CF911F910F91FF90EF903E
:101F0000DF90CF900C94E10E9A01AB01662757FD4C
:101F10006095762F0C943A0F3F924F925F926F929A
:101F20007F928F929F92AF92BF92CF92DF92EF9269
:101F3000FF920F931F93CF93DF9300D01F92CDB7E3
:101F4000DEB78B0129013A0190913802981721F0F0
:101F50009F3F09F0BDC204C0E0E4F2E0349004C148
:101F600080933802E0E4F2E0E491EF3F09F4B0C27C
:101F7000E23009F480C074F5EE2309F45BC0E1306F
:101F800009F0F1C0109280001092810090918100C0
:101F9000986090938100909181009160909381006E
:101FA000282F30E0F901E353FD4FE491F0E0EE0F0C
:101FB000FF1FED5EFC4F45915491509342044093B6
:101FC0004104F901E957FD4F249120934004332443
:101FD0003394CCC0E43009F49EC00CF474C0E530F6
:101FE00009F0C1C0109220011092210190912101AD
:101FF000986090932101909121019160909321012B
:10200000282F30E0F901E353FD4FE491F0E0EE0FAB
:10201000FF1FED5EFC4F4591549150932604409371
:102020002504F901E957FD4F24912093240455E03C
:10203000352E9CC014BC15BC94B5926094BD95B56A
:10204000916095BD282F30E0F901E353FD4FE491F5
:10205000F0E0EE0FFF1FED5EFC4F45915491509361
:10206000490440934804F901E957FD4F2491209316
:102070004704312C7BC01092B0001092B1009091B7
:10208000B00092609093B0009091B10091609093F5
:10209000B100282F30E0F901E353FD4FE491F0E067
:1020A000EE0FFF1FED5EFC4F4591549150933B04A2
:1020B00040933A04F901E957FD4F249120933904E4
:1020C00022E0322E53C01092900010929100909115
:1020D00091009860909391009091910091609093FD
:1020E0009100282F30E0F901E353FD4FE491F0E037
:1020F000EE0FFF1FED5EFC4F459154915093340459
:1021000040933304F901E957FD4F249120933204A1
:10211000B3E03B2E2BC01092A0001092A100909132
:10212000A10098609093A1009091A100916090937C
:10213000A100282F30E0F901E353FD4FE491F0E0D6
:10214000EE0FFF1FED5EFC4F4591549150932D040F
:1021500040932C04F901E957FD4F249120932B045F
:1021600074E0372E03C03E2E37FCB2C161E00E94FE
:102170007E184801A12CB12C832D8D7F09F0C7C09A
:1021800060E072E18AE790E0A50194010E94A71A3D
:1021900029833A834B835C8369017A0181E0C81A01
:1021A000D108E108F1089FEFC916D104E104F10458
:1021B00009F008F49AC060E472E48FE090E0A501B1
:1021C00094010E94A71A69017A01E1E0CE1AD108B0
:1021D000E108F108F2E03F1219C08FEFC816D104F0
:1021E000E104F10409F008F48AC060E970ED83E0CD
:1021F00090E0A50194010E94A71A69017A0191E07B
:10220000C91AD108E108F10883E001C082E0EFEFCC
:10221000CE16D104E104F10409F008F467C068E4C3
:1022200078EE81E090E0A50194010E94A71A69016F
:102230007A01F1E0CF1AD108E108F1083320E1F08A
:1022400082E038121BC09FEFC916D104E104F104EB
:1022500009F008F43BC164E274EF80E090E0A5016E
:1022600094010E94A71A69017A01E1E0CE1AD1080F
:10227000E108F10885E003C083E001C084E0FFEFDE
:10228000CF16D104E104F10489F180F162E17AE72B
:1022900080E090E0A50194010E94A71A69017A01EB
:1022A00081E0C81AD108E108F108311002C084E0C9
:1022B00001C086E09FEFC916D104E104F104B1F03A
:1022C000A8F0C980DA80EB80FC809AE0F594E7946E
:1022D000D794C7949A95D1F7E1E0CE1AD108E108D6
:1022E000F108332031F087E00BC081E0332011F09A
:1022F00007C085E095B5987F982B95BD56C082E0C4
:102300009091B100987F982B9093B1004EC060E0FF
:1023100072E18AE790E0A50194010E94A71A690181
:102320007A01F1E0CF1AD108E108F108C114D10413
:1023300081E0E806F10488F068E478EE81E090E05E
:10234000A50194010E94A71A69017A0191E0C91AB6
:10235000D108E108F10893E001C091E0E1E03E120C
:1023600007C080918100887F892B809381001DC0E8
:10237000F3E03F1207C080919100887F892B809302
:10238000910013C084E0381207C08091A100887FBB
:10239000892B8093A10009C0E5E03E1206C0809120
:1023A0002101887F892B809321014114510461040C
:1023B000710471F0D801AA0FBB1FA30192010E9402
:1023C000CC1A28EE33E040E050E00E94851A03C0AA
:1023D0002FEF3FEFA901F2E03F1609F443C0F315D8
:1023E000BCF0332081F181E0381272C0D0928900B4
:1023F000C0928800209343043093440440934504E2
:102400005093460480916F00826080936F0060C09B
:1024100094E0391609F448C03916A4F1E5E03E12FB
:1024200057C0D0922901C0922801209327043093ED
:1024300028044093290450932A04809173008260F9
:102440008093730045C0C7BC20934A0430934B046B
:1024500040934C0450934D0480916E0082608093B1
:102460006E0036C0C092B30020933C0430933D040C
:1024700040933E0450933F048091700082608093AB
:10248000700026C0D0929900C09298002093350425
:102490003093360440933704509338048091710090
:1024A00082608093710014C0D092A900C092A800ED
:1024B00020932E0430932F04409330045093310422
:1024C0008091720082608093720002C084E018CF15
:1024D0000F900F900F900F90DF91CF911F910F9160
:1024E000FF90EF90DF90CF90BF90AF909F908F9034
:1024F0007F906F905F904F903F9008958230A9F049
:1025000028F4882349F0813051F00895843021F176
:10251000E8F0853039F1089510926E0008958091A9
:102520006F008D7F80936F000895809170008D7F84
:102530008093700081E08093B0008091B100887F2B
:1025400084608093B1001092B3000895809171006F
:102550008D7F809371000895809172008D7F8093AC
:1025600072000895809173008D7F809373000895A9
:10257000CF93C82F809138028C1307C0E0E4F2E0BB
:1025800084919FEF9093380201C08FEF0E947E12DA
:1025900060E08C2FCF910C94B7181F920F920FB65A
:1025A0000F9211240BB60F922F933F934F935F938B
:1025B0006F937F938F939F93AF93BF93EF93FF930B
:1025C00080913C0490913D04A0913E04B0913F0461
:1025D000892B8A2B8B2B51F190913904E0913A048D
:1025E000F0913B0480818927808380913C04909105
:1025F0003D04A0913E04B0913F04181619061A0636
:102600001B06C4F480913C0490913D04A0913E04CB
:10261000B0913F040197A109B10980933C049093C4
:102620003D04A0933E04B0933F0404C0809138025F
:102630000E94B812FF91EF91BF91AF919F918F913E
:102640007F916F915F914F913F912F910F900BBEB2
:102650000F900FBE0F901F901895CF93DF9300D06F
:102660001F92CDB7DEB79B01AC01611571058105E5
:10267000910569F069833A834B835C830E945F1CF8
:1026800029813A814B815C810E94A71A03C060E0D6
:1026900070E0CB010F900F900F900F90DF91CF91D2
:1026A0000895CF92DF92EF92FF926B017C01621747
:1026B00073078407950764F4CA01B9016C197D0991
:1026C0008E099F090E942D136C0D7D1D8E1D9F1D6F
:1026D000FF90EF90DF90CF9008954F925F926F92AE
:1026E0007F92AF92BF92CF92DF92EF92FF920F93C1
:1026F0001F93CF93DF93CDB7DEB729013A01621B59
:10270000730B840B950B2A893B894C895D892A19A7
:102710003B094C095D092A8B3B8B4C8B5D8B9B01E4
:10272000AC016A897B898C899D890E94751AE4189D
:10273000F50806091709A80197010E94A71A2A0D92
:102740003B1D4C1D5D1DCA01B901DF91CF911F9149
:102750000F91FF90EF90DF90CF90BF90AF907F9060
:102760006F905F904F900895FC01808191810C944F
:10277000821BCF93DF93EC0188819981009711F040
:102780000E94821B198218821D821C821B821A825F
:10279000DF91CF9108950F931F93CF93DF93EC01B7
:1027A0008B016F5F7F4F888199810E946C1C00971D
:1027B00031F0998388831B830A8381E001C080E024
:1027C000DF91CF911F910F910895CF93DF93EC018B
:1027D00088819981892B29F08A819B8186179707A7
:1027E00060F4CE010E94CB13882341F08C819D813F
:1027F000892B19F4E881F981108281E0DF91CF9172
:102800000895EF92FF920F931F93CF93DF93EC0104
:102810007B018A01BA010E94E513811104C0CE0137
:102820000E94B91307C01D830C83B7018881998169
:102830000E94651DCE01DF91CF911F910F91FF90F6
:10284000EF900895FC01118210821382128215828A
:1028500014826115710559F0FB0101900020E9F720
:10286000AF0141505109461B570B0C9401140895B8
:10287000883008F06DC0E82FF0E0EE0FFF1FE25B3C
:10288000FB4F7183608390E0FC013197E730F105E5
:1028900090F5EF57FF4F0C94C61A809169008C7F1A
:1028A000842B80936900E89A089580916900440F11
:1028B000551F440F551F837F842B80936900E99A2D
:1028C00008958091690074E0440F551F7A95E1F7EF
:1028D0008F7C842B80936900EA9A08958091690027
:1028E00066E0440F551F6A95E1F78F73842B809340
:1028F0006900EB9A089580916A008C7F842B809305
:102900006A00EC9A089580916A00440F551F440FA5
:10291000551F837F842B80936A00ED9A08958091E0
:102920006A0024E0440F551F2A95E1F78F7C842B21
:1029300080936A00EE9A089580916A0096E0440FB1
:10294000551F9A95E1F78F73842B80936A00EF9A55
:1029500008951F920F920FB60F9211240BB60F928B
:102960002F933F934F935F936F937F938F939F9397
:10297000AF93BF93EF93FF938091520490915304D0
:10298000892B29F0E0915204F09153041995FF919D
:10299000EF91BF91AF919F918F917F916F915F91D7
:1029A0004F913F912F910F900BBE0F900FBE0F9044
:1029B0001F9018951F920F920FB60F9211240BB60D
:1029C0000F922F933F934F935F936F937F938F93C8
:1029D0009F93AF93BF93EF93FF9380915404909193
:1029E0005504892B29F0E0915404F0915504199570
:1029F000FF91EF91BF91AF919F918F917F916F91D7
:102A00005F914F913F912F910F900BBE0F900FBE92
:102A10000F901F9018951F920F920FB60F921124CE
:102A20000BB60F922F933F934F935F936F937F93C8
:102A30008F939F93AF93BF93EF93FF93809156042F
:102A400090915704892B29F0E0915604F091570496
:102A50001995FF91EF91BF91AF919F918F917F91C8
:102A60006F915F914F913F912F910F900BBE0F90FF
:102A70000FBE0F901F9018951F920F920FB60F92D6
:102A800011240BB60F922F933F934F935F936F9345
:102A90007F938F939F93AF93BF93EF93FF93809117
:102AA000580490915904892B29F0E0915804F09131
:102AB00059041995FF91EF91BF91AF919F918F911B
:102AC0007F916F915F914F913F912F910F900BBE2E
:102AD0000F900FBE0F901F9018951F920F920FB678
:102AE0000F9211240BB60F922F933F934F935F9346
:102AF0006F937F938F939F93AF93BF93EF93FF93C6
:102B000080914E0490914F04892B29F0E0914E045E
:102B1000F0914F041995FF91EF91BF91AF919F9163
:102B20008F917F916F915F914F913F912F910F9076
:102B30000BBE0F900FBE0F901F9018951F920F9213
:102B40000FB60F9211240BB60F922F933F934F9312
:102B50005F936F937F938F939F93AF93BF93EF9305
:102B6000FF938091500490915104892B29F0E091BA
:102B70005004F09151041995FF91EF91BF91AF91DD
:102B80009F918F917F916F915F914F913F912F9185
:102B90000F900BBE0F900FBE0F901F9018951F92B5
:102BA0000F920FB60F9211240BB60F922F933F93F3
:102BB0004F935F936F937F938F939F93AF93BF9345
:102BC000EF93FF9380915A0490915B04892B29F035
:102BD000E0915A04F0915B041995FF91EF91BF9138
:102BE000AF919F918F917F916F915F914F913F91A5
:102BF0002F910F900BBE0F900FBE0F901F90189546
:102C00001F920F920FB60F9211240BB60F922F93B3
:102C10003F934F935F936F937F938F939F93AF9364
:102C2000BF93EF93FF9380915C0490915D04892B97
:102C300029F0E0915C04F0915D041995FF91EF910A
:102C4000BF91AF919F918F917F916F915F914F91C4
:102C50003F912F910F900BBE0F900FBE0F901F90C2
:102C600018951F920F920FB60F9211242F933F9336
:102C70008F939F93AF93BF9380915F049091600473
:102C8000A0916104B091620430915E0423E0230FAF
:102C90002D3720F40196A11DB11D05C026E8230F94
:102CA0000296A11DB11D20935E0480935F04909352
:102CB0006004A0936104B0936204809163049091D6
:102CC0006404A0916504B09166040196A11DB11D34
:102CD0008093630490936404A0936504B0936604A6
:102CE000BF91AF919F918F913F912F910F900FBE08
:102CF0000F901F9018952FB7F89460915F04709112
:102D0000600480916104909162042FBF08953FB7E1
:102D1000F8948091630490916404A0916504B0914B
:102D2000660426B5A89B05C02F3F19F00196A11D8A
:102D3000B11D3FBF6627782F892F9A2F620F711D13
:102D4000811D911D42E0660F771F881F991F4A95CC
:102D5000D1F70895CF92DF92EF92FF92CF93DF9356
:102D60006B017C010E948716EB01C114D104E104C0
:102D7000F10489F00E94ED180E9487166C1B7D0BF0
:102D8000683E734090F381E0C81AD108E108F10869
:102D9000C851DC4FEACFDF91CF91FF90EF90DF90E9
:102DA000CF9008958230910538F0880F991F880FD1
:102DB000991F05970197F1F70895789484B582607B
:102DC00084BD84B5816084BD85B5826085BD85B5CF
:102DD000816085BDEEE6F0E0808181608083E1E87E
:102DE000F0E01082808182608083808181608083B6
:102DF000E0E8F0E0808181608083E1EBF0E08081B9
:102E000084608083E0EBF0E0808181608083E1E991
:102E1000F0E0808182608083808181608083E0E94E
:102E2000F0E0808181608083E1EAF0E0808182606F
:102E30008083808181608083E0EAF0E0808181602E
:102E40008083E1E2F1E08081826080838081816023
:102E50008083E0E2F1E0808181608083EAE7F0E056
:102E600080818460808380818260808380818160B2
:102E700080838081806880831092C10008958633AA
:102E800008F0865320917B00982F9870277F922B13
:102E900090937B0087702091390290E4299F9001E4
:102EA0001124822B80937C0080917A00806480932F
:102EB0007A0080917A0086FDFCCF80917800209185
:102EC000790090E0922B08951F93CF93DF93182FF2
:102ED000EB0161E00E947E18209711F460E004C0CD
:102EE000CF3FD10539F461E0812FDF91CF911F9160
:102EF0000C94B718E12FF0E0EF5BFD4F449150E0E8
:102F0000FA013197E231F10508F09BC0E857FF4F15
:102F10000C94C61A84B5806884BDC7BD97C084B5BB
:102F2000806284BDC8BD92C080918000806880931B
:102F30008000D0938900C093880088C08091800071
:102F4000806280938000D0938B00C0938A007EC003
:102F500080918000886080938000D0938D00C09322
:102F60008C0074C08091B00080688093B000C093E2
:102F7000B3006CC08091B00080628093B000C093B9
:102F8000B40064C080919000806880939000D093DA
:102F90009900C09398005AC08091900080628093FD
:102FA0009000D0939B00C0939A0050C080919000F5
:102FB000886080939000D0939D00C0939C0046C091
:102FC0008091A00080688093A0008091A0008F7BFA
:102FD0008093A000D093A900C093A80037C080912F
:102FE000A00080628093A000D093AB00C093AA00A1
:102FF0002DC08091A00088608093A000D093AD0088
:10300000C093AC0023C08091200180688093200190
:10301000D0932901C093280119C0809120018062BA
:1030200080932001D0932B01C0932A010FC080917F
:103030002001886080932001D0932D01C0932C0142
:1030400005C0C038D1050CF04ECF48CFDF91CF91ED
:103050001F91089590E0FC013197E231F10508F0ED
:103060004CC0E656FF4F0C94C61A809180008F77B3
:1030700003C0809180008F7D8093800008958091AF
:103080008000877FF9CF84B58F7702C084B58F7DAC
:1030900084BD08958091B0008F7703C08091B00007
:1030A0008F7D8093B0000895809190008F7707C046
:1030B000809190008F7D03C080919000877F8093E6
:1030C000900008958091A0008F7707C08091A000A4
:1030D0008F7D03C08091A000877F8093A00008951A
:1030E000809120018F7707C0809120018F7D03C0E0
:1030F00080912001877F809320010895CF93DF93F3
:1031000090E0FC01E957FD4F2491FC01E353FD4F92
:103110008491882349F190E0880F991FFC01E35DB9
:10312000FC4FA591B4918D5E9C4FFC01C591D4914B
:103130009FB7611108C0F8948C91209582238C93DD
:10314000888182230AC0623051F4F8948C91322F26
:10315000309583238C938881822B888304C0F894D4
:103160008C91822B8C939FBFDF91CF9108950F9309
:103170001F93CF93DF931F92CDB7DEB7282F30E098
:10318000F901EF5BFD4F8491F901E957FD4F14916F
:10319000F901E353FD4F04910023C9F0882321F086
:1031A00069830E942A186981E02FF0E0EE0FFF1F6B
:1031B000ED5EFC4FA591B4919FB7F8948C9161118D
:1031C00003C01095812301C0812B8C939FBF0F906A
:1031D000DF91CF911F910F91089508955058BB270B
:1031E000AA270ED0E5C0D6D030F0DBD020F031F4E5
:1031F0009F3F11F41EF4CBC00EF4E095E7FBC1C075
:10320000E92FE7D080F3BA176207730784079507A1
:1032100018F071F49EF5FFC00EF4E0950B2EBA2F56
:10322000A02D0B01B90190010C01CA01A0011124CC
:10323000FF27591B99F0593F50F4503E68F11A1678
:10324000F040A22F232F342F4427585FF3CF469509
:1032500037952795A795F0405395C9F77EF41F162B
:10326000BA0B620B730B840BBAF09150A1F0FF0FF5
:10327000BB1F661F771F881FC2F70EC0BA0F621FE1
:10328000731F841F48F4879577956795B795F795D1
:103290009E3F08F0B3CF9395880F08F09927EE0F63
:1032A00097958795089504D06894B111B5C0089595
:1032B00098D088F09F5790F0B92F9927B751A0F078
:1032C000D1F0660F771F881F991F1AF0BA95C9F7BA
:1032D00012C0B13081F09FD0B1E008959CC0672F3B
:1032E000782F8827B85F39F0B93FCCF3869577956A
:1032F0006795B395D9F73EF4909580957095619553
:103300007F4F8F4F9F4F0895E89409C097FB3EF47D
:1033100090958095709561957F4F8F4F9F4F992322
:10332000A9F0F92F96E9BB279395F69587957795A0
:103330006795B795F111F8CFFAF4BB0F11F460FF60
:103340001BC06F5F7F4F8F4F9F4F16C0882311F0B8
:1033500096E911C0772321F09EE8872F762F05C0CC
:10336000662371F096E8862F70E060E02AF09A9567
:10337000660F771F881FDAF7880F9695879597F95C
:10338000089597F99F6780E870E060E008959FEFE7
:1033900080EC089500240A941616170618060906EC
:1033A000089500240A9412161306140605060895BB
:1033B000092E0394000C11F4882352F0BB0F40F443
:1033C000BF2B11F460FF04C06F5F7F4F8F4F9F4F83
:1033D000089557FD9058440F551F59F05F3F71F005
:1033E0004795880F97FB991F61F09F3F79F087956C
:1033F0000895121613061406551FF2CF4695F1DFF5
:1034000008C0161617061806991FF1CF8695710584
:10341000610508940895E894BB2766277727CB01B8
:1034200097F908950BD0C4CFB5DF28F0BADF18F0B4
:10343000952309F0A6CFABCF1124EECFCADFA0F3BE
:10344000959FD1F3950F50E0551F629FF001729F39
:10345000BB27F00DB11D639FAA27F00DB11DAA1F58
:10346000649F6627B00DA11D661F829F2227B00DA5
:10347000A11D621F739FB00DA11D621F839FA00D30
:10348000611D221F749F3327A00D611D231F849F80
:10349000600D211D822F762F6A2F11249F575040D7
:1034A0008AF0E1F088234AF0EE0FFF1FBB1F661F72
:1034B000771F881F91505040A9F79E3F510570F02B
:1034C00060CFAACF5F3FECF3983EDCF3869577950B
:1034D0006795B795F795E7959F5FC1F7FE2B880F26
:1034E000911D9695879597F90895DB018F939F938A
:1034F0000E94CC1ABF91AF91A29F800D911DA39FF6
:10350000900DB29F900D11240895A1E21A2EAA1BCE
:10351000BB1BFD010DC0AA1FBB1FEE1FFF1FA21783
:10352000B307E407F50720F0A21BB30BE40BF50B80
:10353000661F771F881F991F1A9469F76095709509
:10354000809590959B01AC01BD01CF010895052E9A
:1035500097FB1EF400940E94BE1A57FD07D00E94EC
:10356000851A07FC03D04EF40C94BE1A5095409572
:10357000309521953F4F4F4F5F4F0895909580951F
:10358000709561957F4F8F4F9F4F0895EE0FFF1FEE
:103590000590F491E02D19940E94DB1AA59F900DDF
:1035A000B49F900DA49F800D911D11240895079044
:1035B000F691E02D1994A29FB001B39FC001A39F83
:1035C000700D811D1124911DB29F700D811D11245C
:1035D000911D0895CF93DF938230910510F482E01E
:1035E00090E0E0916904F0916A0420E030E0A0E00E
:1035F000B0E0309739F14081518148175907B8F050
:103600004817590771F482819381109729F0139616
:103610009C938E9312972CC090936A0480936904B4
:1036200027C02115310531F04217530718F0A901C1
:10363000DB0101C0EF019A01BD01DF010280F381CE
:10364000E02DD7CF21153105F9F0281B390B243097
:10365000310580F48A819B816115710521F0FB01A0
:103660009383828304C090936A0480936904FE016B
:10367000329644C0FE01E20FF31F819391932250D2
:103680003109398328833AC0209167043091680456
:10369000232B41F4209102023091030230936804FD
:1036A0002093670420910002309101022115310519
:1036B00041F42DB73EB74091040250910502241BFE
:1036C000350BE0916704F0916804E217F307A0F46A
:1036D0002E1B3F0B2817390778F0AC014E5F5F4F68
:1036E0002417350748F04E0F5F1F5093680440932E
:1036F00067048193919302C0E0E0F0E0CF01DF9195
:10370000CF910895CF93DF93009709F487C0FC0110
:10371000329713821282C0916904D0916A04209773
:1037200081F420813181280F391F809167049091A5
:1037300068048217930779F5F0936804E0936704AF
:103740006DC0DE0120E030E0AE17BF0750F41296E6
:103750004D915C9113979D014115510509F1DA01D5
:10376000F3CFB383A28340815181840F951F8A17C1
:103770009B0771F48D919C911197840F951F029670
:103780009183808312968D919C911397938382836A
:103790002115310529F4F0936A04E09369043EC0D1
:1037A000D9011396FC93EE9312974D915D91A40F5E
:1037B000B51FEA17FB0779F480819181840F951F6B
:1037C0000296D90111969C938E93828193811396D0
:1037D0009C938E931297E0E0F0E08A819B810097A2
:1037E00019F0FE01EC01F9CFCE0102962881398152
:1037F000820F931F209167043091680428173907BE
:1038000069F4309729F410926A041092690402C096
:1038100013821282D0936804C0936704DF91CF9122
:1038200008958F929F92AF92BF92CF92DF92EF92C4
:10383000FF92CF93DF93EC01688179818A819B812C
:10384000611571058105910521F464E279ED8BE53F
:1038500097E02DE133EF41E050E00E94A71A4901C3
:103860005A019B01AC01A7EAB1E40E94CC1A6B019A
:103870007C01ACEEB4EFA50194010E946F1DC60E51
:10388000D71EE81EF91EF7FE06C081E0C81AD1084F
:10389000E10880E8F80AC882D982EA82FB82C7017F
:1038A000B6019F77DF91CF91FF90EF90DF90CF909F
:1038B000BF90AF909F908F9008950C94111C86E05C
:1038C00092E00C94111C609306027093070280939F
:1038D00008029093090208956F927F928F929F92AF
:1038E000AF92BF92CF92DF92EF92FF920F931F930E
:1038F000CF93DF93EC01CB01209781F4DF91CF913F
:103900001F910F91FF90EF90DF90CF90BF90AF90FD
:103910009F908F907F906F900C94EA1AFE01E60FB3
:10392000F71F9E0122503109E217F30708F4ACC0DB
:10393000D9010D911C91119706171707B8F00530A2
:10394000110508F49FC0A8014450510946175707B4
:1039500008F498C002501109061B170B019311932C
:103960006D937C93CF010E94821B8CC05B01A01AD7
:10397000B10A4E01800E911EA0916904B0916A04B3
:10398000612C712C60E070E0109709F449C0A81513
:10399000B905C9F5ED90FC901197670142E0C40E9E
:1039A000D11CCA14DB0478F147018A189B08640112
:1039B00042E0C40ED11C1296BC9012971396AC91A3
:1039C000B5E0CB16D10440F0B282A383918280820D
:1039D000D9018D939C9309C00E5F1F4F0E0D1F1DC3
:1039E000F90111830083EB2DFA2F6115710531F078
:1039F000DB011396FC93EE93129744C0F0936A0494
:103A0000E09369043FC06D917C911197661677062B
:103A100008F43B01BD0112960D90BC91A02DB4CFCE
:103A2000609167047091680468157905E9F4681677
:103A30007906D0F4409100025091010241155105E0
:103A400041F44DB75EB76091040270910502461BC8
:103A5000570BE417F507C0F4F0936804E09367048C
:103A6000F901918380830EC00E94EA1A7C010097BD
:103A700059F0A801BE010E94551DCE010E94821B73
:103A8000C70104C0CE0102C080E090E0DF91CF9179
:103A90001F910F91FF90EF90DF90CF90BF90AF906C
:103AA0009F908F907F906F900895FB01DC0102C082
:103AB00001900D9241505040D8F70895DC0101C0AB
:103AC0006D9341505040E0F70895FB01DC010190F7
:103AD0000D920020E1F70895B7FF0C94CC1A0E94D4
:103AE000CC1A821B930B089513E0CCE4D3E000E0E2
:103AF00006C022970109FE010BBF0E94D71ACE34DF
:0C3B0000D10780E00807A9F7F894FFCF78
:103B0C0000006B04800001000000204E0000204EDD
:103B1C000000E8030000E803000001001400D007D7
:103B2C00000001007800140001009A99593F3D00F3
:103B3C003C003B003A009001FF0153544F5000549D
:103B4C0055524E204C454654005455524E20524925
:103B5C00474854002D2D2D2D002D2D2D78002D2D69
:103B6C00782D002D2D7878002D782D2D002D782D89
:103B7C0078002D78782D002D78787800782D2D2DE3
:103B8C0000782D2D7800782D782D00782D78780000
:103B9C0078782D2D0078782D78007878782D00782D
:103BAC007878780009007265736574696E67206CAB
:103BBC0065647300524F424F543A20474F00524FA6
:103BCC00424F543A20444F574E4C4F4144494E4774
:103BDC0000524F424F543A2057414954494E4700E6
:103BEC00000000003F0C760E00000000F20C760E78
:103BFC00450C5E0C500CD00C0D0A006E616E006909
:0A3C0C006E66006F7666002E000061
:00000001FF
