:100000000C94A7010C9406150C9437150C946815E4
:100010000C9499150C94CA150C94FB150C942C1681
:100020000C945D160C94D8010C94D8010C94D80152
:100030000C94D8010C9428130C94D8010C94D8017A
:100040000C94D8010C94D8010C94D8010C94D801CC
:100050000C94D8010C94D8010C94D8010C948E16F1
:100060000C94D8010C94BA0D0C94F00D0C94D8019A
:100070000C94D8010C94D8010C94D8010C94D8019C
:100080000C94D8010C94D8010C94D8010C94D8018C
:100090000C94D8010C94D8010C94D8010C94D8017C
:1000A0000C94D8010C94D8010C94D8010C94D8016C
:1000B0000C94D8010C94D8010C94D8010C94D8015C
:1000C0000C94D8010C94D8010C94D8010C94D8014C
:1000D0000C94D8010C94D8010C94D8010C94D8013C
:1000E0000C94D80116072C073C072C073C073C074B
:1000F0003C072C071F0716073C0716071F071607A4
:100100001F07E014AA14B214BE14CB14EC14F91493
:10011000EC17F117F61700180A18831814181C1892
:1001200024182E183818421851185B1883186518AF
:100130006F187918A718AA1899189D18A318E1180C
:10014000AE18B218B818BC18C018C618CA18CE18FD
:10015000E118D418D818DC180C94E1180C94E014A9
:100160000C94DC180C9424180C94A7180C94EC171D
:100170000C945A0C0C94DA010C9416070C942C076E
:100180000C9479180C94A3180C944F080C94EC0C54
:100190000C94BE140C94CB140C941A0E0C94CE1820
:1001A0000C9499180C94C6180C948E0C0C94240E74
:1001B0000C94B8180C94600C0C94B2180C9414188D
:1001C0000C942E180C946A080C94B2140C94AE186B
:1001D0000C94AA180C9451180C9400180C940E0D41
:1001E0000C9438180C94C0180C940A180C941F071F
:1001F0000C945B180C94F6170C94EC140C94831864
:100200000C94F1170C943C070C94D8180C94F91426
:100210000C94D4180C94610E0C949D180C946F18C7
:100220000C9442180C946C0C0C94BC180C947A0C22
:100230000C941C180C94AA140C94CA180C946518ED
:100240000200000A0B02090C0D0E0807030401004E
:10025000000000000000000000000000000000009E
:10026000000000000000000000000000001211105B
:10027000000000000000000000000000000000007E
:1002800000000000000000010210202008081020DB
:100290004010204080020102010804020101020412
:1002A00008102040808040201008040201800402D1
:1002B0000180402010080402010804020101020428
:1002C0000810204080010204081020408005050528
:1002D00005070508080808020202020A0A080804BD
:1002E00004040401010101010101010303030303EB
:1002F000030303040707070C0C0C0C0C0C0C0C027A
:1003000002020206060606060606060B0B0B0B0B80
:100310000B0B0B00002200250028002B002E0031C3
:1003200000340002010000050108010B010000215A
:1003300000240027002A002D0030003300010100B6
:1003400000040107010A01004F08240E6A08112465
:100350001FBECFEFD1E2DEBFCDBF00E00CBF13E088
:10036000A0E0B2E0EEECFBE300E00BBF02C00790C0
:100370000D92AA30B107D9F724E0AAE0B3E001C09A
:100380001D92AB36B207E1F713E0CCE4D3E000E016
:1003900006C022970109FE010BBF0E94381BC8341A
:1003A000D10780E00807A9F70E94520E0C94D51DD2
:1003B0000C94000020910A0330910B0381E090E03F
:1003C000232B11F080E090E090930B0380930A03BD
:1003D000089561E089E00E94E21861E08AE00E94ED
:1003E000E21861E086E00E94E21861E085E00E9488
:1003F000E21860E087E30E94E21860E086E30E9472
:10040000E21862E088E30E94E21868EE73E080E0A0
:1004100090E00E94091787E30E949E179093820341
:100420008093810386E30E949E17909380038093BC
:100430007F032091810330918203220F331F309379
:100440007E0320937D03880F991F90937C038093F4
:100450007B030895709386036093850322273327D7
:10046000281B390B30938403209383039B01280FAF
:10047000391F3093700320936F03861B970B909363
:100480007203809371030895869F9001879F300DBA
:10049000969F300D11243093700320936F03719554
:1004A00061957109869F9001879F300D969F300D51
:1004B000112430937203209371030895AF92BF9279
:1004C000CF92DF92EF92FF920F931F93CF936091A1
:1004D0006F0370917003882777FD8095982F1F9286
:1004E0001F921F92CFEFCF93A12CB12C650118EE74
:1004F000E12E13E0F12E00E010E028E13CEF4FEF99
:100500005FEF0E94CE1370937A036093790360913A
:100510006F0370917003882777FD8095982F1F9245
:100520001F921F921F92A12CB12C6501AA9428E161
:100530003CEF4FEF5FEF0E94CE1370937803609310
:1005400077036091710370917203882777FD80951E
:10055000982F1F921F921F92CF93A12CB12C65014F
:1005600028E13CEF4FEF5FEF0E94CE1370937603CC
:10057000609375036091710370917203882777FD12
:100580008095982F1F921F921F921F92A12CB12C21
:100590006501AA9428E13CEF4FEF5FEF0E94CE1374
:1005A00070937403609373036091790370917A037D
:1005B00089E00E94C31760917703709178038AE005
:1005C0000E94C317609175037091760386E00E94C4
:1005D000C3178DB79EB740960FB6F8949EBF0FBE57
:1005E0008DBF609173037091740385E0CF911F916B
:1005F0000F91FF90EF90DF90CF90BF90AF900C9451
:10060000C31761E08EE10E94E21861E080E20E947F
:10061000E21861E086E10E94E21861E088E10E9450
:10062000E21861E08AE10E94E21861E08CE10E9438
:10063000E21820E042E060E187E593E00C94790B5A
:10064000CF93DF93EC0187E593E00E94570B41E0E5
:1006500060E087E593E00E945E0BBE0187E593E0D2
:10066000DF91CF910C949E0E4F925F926F927F928A
:100670008F929F92AF92BF92CF92DF92EF92FF92B2
:100680000F931F934B015C01CA01B9016701780107
:10069000A70196010E94731A0E94B91980E090E0A8
:1006A0000E94E5192B013C01A701960160E070E072
:1006B00080E89FE30E944F199B01AC01C501B40182
:1006C0000E94731A9B01AC01C301B2010E94501930
:1006D0000E94B419CB011F910F91FF90EF90DF9012
:1006E000CF90BF90AF909F908F907F906F905F90D2
:1006F0004F9008950F931F93CF93DF9364E670E0BC
:1007000080E090E00E940917CEE2D2E00FE413E00F
:10071000F2E0C633DF0779F0888122960E949E17A7
:10072000F801819391938F016AE070E080E090E09E
:100730000E940917EDCFDF91CF911F910F9108957E
:10074000CF93DF93CEE2D2E082E0C633D80731F018
:100750008881229660E00E94E218F6CFDF91CF9167
:100760000C947A034F925F926F927F928F929F9236
:10077000AF92BF92CF92DF92EF92FF920F931F93AF
:10078000CF93DF9300D01F92CDB7DEB747E4842E1E
:1007900043E0942E5EE2C52E52E0D52EA12CB12C62
:1007A00040902A0250902B0260902C0270902D02F3
:1007B000F40160817181882777FD8095982F0E94D0
:1007C000E7199B01AC01F6018081F2E0CF0ED11C4C
:1007D00029833A834B835C830E949E17BC01882740
:1007E00077FD8095982F0E94E71983017201298176
:1007F0003A814B815C810E943403F401819391938F
:100800004F014AE050E0BC0187E893E00E946B0F83
:1008100064EA72E087E893E00E94AC0EFFEFAF1A43
:10082000BF0A84E0A816B10409F0BACF87E893E0C4
:100830000F900F900F900F90DF91CF911F910F911C
:10084000FF90EF90DF90CF90BF90AF909F908F90F0
:100850007F906F905F904F900C94B50ECF93E7E42C
:10086000F3E0AFE4B3E0C0E080E090E0619171912B
:100870002D913D91220F331F41E050E0261737079D
:1008800014F040E050E0082E01C0440F0A94EAF74B
:100890004C2B01968430910511F0C42FE7CF409383
:1008A0004603CF91089561E08CE00E94E2188CE04D
:1008B0000E94121361E08CE00E941E198DE293E009
:1008C0000C948208EF92FF920F931F93CF93DF93C4
:1008D0000E94D8160091190310911A0320911B034E
:1008E00030911C03601B710B820B930B009124024F
:1008F00010912502222717FD2095322F60177107CE
:100900008207930710F10E94D81660931903709321
:100910001A0380931B0390931C03209122023091B1
:1009200023028091170390911803820F931F9093D5
:100930001803809317030197069718F031952195B6
:1009400031093093230220932202CDE1D3E000E06D
:1009500010E058E7E52EF12C8091170390911803D1
:100960000817190719F4F982E88212C08881998161
:100970008A30910534F08A3021E092072CF40A97EE
:1009800005C080E090E002C08FEF90E099838883FB
:1009900088812296482F682F0E94910A9B01AC0102
:1009A000B8018DE293E00E94250A0F5F1F4F0830C7
:1009B000110591F68DE293E0DF91CF911F910F9198
:1009C000FF90EF900C9405090F931F93CF93DF9343
:1009D000109218031092170381E090E09093230285
:1009E000809322020DE113E0C0E0D0E0F801119203
:1009F00011928F0140E060E08FEF0E94910A9B010D
:100A0000AC01BE018DE293E00E94250A2196C83018
:100A1000D10561F78DE293E00E94050981E0DF9145
:100A2000CF911F910F9108950F931F93CF93DF9351
:100A3000109218031092170381E090E09093230224
:100A4000809322020DE113E0C0E0D0E0F8011192A2
:100A500011928F0140E060E080E00E94910A9B01CA
:100A6000AC01BE018DE293E00E94250A2196C830B8
:100A7000D10561F78DE293E0DF91CF911F910F9146
:100A80000C9405098CE00E94121361E08CE00C9438
:100A90001E19CF92DF92EF92FF92CF93DF936B01FB
:100AA0007C018091160381110BC00E94E4048093A5
:100AB000160366EA72E087E893E00E94B90E38C038
:100AC000C0E0D0E08091170390911803C817D907B0
:100AD00061F440E06FEF80E00E94910A9B01AC015D
:100AE000BE018DE293E00E94250A2196C830D1050F
:100AF00049F78DE293E00E940509809119039091D6
:100B00001A03A0911B03B0911C03B701A601481B57
:100B1000590B6A0B7B0B80911E0290911F02A091D2
:100B20002002B0912102481759076A077B0710F489
:100B300080E026C0C0921903D0921A03E0921B03F2
:100B4000F0921C03809117039091180301969093E3
:100B5000180380931703089758F384E090E090936C
:100B6000290280932802109216030E9414050E9405
:100B7000420568EE73E080E090E00E94091781E092
:100B8000DF91CF91FF90EF90DF90CF900895CF92BB
:100B9000DF92EF92FF92CF93DF936B017C01C0E075
:100BA000D0E080911403482F682F0E94910A9B0186
:100BB000AC01BE018DE293E00E94250A2196C83067
:100BC000D10579F78DE293E00E9405098091190320
:100BD00090911A03A0911B03B0911C03C81AD90A63
:100BE000EA0AFB0A80911C0290911D02AA2797FD38
:100BF000A095BA2FC816D906EA06FB0648F120913F
:100C00001A0230911B02C90164E0880F991F6A958E
:100C1000E1F74091140350911503840F951F8F3F06
:100C2000910519F014F08FEF90E097FF02C080E07B
:100C300090E0909315038093140301978E3F9105E4
:100C400018F031952195310930931B0220931A0237
:100C5000DF91CF91FF90EF90DF90CF900895CF92EA
:100C6000DF92EF92FF920E94D8166B017C01809177
:100C7000100390911103A0911203B0911303B701D7
:100C8000A601481B590B6A0B7B0B809116029091B1
:100C90001702A0911802B0911902481759076A0764
:100CA0007B0730F164E670E080E090E00E948813FA
:100CB00060931602709317028093180290931902A2
:100CC000C0921003D0921103E0921203F09213032A
:100CD00020EA3FE040E050E068EE73E080E090E022
:100CE0000E94AC1320E030E0A9018CE00E94720F5A
:100CF00080910C0390910D03A0910E03B0910F030E
:100D0000B701A601481B590B6A0B7B0B809112029D
:100D100090911302A0911402B0911502481759073F
:100D20006A077B0770F16CED75E080E090E00E944F
:100D300088136C5E7F4F8F4F9F4F609312027093AA
:100D400013028093140290931502C0920C03D09268
:100D50000D03E0920E03F0920F0320EA3FE040E023
:100D600050E068EE73E080E090E00E94AC1320E079
:100D700030E0A9018CE0FF90EF90DF90CF900C94D1
:100D8000720FFF90EF90DF90CF90089526E040E83B
:100D900055E260E070E087E893E00E94550D0E9404
:100DA000A0030E94E9010E9401030E94530460E035
:100DB00082E00E94E21842E050E06AED71E080E0DB
:100DC0000E9492140C944205CF93DF9368EE73E077
:100DD00080E090E00E948813643F71408105910596
:100DE0001CF4C1E0D0E002C0CFEFDFEF80914603FA
:100DF000882371F06091360270913702CE010E9413
:100E000044020E945E020E94B2030E942E04EECFB2
:100E1000DF91CF9108958091460390E08F30910546
:100E200058F5FC01EE58FF4F0C94271B60E070E072
:100E300080913602909137020E942A0225C080914B
:100E400036029091370222273327281B390B309323
:100E5000700320936F030BC080913602909137028C
:100E60009093700380936F0391958195910990936E
:100E700072038093710308C01092700310926F0385
:100E800010927203109271030C945E028F929F92E3
:100E9000AF92BF92CF92DF92EF92FF92CF93DF9308
:100EA00000D000D0CDB7DEB761E070E080E090E028
:100EB0000E9409170E94D8166B017C01809146039D
:100EC0008F3011F40E94E406809142039091430315
:100ED000A0914403B0914503B701A601481B590BEB
:100EE0006A0B7B0B8091260290912702AA2797FD1F
:100EF000A095BA2F481759076A077B0708F4BEC0A8
:100F0000C0924203D0924303E0924403F09245031F
:100F100080912802909129028230910591F18430CC
:100F2000910509F466C0019709F0A8C064EB72E06E
:100F3000CE0101960E947D14CE0101960E942003ED
:100F4000CE0101960E940F140E9462040E940B07BA
:100F500080910A0290910B02A0910C02B0910D02B7
:100F6000C816D906EA06FB0608F488C060E070E0FF
:100F700080E090E00E942A020E945E0282E090E0FF
:100F800033C06EEB72E0CE0101960E947D14CE015B
:100F900001960E942003CE0101960E940F140E9428
:100FA0002F06C701B6010E944905882309F466C0CF
:100FB0000E94D8166B017C0160910E0270910F02A5
:100FC00080911002909111020E9488136C0D7D1D7A
:100FD0008E1D9F1D60930A0270930B0280930C027A
:100FE00090930D0284E090E0909329028093280270
:100FF00045C061ED72E0CE0101960E947D14CE01E4
:1010000001960E942003CE0101960E940F14809148
:101010000A0290910B02A0910C02B0910D02C81629
:10102000D906EA06FB0630F10E94D8166B017C0156
:1010300060910E0270910F02809110029091110246
:1010400046015701860E971EA81EB91E0E948813DE
:10105000680D791D8A1D9B1D60930A0270930B0217
:1010600080930C0290930D0281E090E0909329020E
:1010700080932802C701B6010E94C70526960FB6C5
:10108000F894DEBF0FBECDBFDF91CF91FF90EF9000
:10109000DF90CF90BF90AF909F908F900895CF92A8
:1010A000EF920F937CE1C72EEAE1EE2E08E126E1F4
:1010B00040E26EE187E593E00E94340C22E530E0E7
:1010C00047E068E070E08DE293E00F91EF90CF9001
:1010D0000C94FD098DE293E00C946E08CF93DF939E
:1010E000EC0188859985009711F00E94E31B8E81A1
:1010F00087FD05C060E0DF91CF910C94E218DF918D
:10110000CF910895CF93DF93EC018E8187FD07C0C7
:1011100061E00E94E21860E08E810E941E1981E069
:101120008983DF91CF910895EF92FF920F931F93E0
:10113000CF93DF93EC017B0188859985009711F0AF
:101140000E94E31B9D858A85981719F084E090E042
:1011500002C083E090E08E9D80018F9D100D9E9DCA
:10116000100D11241D830C83C8010E944B1B99870D
:101170008887009741F0A80160E070E00E94BF1DE1
:10118000FB82EA8204C01D821C821B821A82DF91CC
:10119000CF911F910F91FF90EF900895FC0131E0E6
:1011A00095858285981330E0CB0126E0969587954A
:1011B0002A95E1F7282F23702587CB0144E09695E7
:1011C00087954A95E1F783708287AB0156954795DD
:1011D0005695479543704387962F9370948791E077
:1011E0006F3F710511F008F090E0908340855185C4
:1011F000452B51F091E0281390E0931729F062817C
:101200007381CF010C9494080895CF92DF92EF92EE
:10121000FF920F931F93CF93DF93CDB7DEB729973C
:101220000FB6F894DEBF0FBECDBF8C01DC0118965F
:101230008D919C911997892B09F49EC00E94E41608
:10124000F801C684D784E088F188DC01CB018C19D1
:101250009D09AE09BF09C297A105B10578F3F894BD
:10126000848195819A8389830084F185E02D7F01B3
:10127000BFEFEB1AFB0A80818987F8019081028811
:10128000F389E02DD80154968C91992309F430C04C
:101290009081982B98879081809589238F838F8167
:1012A0008E8388E08D8358856F8149853D812E81AD
:1012B00089819A81D701508347FD252F3A95208354
:1012C000262F39F0441F00C000006083000000C0DA
:1012D000F2CF38E04D9160830000019761F7D801AB
:1012E0005396FC93EE93529749873D832E833AC0E1
:1012F0009081982B98879081809589238F838F8107
:101300008C8388E08B8358856F8149853B812C8154
:1013100089819A81D701508347FD252F00C000C0E5
:10132000208300C000C000C000C000C06083000077
:10133000262F3A9541F0441F000000C000C000C0B5
:1013400000C000C0E8CF38E04D9100C0608300C00D
:10135000019709F7D8015396FC93EE93529749876A
:101360003B832C839A83898378940E94E416F80146
:1013700066877787808B918B29960FB6F894DEBFAE
:101380000FBECDBFDF91CF911F910F91FF90EF90D6
:10139000DF90CF9008951F93CF93DF93EC01162F2A
:1013A0008981882331F08E8187FD03C060E00E942F
:1013B000E2181E838981882341F061E0812F0E9419
:1013C000E21860E0812F0E941E19812F90E0FC013D
:1013D000E353FD4FE491F0E0EE0FFF1FED5EFC4F95
:1013E000259134913B8B2A8BFC01E957FD4FE49109
:1013F000EC8BDF91CF911F910895EF92FF920F93A5
:101400001F93CF93DF931F92CDB7DEB77C018B0183
:10141000FC01118217821186108616861786108AA3
:10142000118AB90149830E94CE08B801C7010E9400
:1014300094084981642FC7010F90DF91CF911F91CC
:101440000F91FF90EF900C94CB098F929F92AF92E7
:10145000BF92CF92DF92EF92FF920F931F93CF93A1
:10146000DF93FC01828193816817790708F04CC0F3
:101470004A01AA24BB24B82DC32ED42EE52EFF2466
:10148000AC2D922F8781882361F0889E4001112422
:10149000B92DC89E60011124AD2D289FE0011124B3
:1014A0009D2FD584C285E084F184DC1208C09B01A5
:1014B000220F331F620F731F6E0D7F1D16C0660F44
:1014C000771F660F771F6E0D7F1D052F11272227AF
:1014D0003327EB01CD0DD11D882329F0089F900102
:1014E0001124232F01C0202F28838285EB01C80FF0
:1014F000D11DB8838385EB01C80FD11DA8838485D6
:10150000FB01E80FF11D9083DF91CF911F910F91A7
:10151000FF90EF90DF90CF90BF90AF909F908F9013
:1015200008950F931F93962F50E060E070E0592BC1
:101530008A019B01282BC901B8011F910F910895C1
:10154000CF93DF93EC0160E08E810E941E1981E051
:1015500090E00E94311761E08E810E941E1981E0A7
:1015600090E00E94311760E08E810E941E1984E68F
:1015700090E0DF91CF910C943117AF92BF92CF9250
:10158000DF92EF92FF920F931F93CF93DF935C0153
:101590007C0187E0E80EF11CC0E0D0E0062F10E0EF
:1015A000670161E0F70181917F010E94E218B801B3
:1015B0000C2E02C0759567950A94E2F76170F601EA
:1015C00080810E941E192196C430D10549F7C501BA
:1015D000DF91CF911F910F91FF90EF90DF90CF900F
:1015E000BF90AF900C94A00AAF92BF92CF92DF92BF
:1015F000EF92FF920F931F93CF93DF935C017C01D7
:1016000087E0E80EF11CC0E0D0E0062F10E0670193
:1016100061E0F70181917F010E94E218B8010C2E70
:1016200002C0759567950A94E2F76170F6018081B2
:101630000E941E192196C830D10549F7C501DF91D6
:10164000CF911F910F91FF90EF90DF90CF90BF90BF
:10165000AF900C94A00A1F93CF93DF93EC01162F49
:10166000642F8C810E941E198D818F3F19F060E0DC
:101670000E941E198F85612F84FF06C0CE01DF9165
:10168000CF911F910C94F40A70E084E075956795F2
:101690008A95E1F7CE010E94BD0A612FCE01DF914C
:1016A000CF911F910C94BD0A40E00C942B0B61E08C
:1016B0000E94540B80ED97E00C943117FC014430EC
:1016C00008F043E08389481710F04FEF480FDF011F
:1016D000A40FB11D54969C91690F6068CF010C94C2
:1016E000540BFC016089262F2460208B6C600C94C5
:1016F000540BCF93DF93EC01423018F08F85886054
:101700008F874B8B1C8A80E48D8B6E8B70E0605CC6
:101710007F4F6F8B222329F0413019F48F8584602D
:101720008F8780E593EC0E94311760E08C810E94E6
:101730001E1960E08E810E941E198D818F3F19F065
:1017400060E00E941E196F8564FD1DC063E0CE013C
:101750000E94BD0A84E991E10E94311763E0CE0145
:101760000E94BD0A84E991E10E94311763E0CE0135
:101770000E94BD0A86E990E00E94311762E0CE0126
:101780000E94BD0A16C06062CE010E94540B84E91B
:1017900091E10E9431176F856062CE010E94540B67
:1017A00086E990E00E9431176F856062CE010E9449
:1017B000540B6F856062CE010E94540B84E0888BCD
:1017C000CE010E94710BCE010E94570B82E0898BE3
:1017D00066E0CE01DF91CF910C94540B6F927F9213
:1017E0008F92AF92CF92EF920F931F93CF93DF938D
:1017F000CDB7DEB73C01162F842F5E854F85388923
:101800009989F301848325830683E782C086A186B4
:101810008286538744873587968761E00E94E21865
:10182000F30185818F3F19F061E00E94E21861E0C9
:10183000F30186810E94E218112319F0F301178643
:1018400003C080E1F301878720E041E060E1C3014C
:10185000DF91CF911F910F91EF90CF90AF908F902C
:101860007F906F900C94790B8F92AF92CF92EF9202
:101870000F93DC0113961C921E921297E4EEF2E095
:10188000ED93FC931F921F921F921F928C2CAE2CF3
:10189000C02EE22E042F2FEF462F61E00E94EE0BA8
:1018A0000F900F900F900F900F91EF90CF90AF90FF
:1018B0008F90089541E00E942B0B81E090E0089505
:1018C000FC01918D228D892F90E0805C9F4F821BBF
:1018D00091098F7399270895FC01918D828D981736
:1018E00031F0828DE80FF11D858D90E008958FEF26
:1018F0009FEF0895FC01918D828D981761F0828D84
:10190000DF01A80FB11D5D968C91928D9F5F9F7333
:10191000928F90E008958FEF9FEF08958AE19EE007
:10192000892B41F080E090E0892B21F00E941A0E73
:10193000811125C080E090E0892B41F080E090E0AB
:10194000892B21F00E94000081111CC080E090E0F2
:10195000892B41F080E090E0892B21F00E9400006B
:10196000811113C080E090E0892BA1F080E090E02D
:10197000892B81F00E94000081110AC008950E9405
:101980000000D8CF0E940000E1CF0E940000EACF03
:101990000C9400000895FC01848DDF01A80FB11D97
:1019A000A35ABF4F2C91848D90E001968F73992795
:1019B000848FA689B7892C93A089B1898C91806482
:1019C0008C93938D848D981306C00288F389E02D43
:1019D00080818F7D80830895CF93DF93EC01888D84
:1019E0008823C9F0EA89FB89808185FD05C0A88923
:1019F000B9898C9186FD0FC00FB607FCF5CF8081A9
:101A000085FFF2CFA889B9898C9185FFEDCFCE01F2
:101A10000E94CB0CE7CFDF91CF910895EF92FF9218
:101A20000F931F93CF93DF93EC0181E0888F9B8D01
:101A30008C8D981305C0E889F989808185FD24C0C3
:101A4000F62E0B8D10E00F5F1F4F0F731127E02E46
:101A50008C8DE8120CC00FB607FCFACFE889F98923
:101A6000808185FFF5CFCE010E94CB0CF1CF8B8D0D
:101A7000FE01E80FF11DE35AFF4FF0820B8FEA8958
:101A8000FB898081806207C0EE89FF896083E889D5
:101A9000F98980818064808381E090E0DF91CF913B
:101AA0001F910F91FF90EF900895CF92DF92EF92E8
:101AB000FF921F93CF93DF93EC016A017B01122FFA
:101AC000E889F98982E080834115514E61057105ED
:101AD000B1F060E079E08DE390E0A70196010E940B
:101AE000E61ADA01C9010197A109B109B695A795CE
:101AF00097958795AC01411580E15807A8F0E889D2
:101B0000F989108260E874E88EE190E0A7019601FF
:101B10000E94E61ABA01A9014150510961097109EF
:101B20007695679557954795EC85FD855083EE85AD
:101B3000FF854083188EEC89FD891083EA89FB8933
:101B4000808180618083EA89FB89808188608083CD
:101B5000EA89FB89808180688083EA89FB898081AA
:101B60008F7D8083DF91CF911F91FF90EF90DF9069
:101B7000CF9008951F920F920FB60F9211240BB6BB
:101B80000F922F938F939F93EF93FF93E09197037F
:101B9000F09198038081E0919D03F0919E0382FD76
:101BA00012C090818091A0038F5F8F732091A10359
:101BB000821751F0E091A003F0E0E957FC4F958FB8
:101BC0008093A00301C08081FF91EF919F918F913D
:101BD0002F910F900BBE0F900FBE0F901F90189576
:101BE0001F920F920FB60F9211240BB60F922F93E4
:101BF0003F934F935F936F937F938F939F93AF9395
:101C0000BF93EF93FF9387E893E00E94CB0CFF9183
:101C1000EF91BF91AF919F918F917F916F915F9164
:101C20004F913F912F910F900BBE0F900FBE0F90D1
:101C30001F90189587E893E00E94600C21E0892BA3
:101C400009F420E0822F0895E7E8F3E0138212827E
:101C500088EE93E0A0E0B0E084839583A683B78309
:101C60008CEE92E09183808385EC90E09587848769
:101C700084EC90E09787868780EC90E0918B808B56
:101C800081EC90E0938B828B82EC90E0958B848B3F
:101C900086EC90E0978B868B118E128E138E148EAD
:101CA000089508950E943C170E94510E0E94C60696
:101CB000CEE8DCE00E9446072097E1F30E948E0CFC
:101CC000F9CFCF92DF92EF92FF920F931F93CF93B2
:101CD000DF936C01EB017B01E40EF51E00E010E0E8
:101CE000CE15DF0561F06991D601ED91FC9101906F
:101CF000F081E02DC6011995080F191FF1CFC80119
:101D0000DF91CF911F910F91FF90EF90DF90CF90D7
:101D100008956115710579F0FB0101900020E9F744
:101D20003197AF01461B570BDC01ED91FC9102800E
:101D3000F381E02D199480E090E00895DC01ED91AD
:101D4000FC91DB0114964D915C9115976D917C91FE
:101D50000280F381E02D19940C94890EDC01ED9141
:101D6000FC910190F081E02D199468EF72E00C94E1
:101D7000890E0F931F93CF93DF93EC010E94890E7E
:101D80008C01CE010E94B50E800F911FDF91CF9183
:101D90001F910F9108958F929F92AF92BF92CF9211
:101DA000DF92EF92FF920F931F93CF93DF93CDB704
:101DB000DEB7A1970FB6F894DEBF0FBECDBF6C01A2
:101DC000142FE52FCB01022F19A2223008F40AE0CC
:101DD0007E0121E2E20EF11C802E912CA12CB12C6F
:101DE000612F7E2FA50194010E94E61A029F10190F
:101DF000112481E0E81AF1081A3014F4105D01C0D2
:101E0000195CF7011083122FE32FCA01232B242B17
:101E1000252B31F7B701C6010E94890EA1960FB696
:101E2000F894DEBF0FBECDBFDF91CF911F910F9110
:101E3000FF90EF90DF90CF90BF90AF909F908F90EA
:101E40000895CF92DF92EF92FF920F931F93CF935B
:101E5000DF93EC016A017B012115310579F4E881FA
:101E6000F9810190F081E02D642FDF91CF911F91D6
:101E70000F91FF90EF90DF90CF9019942A303105A9
:101E8000E9F477FF1AC06DE20E94AE0E8C01442780
:101E90005527BA014C195D096E097F092AE0CE0168
:101EA0000E94CB0E800F911FDF91CF911F910F9158
:101EB000FF90EF90DF90CF9008952AE0B701A60140
:101EC000CE01DF91CF911F910F91FF90EF90DF90A6
:101ED000CF900C94CB0E9A01AB01770F660B770B6A
:101EE0000C94210F3F924F925F926F927F928F924C
:101EF0009F92AF92BF92CF92DF92EF92FF920F9399
:101F00001F93CF93DF9300D01F92CDB7DEB7290187
:101F10003A0190913802981721F09F3F09F032C39F
:101F200004C0E0E4F2E0349004C180933802E0E4BD
:101F3000F2E0E491EF3F09F425C3E23009F480C0F8
:101F400074F5EE2309F45BC0E13009F0F1C01092A2
:101F500080001092810090918100986090938100A0
:101F600090918100916090938100282F30E0F901D9
:101F7000E353FD4FE491F0E0EE0FFF1FED5EFC4FE9
:101F8000459154915093420440934104F901E9571B
:101F9000FD4FE491E093400433243394CCC0E4300B
:101FA00009F49EC00CF474C0E53009F0C1C0109271
:101FB00020011092210190912101986090932101BC
:101FC00090912101916090932101482F50E0FA01F6
:101FD000E353FD4FE491F0E0EE0FFF1FED5EFC4F89
:101FE000259134913093260420932504FA01E95772
:101FF000FD4FE491E0932404B5E03B2E9CC014BC5B
:1020000015BC94B5926094BD95B5916095BD282F8F
:1020100030E0F901E353FD4FE491F0E0EE0FFF1FD4
:10202000ED5EFC4F45915491509349044093480410
:10203000F901E957FD4FE491E0934704312C7BC04F
:102040001092B0001092B1009091B0009260909305
:10205000B0009091B10091609093B100282F30E0D2
:10206000F901E353FD4FE491F0E0EE0FFF1FED5E49
:10207000FC4F4591549150933B0440933A04F9012D
:10208000E957FD4FE491E093390452E0352E53C0F7
:10209000109290001092910090919100986090930E
:1020A000910090919100916090939100282F30E0E1
:1020B000F901E353FD4FE491F0E0EE0FFF1FED5EF9
:1020C000FC4F459154915093340440933304F901EB
:1020D000E957FD4FE491E093320423E0322E2BC008
:1020E0001092A0001092A1009091A100986090938E
:1020F000A1009091A10091609093A100282F30E061
:10210000F901E353FD4FE491F0E0EE0FFF1FED5EA8
:10211000FC4F4591549150932D0440932C04F901A8
:10212000E957FD4FE491E0932B0404E0302E03C007
:102130003E2E37FC27C28B0161E00E94E218480165
:10214000A12CB12C832D8D7F09F0BBC060E072E122
:102150008AE790E0A50194010E94081B29833A8335
:102160004B835C8369017A0121E0C21AD108E1083E
:10217000F1088FEFC816D104E104F10409F008F466
:102180004CC060E472E48FE090E0A50194010E94ED
:10219000081B69017A0191E0C91AD108E108F10828
:1021A000E2E03E1220C0FFEFCF16D104E104F104BB
:1021B00009F008F4E5C160E970ED83E090E0A50165
:1021C00094010E94081B69017A0181E0C81AD108B4
:1021D000E108F1089FEFC916D104E104F10409F008
:1021E000D0F583E067C0EFEFCE16D104E104F1042F
:1021F000B1F0A8F068E478EE81E090E0A5019401E8
:102200000E94081B69017A01F1E0CF1AD108E108A8
:10221000F108332009F45AC1AAC181E001C082E06B
:102220003320A1F047C089819A81AB81BC812AE02B
:10223000B595A795979587952A95D1F76C017D015E
:10224000F1E0CF1AD108E108F10885E095B5987F53
:10225000892B85BDA6C068E478EE81E090E0A501F9
:1022600094010E94081B69017A0181E0C81AD10813
:10227000E108F1089FEFC916D104E104F10409F067
:1022800008F422C164E274EF80E090E0A5019401BB
:102290000E94081B69017A0181E0C81AD108E1088F
:1022A000F1089FEFC916D104E104F10411F008F020
:1022B0002FC185E09091B100987F892B8093B10068
:1022C00070C060E072E18AE790E0A50194010E948D
:1022D000081B69017A01F1E0CF1AD108E108F10881
:1022E000C114D10421E0E206F10488F068E478EE3C
:1022F00081E090E0A50194010E94081B69017A0128
:1023000081E0C81AD108E108F10883E001C081E04A
:1023100091E0391210C090918100987F892B8093B1
:102320008100411451046104710409F03FC02FEF92
:102330003FEFA90171C0E3E03E120FC09091910000
:10234000987F892B8093910041145104610471049A
:1023500069F52FEF3FEFA90181C0F4E03F120FC0F4
:102360009091A100987F892B8093A1004114510482
:1023700061047104D9F42FEF3FEFA90181C025E07A
:1023800032120FC090912101987F892B80932101F7
:10239000411451046104710449F42FEF3FEFA90186
:1023A00081C0411451046104710471F0D801AA0F75
:1023B000BB1FA30192010E942D1B28EE33E040E0D9
:1023C00050E00E94E61A03C02FEF3FEFA90182E020
:1023D0003816A1F1831534F0332079F091E03916E5
:1023E000D9F0D0C0E4E03E1609F44AC03E16B4F17C
:1023F000F5E03F1609F456C0C5C0C7BC20934A0497
:1024000030934B0440934C0450934D0480916E00E4
:10241000826080936E00B6C0D0928900C09288001E
:10242000209343043093440440934504509346045E
:1024300080916F00826080936F00A4C0C092B3004F
:1024400020933C0430933D0440933E0450933F045A
:102450008091700082608093700094C0D092990047
:10246000C09298002093350430933604409337048B
:10247000509338048091710082608093710082C013
:10248000D092A900C092A80020932E0430932F046C
:1024900040933004509331048091720082608093A5
:1024A000720070C0D0922901C092280120932704A5
:1024B000309328044093290450932A048091730098
:1024C0008260809373005EC084E0F4CE2FEFC2166A
:1024D000D104E104F104D1F0C8F062E17AE780E0D0
:1024E00090E0A50194010E94081B69017A01E1E0D6
:1024F000CE1AD108E108F108FFEFCF16D104E104AC
:10250000F10411F008F08FCE84E0A0CE83E09ECEDF
:1025100062E17AE780E090E0A50194010E94081B47
:1025200069017A0181E0C81AD108E108F1089FEF3A
:10253000C916D104E104F104C1F0B8F089819A818F
:10254000AB81BC814AE0B595A795979587954A954B
:10255000D1F76C017D01E1E0CE1AD108E108F10864
:10256000332009F472CE87E0A5CE86E059CEEFEF96
:10257000CE16D104E104F10409F050F684E050CE07
:1025800082E098CE0F900F900F900F90DF91CF9137
:102590001F910F91FF90EF90DF90CF90BF90AF9081
:1025A0009F908F907F906F905F904F903F90089595
:1025B0008230A9F028F4882349F0813051F0089541
:1025C000843021F1E8F0853039F1089510926E00E1
:1025D000089580916F008D7F80936F0008958091A2
:1025E00070008D7F8093700081E08093B0008091B7
:1025F000B100887F84608093B1001092B300089589
:10260000809171008D7F8093710008958091720098
:102610008D7F809372000895809173008D7F8093E9
:1026200073000895CF93C82F809138028C1307C090
:10263000E0E4F2E0E4918FEF8093380201C0EFEF25
:102640008E2F0E94D81260E08C2FCF910C941E190F
:102650001F920F920FB60F9211240BB60F922F9369
:102660003F934F935F936F937F938F939F93AF931A
:10267000BF93EF93FF9380913C0490913D04A09110
:102680003E04B0913F04892B8A2B8B2B51F1809112
:102690003904E0913A04F0913B04908189278083CA
:1026A00080913C0490913D04A0913E04B0913F0480
:1026B000181619061A061B06C4F480913C04909162
:1026C0003D04A0913E04B0913F040197A109B109D6
:1026D00080933C0490933D04A0933E04B0933F0448
:1026E00004C0809138020E941213FF91EF91BF91B4
:1026F000AF919F918F917F916F915F914F913F919A
:102700002F910F900BBE0F900FBE0F901F9018953A
:10271000CF93DF9300D01F92CDB7DEB7611571055F
:102720008105910579F09B01AC0169833A834B8364
:102730005C830E94C01C29813A814B815C810E948C
:10274000081B03C060E070E0CB010F900F900F906A
:102750000F90DF91CF910895CF92DF92EF92FF9289
:102760000F931F93621773078407950784F48901F9
:102770009A016B017C01C901B8016C197D098E09B0
:102780009F090E9488136C0D7D1D8E1D9F1D1F913A
:102790000F91FF90EF90DF90CF9008954F925F924E
:1027A0006F927F92AF92BF92CF92DF92EF92FF92A1
:1027B0000F931F93CF93DF93CDB7DEB729013A0173
:1027C0009B01AC0124193509460957098A899B895F
:1027D000AC89BD89BC01CD016A197B098C099D09B1
:1027E0000E94D61AA80197012419350946095709EC
:1027F0000E94081BCA01B9016A0D7B1D8C1D9D1D1D
:10280000DF91CF911F910F91FF90EF90DF90CF90CC
:10281000BF90AF907F906F905F904F900895FC01B4
:10282000808191810C94E31BCF93DF93EC0188812D
:102830009981009711F00E94E31B198218821D8272
:102840001C821B821A82DF91CF9108950F931F93F0
:10285000CF93DF93EC018B016F5F7F4F888199816C
:102860000E94CD1C009731F0998388831B830A83D3
:1028700081E001C080E0DF91CF911F910F91089519
:10288000CF93DF93EC0188819981892B29F08A818C
:102890009B818617970760F4CE010E942614882337
:1028A00041F08C819D81892B19F4E881F981108296
:1028B00081E0DF91CF910895EF92FF920F931F93E4
:1028C000CF93DF93EC017B018A01BA010E9440148F
:1028D000811104C0CE010E94141407C01D830C8313
:1028E000B701888199810E94C61DCE01DF91CF91E9
:1028F0001F910F91FF90EF900895FC0111821082BB
:1029000013821282158214826115710551F0FB0148
:1029100001900020E9F73197AF01461B570B0C944B
:102920005C140895883008F070C0A82FB0E0AA0F9A
:10293000BB1FA25BBB4F11967C936E9390E0FC0192
:102940003197E730F105A0F58827EF57FF4F8F4FFC
:102950000C94271B809169008C7F482B4093690061
:10296000E89A089580916900440F551F440F551F40
:10297000837F482B40936900E99A0895809169000C
:1029800074E0440F551F7A95E1F78F7C482B4093F4
:102990006900EA9A08958091690066E0440F551F26
:1029A0006A95E1F78F73482B40936900EB9A08957D
:1029B00080916A008C7F482B40936A00EC9A0895BE
:1029C00080916A00440F551F440F551F837F482B89
:1029D00040936A00ED9A089580916A0024E0440FC4
:1029E000551F2A95E1F78F7C482B40936A00EE9A99
:1029F000089580916A0096E0440F551F9A95E1F77B
:102A00008F73482B40936A00EF9A08951F920F929C
:102A10000FB60F9211240BB60F922F933F934F9343
:102A20005F936F937F938F939F93AF93BF93EF9336
:102A3000FF938091520490915304892B29F0E091E7
:102A40005204F09153041995FF91EF91BF91AF910A
:102A50009F918F917F916F915F914F913F912F91B6
:102A60000F900BBE0F900FBE0F901F9018951F92E6
:102A70000F920FB60F9211240BB60F922F933F9324
:102A80004F935F936F937F938F939F93AF93BF9376
:102A9000EF93FF938091540490915504892B29F072
:102AA000E0915404F09155041995FF91EF91BF9175
:102AB000AF919F918F917F916F915F914F913F91D6
:102AC0002F910F900BBE0F900FBE0F901F90189577
:102AD0001F920F920FB60F9211240BB60F922F93E5
:102AE0003F934F935F936F937F938F939F93AF9396
:102AF000BF93EF93FF938091560490915704892BD5
:102B000029F0E0915604F09157041995FF91EF9147
:102B1000BF91AF919F918F917F916F915F914F91F5
:102B20003F912F910F900BBE0F900FBE0F901F90F3
:102B300018951F920F920FB60F9211240BB60F9299
:102B40002F933F934F935F936F937F938F939F93B5
:102B5000AF93BF93EF93FF938091580490915904E2
:102B6000892B29F0E0915804F09159041995FF91AF
:102B7000EF91BF91AF919F918F917F916F915F91F5
:102B80004F913F912F910F900BBE0F900FBE0F9062
:102B90001F9018951F920F920FB60F9211240BB62B
:102BA0000F922F933F934F935F936F937F938F93E6
:102BB0009F93AF93BF93EF93FF9380914E049091B7
:102BC0004F04892B29F0E0914E04F0914F041995A0
:102BD000FF91EF91BF91AF919F918F917F916F91F5
:102BE0005F914F913F912F910F900BBE0F900FBEB1
:102BF0000F901F9018951F920F920FB60F921124ED
:102C00000BB60F922F933F934F935F936F937F93E6
:102C10008F939F93AF93BF93EF93FF938091500453
:102C200090915104892B29F0E0915004F0915104C6
:102C30001995FF91EF91BF91AF919F918F917F91E6
:102C40006F915F914F913F912F910F900BBE0F901D
:102C50000FBE0F901F9018951F920F920FB60F92F4
:102C600011240BB60F922F933F934F935F936F9363
:102C70007F938F939F93AF93BF93EF93FF93809135
:102C80005A0490915B04892B29F0E0915A04F09149
:102C90005B041995FF91EF91BF91AF919F918F9137
:102CA0007F916F915F914F913F912F910F900BBE4C
:102CB0000F900FBE0F901F9018951F920F920FB696
:102CC0000F9211240BB60F922F933F934F935F9364
:102CD0006F937F938F939F93AF93BF93EF93FF93E4
:102CE00080915C0490915D04892B29F0E0915C0453
:102CF000F0915D041995FF91EF91BF91AF919F9174
:102D00008F917F916F915F914F913F912F910F9094
:102D10000BBE0F900FBE0F901F9018951F920F9231
:102D20000FB60F9211242F933F938F939F93AF93DE
:102D3000BF9380915F0490916004A0916104B09171
:102D4000620430915E0423E0230F2D3720F40196B6
:102D5000A11DB11D05C026E8230F0296A11DB11DBE
:102D600020935E0480935F0490936004A0936104B9
:102D7000B09362048091630490916404A09165040F
:102D8000B09166040196A11DB11D809363049093D8
:102D90006404A0936504B0936604BF91AF919F91C2
:102DA0008F913F912F910F900FBE0F901F9018950C
:102DB0002FB7F89460915F04709160048091610472
:102DC000909162042FBF08953FB7F89480916304F7
:102DD00090916404A0916504B091660426B5A89B07
:102DE00005C02F3F19F00196A11DB11D3FBFBA2F9D
:102DF000A92F982F8827820F911DA11DB11DBC01FD
:102E0000CD0142E0660F771F881F991F4A95D1F7C1
:102E10000895CF92DF92EF92FF92CF93DF936B01F1
:102E20007C010E94E416EB01C114D104E104F10419
:102E300089F00E944E190E94E4166C1B7D0B683EBF
:102E4000734090F381E0C81AD108E108F108C85135
:102E5000DC4FEACFDF91CF91FF90EF90DF90CF90E2
:102E600008958230910538F0880F991F880F991FB7
:102E700005970197F1F70895789484B5826084BD31
:102E800084B5816084BD85B5826085BD85B581606E
:102E900085BDEEE6F0E0808181608083E1E8F0E0CE
:102EA0001082808182608083808181608083E0E8FD
:102EB000F0E0808181608083E1EBF0E080818460DC
:102EC0008083E0EBF0E0808181608083E1E9F0E0E5
:102ED000808182608083808181608083E0E9F0E08E
:102EE000808181608083E1EAF0E08081826080837C
:102EF000808181608083E0EAF0E08081816080836E
:102F0000E1E2F1E080818260808380818160808362
:102F1000E0E2F1E0808181608083EAE7F0E0808197
:102F200084608083808182608083808181608083EF
:102F30008081806880831092C1000895863308F0F4
:102F4000865390917B00282F2870977F922B909327
:102F50007B0087702091390290E4299F9001112411
:102F6000822B80937C0080917A00806480937A0029
:102F700080917A0086FDFCCF8091780020917900C5
:102F800090E0922B08951F93CF93DF93182FEB01BE
:102F900061E00E94E218209711F460E004C0CF3F86
:102FA000D10539F461E0812FDF91CF911F910C940D
:102FB0001E19E12FF0E0EF5BFD4FE4914E2F50E042
:102FC000FA013197E231F10508F09DC08827E857F2
:102FD000FF4F8F4F0C94271B84B5806884BDC7BDFD
:102FE00097C084B5806284BDC8BD92C080918000C6
:102FF000806880938000D0938900C093880088C047
:1030000080918000806280938000D0938B00C09379
:103010008A007EC080918000886080938000D09379
:103020008D00C0938C0074C08091B0008068809344
:10303000B000C093B3006CC08091B00080628093F8
:10304000B000C093B40064C0809190008068809309
:103050009000D0939900C09398005AC0809190003E
:10306000806280939000D0939B00C0939A0050C0E0
:1030700080919000886080939000D0939D00C093D1
:103080009C0046C08091A00080688093A000809141
:10309000A0008F7B8093A000D093A900C093A800CC
:1030A00037C08091A00080628093A000D093AB00D5
:1030B000C093AA002DC08091A00088608093A000DA
:1030C000D093AD00C093AC0023C0809120018068F4
:1030D00080932001D0932901C093280119C08091C9
:1030E0002001806280932001D0932B01C0932A019C
:1030F0000FC080912001886080932001D0932D0122
:10310000C0932C0105C0C038D1050CF04BCF45CF82
:10311000DF91CF911F91089590E0FC013197E2314A
:10312000F10508F04EC08827E656FF4F8F4F0C94EC
:10313000271B809180008F7703C0809180008F7D56
:1031400080938000089580918000877FF9CF84B5B7
:103150008F7702C084B58F7D84BD08958091B000C3
:103160008F7703C08091B0008F7D8093B000089569
:10317000809190008F7707C0809190008F7D03C071
:1031800080919000877F8093900008958091A000A7
:103190008F7707C08091A0008F7D03C08091A00031
:1031A000877F8093A0000895809120018F7707C0CA
:1031B000809120018F7D03C080912001877F8093C3
:1031C00020010895CF93DF9390E0FC01E957FD4F74
:1031D0002491FC01E353FD4F8491882361F190E039
:1031E000880F991FFC01E35DFC4FC591D491FC0150
:1031F000ED5EFC4FA591B491611109C09FB7F894A1
:103200008881209582238883EC912E230BC0623025
:1032100061F49FB7F8943881822F80958323888347
:10322000EC912E2B2C939FBF06C08FB7F894E881AA
:103230002E2B28838FBFDF91CF9108951F93CF93BB
:10324000DF93282F30E0F901EF5BFD4F8491F90106
:10325000E957FD4FD491F901E353FD4FC491CC23BD
:10326000C9F0162F81110E948C18EC2FF0E0EE0FA0
:10327000FF1FED5EFC4FA591B4918FB7F89411112B
:1032800005C09C91ED2FE095E92302C0EC91ED2B58
:10329000EC938FBFDF91CF911F91089508955058FF
:1032A000BB27AA270ED0E5C0D6D030F0DBD020F067
:1032B00031F49F3F11F41EF4CBC00EF4E095E7FB10
:1032C000C1C0E92FE7D080F3BA17620773078407FC
:1032D000950718F071F49EF5FFC00EF4E0950B2EE3
:1032E000BA2FA02D0B01B90190010C01CA01A00158
:1032F0001124FF27591B99F0593F50F4503E68F1B3
:103300001A16F040A22F232F342F4427585FF3CFF3
:10331000469537952795A795F0405395C9F77EF4C4
:103320001F16BA0B620B730B840BBAF09150A1F00D
:10333000FF0FBB1F661F771F881FC2F70EC0BA0F93
:10334000621F731F841F48F4879577956795B7951B
:10335000F7959E3F08F0B3CF9395880F08F0992713
:10336000EE0F97958795089504D06894B111B5C074
:10337000089598D088F09F5790F0B92F9927B751AA
:10338000A0F0D1F0660F771F881F991F1AF0BA9529
:10339000C9F712C0B13081F09FD0B1E008959CC050
:1033A000672F782F8827B85F39F0B93FCCF386951F
:1033B00077956795B395D9F73EF49095809570957C
:1033C00061957F4F8F4F9F4F0895E89409C097FBF9
:1033D0003EF490958095709561957F4F8F4F9F4FEC
:1033E0009923A9F0F92F96E9BB279395F695879530
:1033F00077956795B795F111F8CFFAF4BB0F11F4F3
:1034000060FF1BC06F5F7F4F8F4F9F4F16C0882399
:1034100011F096E911C0772321F09EE8872F762FCF
:1034200005C0662371F096E8862F70E060E02AF010
:103430009A95660F771F881FDAF7880F96958795FC
:1034400097F9089597F99F6780E870E060E0089524
:103450009FEF80EC089500240A94161617061806AC
:103460000906089500240A94121613061406050688
:103470000895092E0394000C11F4882352F0BB0F19
:1034800040F4BF2B11F460FF04C06F5F7F4F8F4F7C
:103490009F4F089557FD9058440F551F59F05F3FB7
:1034A00071F04795880F97FB991F61F09F3F79F066
:1034B00087950895121613061406551FF2CF4695E8
:1034C000F1DF08C0161617061806991FF1CF86956A
:1034D0007105610508940895E894BB27662777274E
:1034E000CB0197F908950BD0C4CFB5DF28F0BADF30
:1034F00018F0952309F0A6CFABCF1124EECFCADF89
:10350000A0F3959FD1F3950F50E0551F629FF001F6
:10351000729FBB27F00DB11D639FAA27F00DB11D4F
:10352000AA1F649F6627B00DA11D661F829F2227D8
:10353000B00DA11D621F739FB00DA11D621F839F5F
:10354000A00D611D221F749F3327A00D611D231F35
:10355000849F600D211D822F762F6A2F11249F5783
:1035600050408AF0E1F088234AF0EE0FFF1FBB1FA6
:10357000661F771F881F91505040A9F79E3F510545
:1035800070F060CFAACF5F3FECF3983EDCF38695F6
:1035900077956795B795F795E7959F5FC1F7FE2BF0
:1035A000880F911D9695879597F90895DB018F9364
:1035B0009F930E942D1BBF91AF91A29F800D911DE3
:1035C000A39F900DB29F900D11240895A1E21A2E91
:1035D000AA1BBB1BFD010DC0AA1FBB1FEE1FFF1FB7
:1035E000A217B307E407F50720F0A21BB30BE40B07
:1035F000F50B661F771F881F991F1A9469F760954E
:103600007095809590959B01AC01BD01CF01089507
:10361000052E97FB1EF400940E941F1B57FD07D038
:103620000E94E61A07FC03D04EF40C941F1B509521
:103630004095309521953F4F4F4F5F4F089590959E
:103640008095709561957F4F8F4F9F4F0895EE0F36
:10365000FF1F0590F491E02D19940E943C1BA59F3B
:10366000900DB49F900DA49F800D911D112408957D
:103670000790F691E02D1994A29FB001B39FC0016D
:10368000A39F700D811D1124911DB29F700D811D8E
:103690001124911D0895CF93DF938230910510F48A
:1036A00082E090E0E0916904F0916A0420E030E06B
:1036B000A0E0B0E0309739F14081518148175907B7
:1036C000B8F04817590771F482819381109729F057
:1036D00013969C938E9312972CC090936A048093B8
:1036E000690427C02115310531F04217530718F03E
:1036F000A901DB0101C0EF019A01BD01DF010280D8
:10370000F381E02DD7CF21153105F9F0281B390BB6
:103710002430310580F48A819B816115710521F087
:10372000FB019383828304C090936A0480936904AD
:10373000FE01329644C0FE01E20FF31F8193919384
:1037400022503109398328833AC02091670430918F
:103750006804232B41F4209102023091030230933C
:103760006804209367042091000230910102211522
:10377000310541F42DB73EB7409104025091050246
:10378000241B350BE0916704F0916804E217F307FE
:10379000A0F42E1B3F0B2817390778F0AC014E5FC1
:1037A0005F4F2417350748F04E0F5F1F5093680492
:1037B000409367048193919302C0E0E0F0E0CF0171
:1037C000DF91CF910895CF93DF93009709F487C0DD
:1037D000FC01329713821282C0916904D0916A046D
:1037E000209781F420813181280F391F809167044F
:1037F000909168048217930779F5F0936804E09339
:1038000067046DC0DE0120E030E0AE17BF0750F462
:1038100012964D915C9113979D014115510509F147
:10382000DA01F3CFB383A28340815181840F951FC6
:103830008A179B0771F48D919C911197840F951FA6
:1038400002969183808312968D919C911397938316
:1038500082832115310529F4F0936A04E093690409
:103860003EC0D9011396FC93EE9312974D915D9152
:10387000A40FB51FEA17FB0779F480819181840FAB
:10388000951F0296D90111969C938E938281938104
:1038900013969C938E931297E0E0F0E08A819B81CF
:1038A000009719F0FE01EC01F9CFCE0102962881B4
:1038B0003981820F931F2091670430916804281783
:1038C000390769F4309729F410926A041092690458
:1038D00002C013821282D0936804C0936704DF9100
:1038E000CF9108958F929F92AF92BF92CF92DF9225
:1038F000EF92FF92CF93DF93EC01688179818A8107
:103900009B81611571058105910521F464E279EDD2
:103910008BE597E02DE133EF41E050E00E94081B7A
:1039200049015A019B01AC01A7EAB1E40E942D1B99
:103930006B017C01ACEEB4EFA50194010E94D01D97
:10394000C60ED71EE81EF91EF7FE06C081E0C81A93
:10395000D108E10880E8F80AC882D982EA82FB82AD
:10396000C701B6019F77DF91CF91FF90EF90DF9075
:10397000CF90BF90AF909F908F9008950C94721C41
:1039800086E092E00C94721C60930602709307022A
:10399000809308029093090208956F927F928F920C
:1039A0009F92AF92BF92CF92DF92EF92FF920F93CE
:1039B0001F93CF93DF93EC01CB01209781F4DF912C
:1039C000CF911F910F91FF90EF90DF90CF90BF901C
:1039D000AF909F908F907F906F900C944B1BFE0147
:1039E000E60FF71F9E0122503109E217F30708F492
:1039F000ACC0D9010D911C91119706171707B8F0AB
:103A00000530110508F49FC0A8014450510946171C
:103A1000570708F498C002501109061B170B0193B1
:103A200011936D937C93CF010E94E31B8CC05B01CB
:103A3000A01AB10A4E01800E911EA0916904B091A6
:103A40006A04612C712C60E070E0109709F449C0A1
:103A5000A815B905C9F5ED90FC901197670142E0F2
:103A6000C40ED11CCA14DB0478F147018A189B08E4
:103A7000640142E0C40ED11C1296BC9012971396BA
:103A8000AC91B5E0CB16D10440F0B282A383918211
:103A90008082D9018D939C9309C00E5F1F4F0E0D3C
:103AA0001F1DF90111830083EB2DFA2F611571059C
:103AB00031F0DB011396FC93EE93129744C0F09320
:103AC0006A04E09369043FC06D917C91119766167A
:103AD000770608F43B01BD0112960D90BC91A02D14
:103AE000B4CF609167047091680468157905E9F4B2
:103AF00068167906D0F440910002509101024115F8
:103B0000510541F44DB75EB7609104027091050212
:103B1000461B570BE417F507C0F4F0936804E093D5
:103B20006704F901918380830EC00E944B1B7C01C6
:103B3000009759F0A801BE010E94B61DCE010E9457
:103B4000E31BC70104C0CE0102C080E090E0DF911A
:103B5000CF911F910F91FF90EF90DF90CF90BF908A
:103B6000AF909F908F907F906F900895FB01DC0144
:103B700002C001900D9241505040D8F70895DC01E9
:103B800001C06D9341505040E0F70895FB01DC0106
:103B900001900D920020E1F70895B7FF0C942D1BC2
:103BA0000E942D1B821B930B089513E0CCE4D3E0FD
:103BB00000E006C022970109FE010BBF0E94381BDE
:0E3BC000CE34D10780E00807A9F7F894FFCFB4
:103BCE0000006B04800001000000204E0000204E1B
:103BDE000000E8030000E803000001001400D00715
:103BEE00000001007800140001009A99593F3D0031
:103BFE003C003B003A009001FF0153544F500054DB
:103C0E0055524E204C454654005455524E20524962
:103C1E00474854002D2D2D2D002D2D2D78002D2DA6
:103C2E00782D002D2D7878002D782D2D002D782DC6
:103C3E0078002D78782D002D78787800782D2D2D20
:103C4E0000782D2D7800782D782D00782D7878003D
:103C5E0078782D2D0078782D78007878782D00786A
:103C6E007878780009007265736574696E67206CE8
:103C7E0065647300524F424F543A20474F00524FE3
:103C8E00424F543A20444F574E4C4F4144494E47B1
:103C9E0000524F424F543A2057414954494E470023
:103CAE00000000005A0C610E000000000E0D610EA7
:103CBE00600C7A0C6C0CEC0C0D0A006E616E0069D7
:0A3CCE006E66006F7666002E00009F
:00000001FF
