:100000000C9465000C948D000C948D000C948D0064
:100010000C948D000C948D000C948D000C948D002C
:100020000C948D000C948D000C948D000C948D001C
:100030000C948D000C948D000C948D000C948D000C
:100040000C943C130C948D000C94BE010C949801FC
:100050000C948D000C948D000C948D000C948D00EC
:100060000C94EB0C0C948D007C3C3E5E2B3D3F2FA2
:100070005B5D3B2C2A225C000000000800020100AE
:100080000003040700000000000000000000000062
:10009000250028002B0000000000240027002A0073
:1000A000040404040404040402020202020203031E
:1000B0000303030301020408102040800102040826
:1000C00010200102040810208C1911241FBECFEF4C
:1000D000D8E0DEBFCDBF25E0A0ECB1E001C01D92AD
:1000E000A438B207E1F711E0A0E0B1E0E2E4F9E3FF
:1000F00002C005900D92A03CB107D9F710E0C5E60B
:10010000D0E004C02197FE010E94661AC436D107D0
:10011000C9F70E9477140C949F1C0C940000FC01FA
:10012000918D828D981761F0828DDF01A80FB11D2E
:100130005D968C91928D9F5F9F73928F90E0089552
:100140008FEF9FEF0895FC01918D828D981731F00C
:10015000828DE80FF11D858D90E008958FEF9FEF60
:100160000895FC01918D228D892F90E0805C9F4F36
:10017000821B91098F739927089581E894E00E946A
:10018000B10021E0892B09F420E0822F0895FC01C1
:10019000848DDF01A80FB11DA35ABF4F2C91848D10
:1001A00090E001968F739927848FA689B7892C9345
:1001B000A089B1898C9180648C93938D848D9813E0
:1001C00006C00288F389E02D80818F7D80830895A9
:1001D000EF92FF920F931F93CF93DF93EC0181E097
:1001E000888F9B8D8C8D981305C0E889F989808153
:1001F00085FD24C0F62E0B8D10E00F5F1F4F0F738F
:100200001127E02E8C8DE8120CC00FB607FCFACF38
:10021000E889F989808185FFF5CFCE010E94C7006A
:10022000F1CF8B8DFE01E80FF11DE35AFF4FF082F5
:100230000B8FEA89FB898081806207C0EE89FF8984
:100240006083E889F98980818064808381E090E01F
:10025000DF91CF911F910F91FF90EF900895CF9371
:10026000DF93EC01888D8823C9F0EA89FB898081BE
:1002700085FD05C0A889B9898C9186FD0FC00FB690
:1002800007FCF5CF808185FFF2CFA889B9898C91D1
:1002900085FFEDCFCE010E94C700E7CFDF91CF9160
:1002A000089580E090E0892B29F00E94BD00811123
:1002B0000C94000008950E94631C8091C40188235F
:1002C000A9F14091000150910101609102017091EA
:1002D000030125E332E080913504909136040E94B9
:1002E000800C811102C080E008954091C5015091B9
:1002F000C6016091C7017091C801411551056105A2
:10030000710591F025E332E0809135049091360437
:100310000E94800C882339F31092C5011092C60107
:100320001092C7011092C8011092C40181E0089593
:100330001F920F920FB60F9211242F933F934F935A
:100340005F936F937F938F939F93AF93BF93EF933D
:10035000FF9381E894E00E94C700FF91EF91BF9165
:10036000AF919F918F917F916F915F914F913F914D
:100370002F910F900FBE0F901F9018951F920F9204
:100380000FB60F9211242F938F939F93EF93FF93A8
:10039000E0919104F09192048081E0919704F091B2
:1003A000980482FD12C0908180919A048F5F8F73B0
:1003B00020919B04821751F0E0919A04F0E0EF57EE
:1003C000FB4F958F80939A0401C08081FF91EF913C
:1003D0009F918F912F910F900FBE0F901F901895A6
:1003E0008F929F92AF92BF92EF92FF920F931F93C3
:1003F000CF934B015C01C42F8091000190910101CA
:10040000A0910201B091030188159905AA05BB05C9
:1004100001F10E945D01811102C080E020C085E3EE
:10042000E82E82E0F82E00E012E020E030E0B50196
:10043000A40180913504909136040E94EC0B88232E
:1004400061F38092000190920101A0920201B092AA
:1004500003018091C401C82BC093C40181E0CF91F6
:100460001F910F91FF90EF90BF90AF909F908F9052
:1004700008954F925F926F927F928F929F92AF9268
:10048000BF92CF92DF92EF92FF920F931F93CF9381
:10049000DF93EC016A017B012801390142305105EB
:1004A0006105710510F480E073C089859A85AB857C
:1004B000BC850196A11DB11D84179507A607B70736
:1004C00090F38B889C88AD88BE888F89803129F411
:1004D000BB27AF2D9E2D8D2D09C0DB01CA0147E042
:1004E000B695A795979587954A95D1F7880E991E49
:1004F000AA1EBB1E8091000190910101A0910201F2
:10050000B091030188169906AA06BB0679F48F8973
:100510008031A1F4DD24EE24FF24C601880F991F49
:10052000FC01EB5CFD4F5182408219C040E0C501E7
:10053000B4010E94F0018111EACFB5CFE894C7F869
:10054000DD24EE24FF24C601880F991F880F991F10
:10055000FC01EB5CFD4F408251826282738280918C
:10056000C40181608093C4018A89823080F08D81CA
:100570009E81AF81B885880E991EAA1EBB1E8092EF
:10058000C5019092C601A092C701B092C80181E056
:10059000DF91CF911F910F91FF90EF90DF90CF905F
:1005A000BF90AF909F908F907F906F905F904F9093
:1005B00008958F929F92AF92BF92CF92DF92EF9267
:1005C000FF920F931F93CF93DF93FC018185928558
:1005D000A385B4850196A11DB11D84179507A607B3
:1005E000B70710F480E05CC083899489A589B68937
:1005F000C789C03129F4852E962EA72EBB2409C0A9
:100600004A015B01C7E0B694A79497948794CA9572
:10061000D1F7E9016A017B018F01BC01CD01680DB1
:10062000791D8A1D9B1D8090000190900101A09072
:100630000201B0900301681579058A059B0599F4BC
:10064000F80187898031A9F4B701A60155276627EB
:100650007727440F551FFA01EB5CFD4F8081918194
:10066000A0E0B0E018C040E00E94F0018111E8CFA6
:10067000B9CFB701A6014F77552766277727440FD3
:10068000551F440F551FFA01EB5CFD4F808191818E
:10069000A281B381BF7088839983AA83BB8381E0E1
:1006A000DF91CF911F910F91FF90EF90DF90CF904E
:1006B000BF90AF909F908F9008954F925F926F92EE
:1006C0007F92AF92BF92CF92DF92EF92FF920F9301
:1006D0001F93CF93DF9300D000D0CDB7DEB78C014E
:1006E00049835A836B837C835901C12CD12C7601B9
:1006F000412C82E0582E612C712C49815A816B81EA
:100700007C819E012F5F3F4FC8010E94D902882340
:1007100051F1D301C201F801058404C0880F991F6B
:10072000AA1FBB1F0A94D2F7C80ED91EEA1EFB1ED1
:1007300049815A816B817C818789803129F088EFDA
:100740009FEFAFEFBFE004C088EF9FEFA0E0B0E005
:10075000481759076A077B0780F2F501C082D182EA
:10076000E282F38281E00F900F900F900F90DF9163
:10077000CF911F910F91FF90EF90DF90CF90BF909E
:10078000AF907F906F905F904F9008953F924F92FF
:100790005F926F927F928F929F92AF92BF92CF9211
:1007A000DF92EF92FF920F931F93CF93DF93CDB71A
:1007B000DEB72C970FB6F894DEBF0FBECDBF5C013D
:1007C000DC015B968D909C905C971696CD90DD90A9
:1007D000ED90FC901997C114D104E104F10439F0B3
:1007E000BFEFCB1ADB0AEB0AFB0A312C07C0F4017E
:1007F000C080D180E280F38033243394F40181857A
:100800009285A385B4859C01AD012F5F3F4F4F4F6B
:100810005F4F29873A874B875C87260137011D8206
:100820001E821F821886F40181859285A385B48576
:100830002D813E814F815885281739074A075B076C
:1008400008F063C089859A85AB85BC858C159D05AC
:10085000AE05BF0550F482E0C82ED12CE12CF12C5E
:1008600092E0492E512C612C712C9E012F5F3F4F3D
:10087000B701A601C4010E94D902882309F445C02A
:1008800089819A81AB81BC81892B8A2B8B2B41F08A
:10089000260137019FEF491A590A690A790A05C0EA
:1008A000C414D504E604F70491F02D813E814F81F4
:1008B00058852F5F3F4F4F4F5F4F2D833E834F83B0
:1008C00058873FEFC31AD30AE30AF30AACCF0FEFFE
:1008D0001FEF2FEF3FE0B301A201C4010E943902D4
:1008E000882399F0D50116964D915D916D917C917B
:1008F0001997411551056105710549F09301820170
:10090000C4010E943902811102C080E02AC0D501D1
:1009100016964D925D926D927C921997332051F00C
:10092000D301C2010196A11DB11DF4018083918301
:10093000A283B383F5018789908DA18DB28D892B18
:100940008A2B8B2B69F4D50157964D925D926D924F
:100950007C925A9714968C911497806814968C9375
:1009600081E02C960FB6F894DEBF0FBECDBFDF91AD
:10097000CF911F910F91FF90EF90DF90CF90BF909C
:10098000AF909F908F907F906F905F904F903F902F
:100990000895CF93DF93EC018D818823A1F18C81A1
:1009A00087FF2DC06E857F858889998941E00E94E7
:1009B000F001882341F1EA8980E2E89FF0011124E7
:1009C000DF01AB5CBD4F1097F1F08D81823050F4A8
:1009D0004B895C896D897E895C964D935D936D939F
:1009E0007C935F978F89988DA98DBA8DEB5CFD4FB5
:1009F000938F828FB58BA48B8C818F778C83DF91C3
:100A0000CF910C945D0180E0DF91CF9108958F929A
:100A10009F92AF92BF92CF92DF92EF92FF920F938D
:100A20001F93CF93DF93EC018D81811102C080E091
:100A300077C00B891C892D893E8904171507260765
:100A40003707A8F36A017B01823029F4CA86DB8666
:100A5000EC86FD860DC0C114D104E104F10451F40B
:100A60001E821F82188619861A861B861C861D8682
:100A700081E056C08A849B84AC84BD84EB8DFC8D60
:100A8000258530E0275F3F4FB501A4014150510952
:100A900061097109022E04C07695679557954795AF
:100AA0000A94D2F7D701C6010197A109B10904C080
:100AB000B695A795979587952A95D2F784179507A8
:100AC000A607B70720F089288A288B2849F44F8980
:100AD000588D698D7A8D4E835F836887798704C0CE
:100AE000841B950BA60BB70B4C015D018E010A5FB1
:100AF0001F4F81149104A104B10409F4A7CF4E81C2
:100B00005F816885798598018B8D9C8D0E94D902C3
:100B100091E0891A9108A108B1088111EACF87CF25
:100B2000DF91CF911F910F91FF90EF90DF90CF90C9
:100B3000BF90AF909F908F9008952F923F924F92C9
:100B40005F926F927F928F929F92AF92BF92CF925D
:100B5000DF92EF92FF920F931F93CF93DF9300D01A
:100B600000D0CDB7DEB78C015B011A01DC01159610
:100B70008C9115978130C9F414968C9181FF15C022
:100B800082FF1BC0F8014389548965897689828573
:100B90009385A485B58584179507A607B70769F0DF
:100BA000C8010E940705811108C081E090E0F801AA
:100BB0009383828380E090E039C1610183C0D801D2
:100BC0005B968D919C915C97FC01248121502A01B8
:100BD0003B0139E076946794579447943A95D1F75E
:100BE000722E74207A01F1E0FF22772009F476C09A
:100BF00080E092E08E199F0946018C159D0508F44E
:100C00004C01D8015B962D913C915C9716968D9185
:100C10009D910D90BC91A02D0297A109B109F901F8
:100C2000058404C0880F991FAA1FBB1F0A94D2F71E
:100C30004685578560897189840F951FA61FB71F48
:100C40009C01AD01270D311D411D511D29013A01A6
:100C5000811432E0930609F088C0809100019091E0
:100C60000101A0910201B091030184159505A6052B
:100C7000B70559F48FEF9FEFDC018093000190934B
:100C80000101A0930201B09303019501B301A201F8
:100C900080913504909136040E94800C882309F4D9
:100CA00084CF9EEFB91AC818D908F80182859385B8
:100CB000A485B585880D991DA11DB11D82879387D7
:100CC000A487B587D8011A964D915D916D917C915D
:100CD0001D97C114D10409F072CF87C0E114F1044B
:100CE00009F086CF16964D915D916D917C91199783
:100CF000411551056105710559F457968D919D91E6
:100D00000D90BC91A02D0097A105B10541F521C022
:100D10009E012F5F3F4F0E94D902882309F44BCFD9
:100D200089819A81AB81BC81F801238D348DF901D1
:100D30002789203129F048EF5FEF6FEF7FE004C093
:100D400048EF5FEF60E070E084179507A607B707EC
:100D500030F0C8010E94C60381114ACF26CFF801A6
:100D600086839783A087B18743CFE114F10429F5E7
:100D7000D8011A964D915D916D917C911D97539676
:100D80008D919D910D90BC91A02D481759076A0730
:100D90007B0798F00E945D01882309F406CF4092FA
:100DA0000001509201016092020170920301809152
:100DB000C40181608093C40108C041E0C301B20155
:100DC0000E94F001882309F4F0CED501F701EB5C15
:100DD000FD4FCF01880D991DE817F90719F02D91E6
:100DE0002193FACFA80CB91C5ECF53968D919D919B
:100DF0000D90BC91A02D84179507A607B70740F466
:100E0000F801438B548B658B768B84818068848357
:100E1000D80114968C9183FD02C0C10107C0C8019E
:100E20000E94C904882309F4C0CEF7CF0F900F9019
:100E30000F900F90DF91CF911F910F91FF90EF9046
:100E4000DF90CF90BF90AF909F908F907F906F90EA
:100E50005F904F903F902F900895CF93DF931F9214
:100E6000CDB7DEB7698341E050E0BE016F5F7F4FD1
:100E70000E949D050F90DF91CF9108958F929F92D0
:100E8000AF92BF92CF92DF92EF92FF920F931F9398
:100E9000CF93DF9300D000D0CDB7DEB77C0180E2E6
:100EA000689F6001112496012B5C3D4FD9011B9670
:100EB0009C91917121F0842F827409F097C0142FB6
:100EC000F701628B8091000190910101A0910201D4
:100ED000B091030186879787A08BB18BF601EB5CFD
:100EE000FD4F4489558960E070E0BA0155274427D9
:100EF000D70157964D935D936D937C935A97828D4E
:100F0000938DA0E0B0E0482B592B6A2B7B2BD701A7
:100F100057964D935D936D937C935A97D9011B9689
:100F20008C91887159F4848D958DA68DB78DF701BC
:100F3000838B948BA58BB68B81E012C0803109F036
:100F400055C097012D5E3F4FD7015B968D919C91C7
:100F50005C970E945D03882309F448C084E0F70190
:100F60008583812F8F70D70114968C931497F70186
:100F700016821782108611861A961D921D921D9256
:100F80001C921D9716FF34C015968C91813071F517
:100F900011FF2CC0F7014389548965897689452B57
:100FA000462B472B09F461C040E050E0BA01C7016D
:100FB0000E9407058823D1F0F7018788908CA18CC7
:100FC000B28CC38CD48C82E090E0A0E0B0E0F6015B
:100FD00080839183A283B3839E012F5F3F4FB5012E
:100FE000A401C6010E94D902811104C080E03DC065
:100FF00081E03BC000E010E09801B501A401C6010A
:101000000E943902882391F389809A80AB80BC804A
:10101000D60157968C91803129F088EF9FEFAFEF82
:10102000BFE004C088EF9FEFA0E0B0E0881699060B
:10103000AA06BB0688F2D70157961D921D921D92F3
:101040001C925A97F701138A148A158A168A84818A
:1010500080688483C7010E94C904882339F240E074
:1010600050E0BA01C7010E9407050F900F900F9042
:101070000F90DF91CF911F910F91FF90EF90DF9034
:10108000CF90BF90AF909F908F9008954F925F92B6
:101090006F927F92AF92BF92CF92DF92EF92FF92C8
:1010A0000F931F93CF93DF93CDB7DEB72B970FB678
:1010B000F894DEBF0FBECDBF7C01CE0101966C015E
:1010C000FC0190E28BE08C0D91938E13FDCFDA0141
:1010D00030E047E09D91992339F19E3219F0E8E61E
:1010E000F0E00AC04A3009F472C138E04AE0F2CFB9
:1010F0003196891709F46BC184918111F9CF431797
:1011000008F465C18FED890F8E3508F060C181E06C
:10111000830FF601E30FF11D3FE9390F3A3108F46F
:1011200090529083382FD6CF8981803209F44FC1F5
:10113000B22E8B01DB015B968D919C915C97F70140
:10114000948F838F16961D921D921D921C92199753
:10115000FB011286138614861586712CF801828590
:101160009385A485B58543895489658976898417D3
:101170009507A607B70708F061C025E0B695A795C3
:10118000979587952A95D1F7F82FFF706F2ED80184
:1011900015968C91823008F41AC1C8010E949F0EE6
:1011A00097FD15C1F80182859385A485B5854F9675
:1011B000A11DB11D82879387A487B587F0E26F9E3A
:1011C000C0011124BC016B5C7D4F6115710509F4F0
:1011D000FEC0DB012C91222319F0253EC1F427C06B
:1011E00071100EC0F701628A409100015091010117
:1011F000609102017091030146875787608B718B64
:10120000FC01EB5CFD4F8081811113C015C04BE0E8
:1012100050E0C6010E94681C892B09F09FCF8B2DDE
:101220008073803309F4D3C04B2D662DCCC077205A
:10123000C9F27724739492CF772473948B2D8271A3
:10124000823109F0C4C07720D1F0D7011E966D918C
:101250007D918D919C91519741E00E94F0018823EE
:1012600009F4B5C0F7016289F0E26F9FB001112463
:101270006B5C7D4F6115710509F079C0A8C0D8017C
:1012800015968C91823009F4A2C0C8010E94C60351
:10129000882309F49CC0D8015B96ED91FC915C9782
:1012A00016964D905D906D907C901997B2E04B1A18
:1012B000510861087108058404C0440C551C661C63
:1012C000771C0A94D2F786859785A089B189480E44
:1012D000591E6A1E7B1EA480E1E04E1A5108610867
:1012E0007108AA2009F10E945D01882309F46FC0EA
:1012F000E5E3F2E0119224E0E533F207D9F7D301F8
:10130000C2018A0D911DA11DB11D80930001909312
:101310000101A0930201B09303018091C401816097
:101320008093C401AA94DDCFD8015B96ED91FC9126
:101330005C9780E092E0A0E0B0E0058404C0880FF4
:10134000991FAA1FBB1F0A94D2F7F8014389548939
:1013500065897689840F951FA61FB71F838B948B91
:10136000A58BB68BD70152961C9265E372E080E2A2
:10137000FB0111928A95E9F78BE0F601DB01019000
:101380000D928A95E1F781E298E2DB0151969C93F8
:101390008E93509720E038E01F963C932E931E9733
:1013A00053969C938E93529759969C938E935897ED
:1013B00057963C932E9356970E945D01882339F0EF
:1013C0004B2DF7016289C7010E943E0701C080E0F2
:1013D0002B960FB6F894DEBF0FBECDBFDF91CF9135
:1013E0001F910F91FF90EF90DF90CF90BF90AF9043
:1013F0007F906F905F904F900895CF93DF93EC01B3
:101400000E94C904882311F01D8281E0DF91CF91F1
:10141000089585ED8093BC008091BC0084FDFCCFD5
:1014200010925D0408954091EB01262F30E0240FC7
:10143000311D21323105DCF420915D042430C9F4E2
:10144000FC0180E090E0861758F43091EB01219187
:10145000DC01A753BE4FA30FB11D2C930196F3CF10
:101460008091EB01680F6093EB0180E0089581E0CB
:10147000089582E00895DC015996ED91FC915A9708
:101480003097B9F083899489A589B68942855385B7
:1014900064857585841B950BA60BB70B811520E819
:1014A0009207A105B10538F08FEF9FE7A0E0B0E00B
:1014B000089580E090E00895CF93DF931F92CDB719
:1014C000DEB76983DC01ED91FC910280F381E02DB0
:1014D00041E050E0BE016F5F7F4F09950F90DF91B3
:1014E000CF9108950895E091140280911302E817B6
:1014F00030F4F0E0EB5EFD4F808190E008958FEFD7
:101500009FEF08959091140280911302981750F460
:10151000E92FF0E0EB5EFD4F208130E09F5F90937C
:10152000140202C02FEF3FEFC9010895809113020A
:1015300090E020911402821B91090895CF92DF92CE
:10154000EF92FF920F931F93CF93DF937C01262F8F
:10155000972F8A0180915E04882391F0C62FD72FA0
:101560006E01C40ED51ECC15DD0571F06991D70151
:10157000ED91FC910190F081E02DC7010995F3CF29
:10158000642F822F0E94130AC801DF91CF911F910F
:101590000F91FF90EF90DF90CF900895CF93DF935E
:1015A0001F92CDB7DEB7698320915E042223D1F06C
:1015B00020918004203240F021E030E0FC013383B0
:1015C000228380E090E015C080915F04E82FF0E076
:1015D000E05AFB4F998190838F5F80935F048093E3
:1015E000800405C061E0CE0101960E94130A81E0EB
:1015F00090E00F90DF91CF910895FC01818D928D45
:10160000009711F00C94C9040895CF93DF93EC0177
:10161000898D9A8D009739F481E090E09B838A83CD
:1016200080E090E00BC0FC01138212820E949D05B5
:10163000E98DFA8D22813381232B71F7DF91CF91D0
:1016400008958FB7F894809111028FBF089561E0DB
:10165000FC0184810E94BF128091100281111092BE
:10166000100208958EBD00000DB407FEFDCF8EB5AB
:1016700008958FEF0C94320B0F931F93CF93DF934A
:10168000EB010E9430138B010E94390B8F3F49F010
:101690000E943013601B710B6C177D07A8F380E06C
:1016A00001C081E0DF91CF911F910F910895CF93F9
:1016B000DF93EC018E81882389F08F8198859C01CE
:1016C0002F5F3F4F38872F838230924018F40E945B
:1016D000390BF3CFCE010E94270B1E82DF91CF91F1
:1016E00008958CBD9DBD0895CF93DF93EC0180914B
:1016F0001002811109C081E08093100280911E05C3
:1017000090911F050E94710B60E08C81DF91CF9159
:101710000C94BF12CF92DF92FF920F931F93CF933F
:10172000DF9300D000D0CDB7DEB76C01F62E298351
:101730003A834B835C830E94570BC6010E94740B53
:101740006CE271E0C6010E943C0B8F2D80640E9408
:10175000320B08E110E05C814B813A812981DA018A
:10176000C901002E04C0B695A795979587950A9450
:10177000D2F729833A834B835C830E94320B085053
:10178000110929813A814B815C81083F8FEF18074D
:1017900031F7FF2029F0E8E0FE1204C087E803C01B
:1017A00085E901C08FEF0E94320B10E00E94390BD7
:1017B000F601828787FF04C01F3F11F01F5FF6CF3D
:1017C0000F900F900F900F90DF91CF911F910F917D
:1017D000FF90DF90CF900895AF92BF92CF92DF92AB
:1017E000EF92FF920F931F93CF93DF93EC01690168
:1017F000C801820F931F8130924008F070C08E8123
:10180000882371F088819981AA81BB814817590783
:101810006A077B0729F48F819885C816D906B0F529
:10182000488359836A837B838B85833039F089E0D1
:10183000440F551F661F771F8A95D1F79A01AB0198
:1018400061E1CE010E948A0B882319F083E08D8329
:1018500046C00E9430135B010E94390B8A878F3F7C
:1018600049F40E9430136A197B096D327140A0F36C
:101870008FE003C08E3F31F08DE08D83CE010E945A
:10188000270B2DC018861F8281E08E838F8198855B
:101890008C159D0540F40E94390B8F819885019627
:1018A00098878F83F3CF6701E00EF11ECE14DF041B
:1018B00031F00E94390BF60181936F01F7CF8F81D0
:1018C0009885080F191F18870F838985882319F0B9
:1018D0000115124048F0CE010E94570B05C0CE0101
:1018E0000E94270B80E001C081E0DF91CF911F9122
:1018F0000F91FF90EF90DF90CF90BF90AF90089541
:10190000EF92FF920F931F93CF93DF93EC01790136
:10191000411551056105710511F482E13CC08B85CB
:10192000833039F089E0440F551F661F771F8A9571
:10193000D1F79A01AB0168E1CE010E948A0B88239E
:1019400011F084E028C08EEF0E94320B87018EEFE9
:10195000F81AF80181918F010E94320B0E151F05B4
:10196000C1F78FEF0E94320B8FEF0E94320B0E9463
:10197000390B8A878F71853031F081E18D83CE01FB
:101980000E94270B09C068E572E0CE010E943C0B63
:10199000811107C085E18D83CE010E94270B80E075
:1019A00013C020E030E0A9016DE0CE010E948A0B57
:1019B000811104C00E94390B882311F084E1EBCF20
:1019C000CE010E94270B81E0DF91CF911F910F91F3
:1019D000FF90EF9008951F920F920FB60F9211246F
:1019E0002F933F934F935F936F937F938F939F9327
:1019F000AF93BF93EF93FF938091B900887F8036B8
:101A000009F49CC068F5883209F45BC090F4803119
:101A100009F454C038F4882309F4F6C0883009F476
:101A20004DC0F6C0883109F44CC0803209F45DC065
:101A3000EFC0803409F468C048F4803309F455C01D
:101A4000883309F0E5C080935B04D8C0803509F481
:101A50004FC0883509F45DC0883409F0D9C0D6C0BC
:101A6000883909F4C7C0A8F4883709F467C038F486
:101A7000883609F463C0803709F460C0C9C088386B
:101A800009F4B8C0803909F45FC0803809F0C0C0DB
:101A90005BC0803B09F486C038F4803A09F466C024
:101AA000883A09F47FC0B4C0803C09F4A7C0883CE0
:101AB00009F4A4C0883B09F48AC0AAC08091380404
:101AC00010C090915A0480915904981770F5E091D4
:101AD0005A0481E08E0F80935A04F0E0E75CFB4FDC
:101AE00080818093BB0085EC86C080935B048EC0B0
:101AF000E0915A0481E08E0F80935A048091BB00DC
:101B0000F0E0E75CFB4F808390915A048091590488
:101B10006EC0E0915A0481E08E0F80935A04809148
:101B2000BB00F0E0E75CFB4F808380915C04811197
:101B30006DC081E08093370484EA61C083E08093C4
:101B40005D0410920F02CFCF80910F02803208F017
:101B500051C0E0910F0281E08E0F80930F028091BF
:101B6000BB00F0E0E151FE4F8083BDCF85EC809358
:101B7000BC0010925D0480910F02803230F4E0913D
:101B80000F02F0E0E151FE4F108260910F0270E011
:101B9000E091ED01F091EE018FEE91E00995109248
:101BA0000F0236C084E080935D041092EC01109225
:101BB000EB01E091E901F091EA0109958091EB01D7
:101BC000811105C081E08093EB011092C901E09181
:101BD000EC0181E08E0F8093EC01F0E0E753FE4FC3
:101BE00080818093BB009091EC018091EB0198176C
:101BF00008F479CF85E88093BC000AC085EC809317
:101C0000BC0010925D0404C010925B040E94090A9B
:101C1000FF91EF91BF91AF919F918F917F916F91C4
:101C20005F914F913F912F910F900FBE0F901F909A
:101C30001895FC01DB0112968D919C91139793836B
:101C400082838FE291E09183808314968C91149724
:101C5000848315968C911597858316964D915D9189
:101C60006D917C91199746835783608771871A9687
:101C70004D915D916D917C911D974287538764874B
:101C800075871E964D915D916D917C915197468718
:101C90005787608B718B52968C915297828B53969B
:101CA0004D915D916D917C915697438B548B658BD3
:101CB000768B57964D915D916D917C915A97478B9C
:101CC000508F618F728F5B968D919C915C97948FF2
:101CD000838F0895EF92FF920F931F93CF93DF931B
:101CE000EC017B018A011B821A8288EE93E0A0E05E
:101CF000B0E08C839D83AE83BF838FE091E09983B6
:101D000088838DE190E00E946C1A9A8F898F0097EA
:101D100079F02DE1F701DC0101900D922A95E1F7B0
:101D20004CE050E0B801CE010C960E94901C188E39
:101D3000DF91CF911F910F91FF90EF9008952F9217
:101D40003F924F925F926F927F928F929F92AF924B
:101D5000BF92CF92DF92EF92FF920F931F93CF9398
:101D6000DF9300D0CDB7DEB7FC018581882309F46D
:101D7000D9C0848180FFD6C021E02A834389548959
:101D80006589768982859385A485B5854817590725
:101D90006A077B0709F41A826F013A81832F90E06A
:101DA000DE0111964D013F01B6E06B0E711C892BCF
:101DB00009F47DC0D6011A964D915D916D917C918B
:101DC0001D975A01B1E0BB22F60125811A012B01B2
:101DD00089E056944794379427948A95D1F7838D58
:101DE000948D223061F4FC01828D938DA48DB58D8C
:101DF000BC01CD01620D731D841D951D45C0DC0124
:101E000014961C9111501221A114B104D1F4111196
:101E100018C0452B462B472B51F4F6018789908D2E
:101E2000A18DB28D86839783A087B1870AC0468132
:101E300057816085718593010E94D902882309F436
:101E400071C0F601238D348D86819781A085B1857F
:101E50000297A109B109AC01BD01F901058404C0D3
:101E6000440F551F661F771F0A94D2F78685978502
:101E7000A089B189840F951FA61FB71FBC01CD0192
:101E8000610F711D811D911DD60114962C9126FFA5
:101E900014C00091000110910101209102013091C4
:101EA0000301601771078207930751F506C0FA8195
:101EB000FF23C1F1898190E037C040E00E94F0012A
:101EC000882381F1F501EB5CFD4FD401CF01019630
:101ED000E817F90719F021912D93FACFEFEF8E1A39
:101EE0009E0AF60182859385A485B5850196A11D7C
:101EF000B11D82879387A487B58780E090E057CF94
:101F0000740101E010E09501AB01BC018091350442
:101F1000909136040E94EC0B882321F0BFEF8B1ABE
:101F20009B0ADFCF8FEF9FEF0F900F90DF91CF9144
:101F30001F910F91FF90EF90DF90CF90BF90AF90E7
:101F40009F908F907F906F905F904F903F902F90D9
:101F50000895FC01818D928D009711F00C949F0ED5
:101F60008FEF9FEF08950F931F93CF93DF93FC01A3
:101F7000818D928D0097B9F0EF010E949F0E8C0128
:101F80000F3F8FEF180791F0898D9A8DFC014285E4
:101F900053856485758541505109610971090E9415
:101FA0000705C80105C080E090E002C08FEF9FEFF9
:101FB000DF91CF911F910F910895CF92DF92EF9211
:101FC000FF920F931F93CF93DF936C017A018B01E4
:101FD000C0E0D0E0CE15DF0589F0D8016D918D010C
:101FE000D601ED91FC910190F081E02DC60109959B
:101FF000892B11F47E0102C02196ECCFC701DF913D
:10200000CF911F910F91FF90EF90DF90CF900895A7
:102010000F931F93CF93DF93EC01888199810097F1
:1020200029F02A813B812617370788F48B016F5FDF
:102030007F4F0E94991B009761F0998388831B83CF
:102040000A832C813D81232B11F4FC01108281E055
:1020500001C080E0DF91CF911F910F910895EF9221
:10206000FF920F931F93CF93DF93FC01248135815F
:102070006115710511F480E019C041155105A9F0F1
:102080007B01EC018A01020F131FB8010E940810A6
:10209000882389F3288139818C819D81B701820F42
:1020A000931F0E94891C1D830C8381E0DF91CF91D7
:1020B0001F910F91FF90EF900895209180049091CF
:1020C0007F05213208F04AC080915D048111FCCF68
:1020D00032E030935D0431E030935C043FEF3093A5
:1020E0005B0410925A0420935904A0E6B4E049E33B
:1020F00054E0FA013E2F341B321718F43D9131930E
:10210000F9CF1092380420913804990F922B9093B4
:10211000380490913704913061F410923704909113
:1021200038049093BB009091BC0093FDF8CF95ECE0
:1021300001C095EE9093BC0090915D049230E1F364
:1021400090915B049F3F79F080915B04803241F075
:1021500080915B04803331F084E005C081E003C0EE
:1021600082E001C083E010925F041092800410921C
:102170005E040895682F89E695E00C94CE0A91E0FC
:1021800090935E0480937F0510925F041092800408
:1021900008958F929F92AF92BF92CF92DF92EF926B
:1021A000FF92CF93DF93C82F80E295E0909336049F
:1021B00080933504CC2369F1C53010F080E00DC167
:1021C00040E060E070E0CB010E94F0018823B1F3B1
:1021D00020E1C29FC00111248B5D9D4FFC01E254A0
:1021E000FE4F20812F7751F73C96408151816281CB
:1021F0007381443651056105710500F33497C08041
:10220000D180E280F380C114D104E104F10421F40F
:10221000D5CFC12CD12C760140E0C701B6010E9478
:10222000F001882359F2809140029091410281157A
:10223000924021F6A0914502AA2309F4BFCF6091F4
:102240004302709144026115710509F4B7CF2091E2
:102250004202222309F4B2CFA0933E052093300519
:1022600080E030E0E1E0F0E0C82FAF01082E02C0CE
:10227000440F551F0A94E2F72417350741F0982FB1
:102280008F5F983089F789E08093390597CF8093E5
:10229000390520914B0230914C022115310519F07E
:1022A00040E050E008C02091590230915A0240911C
:1022B0005B0250915C0220933105309332054093CC
:1022C00033055093340546015701860E971EA11C15
:1022D000B11C80923F0590924005A0924105B092BA
:1022E0004205E0914602F0914702F0934505E093E4
:1022F0004405B0E00E94151A860E971EA81EB91E4E
:102300008092460590924705A0924805B0924905F3
:1023100085E0EE0FFF1F8A95E1F7E150FE4FEF2FAA
:10232000FF27E6958E0E9F1EA11CB11C80923A05D8
:1023300090923B05A0923C05B0923D052091480249
:10234000309149022115310521F0A90160E070E0CA
:1023500008C0409155025091560260915702709109
:102360005802D701C60188199909AA09BB09840F27
:10237000951FA61FB71F04C0B695A795979587957B
:10238000CA95D2F78093350590933605A09337050B
:10239000B0933805853F2FE09207A105B10510F4F1
:1023A0008CE018C0853F9F4FA105B10510F480E176
:1023B00011C08091610290916202A0916302B0917C
:1023C00064028093460590934705A0934805B09317
:1023D000490580E28093430581E0DF91CF91FF9032
:1023E000EF90DF90CF90BF90AF909F908F90089527
:1023F00090E0FC01EC54FF4F2491FC01E056FF4FAC
:102400008491882399F090E0880F991FFC01EA5687
:10241000FF4FA591B491FC01E457FF4F8591949132
:102420008FB7F894EC91E22BEC938FBF08959091C5
:102430005D049111FCCF613208F060E291E090936D
:102440005D0490935C042FEF20935B0410925A0478
:10245000260F209359049093380490913804880FE4
:10246000892B8093380480913704813061F4109275
:102470003704809138048093BB008091BC0083FDB9
:10248000F8CF85EC01C085EE8093BC0080915D049F
:102490008130E1F380915A04861710F460915A0458
:1024A000A9E3B4E025E132E0F9018E2F821B861703
:1024B00018F48D918193F9CF109214026093130256
:1024C000862F089588E60E94BF1084E090E00E9465
:1024D000BA100E945D1061E070E088E690E00E9412
:1024E000171289E695E00E94820A982F92959F70B4
:1024F0008F702AE0929F800D1124089588E60E9433
:10250000BF1085E090E00E94BA100E945D1061E06B
:1025100070E088E690E00E94171289E695E00E943C
:10252000820A982F991F9927991F90931202982F2A
:102530009695969596959E70292F220F220F920FB1
:102540008F70890F089588E60E94BF1086E090E0A2
:102550000E94BA100E945D1061E070E088E690E091
:102560000E94171289E695E00E94820A982F9295A0
:102570009F708F702AE0929F800D1124089590E043
:10258000FC01E858FF4F3491FC01EC54FF4F2491BB
:10259000FC01E056FF4FE491EE2309F43BC03323E6
:1025A00039F1333091F038F43130A9F0323001F59F
:1025B00084B58F7D12C0373091F03830A1F03430BF
:1025C000B9F4809180008F7D03C0809180008F7767
:1025D000809380000DC084B58F7784BD09C0809141
:1025E000B0008F7703C08091B0008F7D8093B000E2
:1025F000F0E0EE0FFF1FE457FF4FA591B4918FB7A6
:10260000F894EC91611103C020952E2301C02E2B6C
:102610002C938FBF08953FB7F89480917B059091DC
:102620007C05A0917D05B0917E0526B5A89B05C0CF
:102630002F3F19F00196A11DB11D3FBFBA2FA92F41
:10264000982F8827820F911DA11DB11DBC01CD01BE
:1026500042E0660F771F881F991F4A95D1F70895AA
:102660002FB7F8946091770570917805809179057E
:1026700090917A052FBF08951F920F920FB60F9277
:1026800011242F933F938F939F93AF93BF93809188
:10269000770590917805A0917905B0917A053091F0
:1026A000760523E0230F2D3720F40196A11DB11DDF
:1026B00005C026E8230F0296A11DB11D20937605C3
:1026C0008093770590937805A0937905B0937A0568
:1026D00080917B0590917C05A0917D05B0917E0550
:1026E0000196A11DB11D80937B0590937C05A0935D
:1026F0007D05B0937E05BF91AF919F918F913F91E2
:102700002F910F900FBE0F901F901895EF92FF9290
:102710000F931F93CF93DF93CDB7DEB728970FB6F4
:10272000F894DEBF0FBECDBF7C01CB014AE08E0125
:102730000F5F1F4FB8010E94E019F80101900020BF
:10274000E9F73197AF01401B510BB801C7010E9457
:102750002F1028960FB6F894DEBF0FBECDBFDF91C5
:10276000CF911F910F91FF90EF900895EF92FF92FC
:102770000F931F93CF93DF9300D000D0CDB7DEB778
:102780007C01862F4AE08E010F5F1F4FB80190E059
:102790000E94E019F80101900020E9F73197AF019C
:1027A000401B510BB801C7010E942F100F900F90D2
:1027B0000F900F90DF91CF911F910F91FF90EF90AD
:1027C0000895CF93DF9300D0CDB7DEB769831A8227
:1027D00041E050E0BE016F5F7F4F0E942F100F90CD
:1027E0000F90DF91CF9108956115710551F0FB01B4
:1027F00001900020E9F73197AF01461B570B0C946D
:102800002F1080E00895EF92FF920F931F93CF93C4
:10281000DF93EC01198218821B821A821D821C82AE
:102820006115710549F18B01FB0101900020E9F769
:1028300031977F01E61AF70AB7010E940810288134
:10284000398181110DC02115310519F0C9010E948E
:10285000011B198218821D821C821B821A820CC0E5
:10286000FD82EC82B801C901DF91CF911F910F91D8
:10287000FF90EF900C94891CDF91CF911F910F91E5
:10288000FF90EF9008956115710579F0FB010190BB
:102890000020E9F73197AF01461B570BDC01ED91A2
:1028A000FC910280F381E02D099480E090E008958E
:1028B0000F931F93CF93DF93EC01E881F981DB0144
:1028C00014964D915C9115976D917C910280F381E6
:1028D000E02D09958C0165E871E0CE010E9443145A
:1028E000800F911FDF91CF911F910F910895CF938A
:1028F000DF93CDB7DEB7C658D1090FB6F894DEBF67
:102900000FBECDBF789484B5826084BD84B58160EC
:1029100084BD85B5826085BD85B5816085BD8091AA
:102920006E00816080936E00109281008091810022
:10293000826080938100809181008160809381001A
:10294000809180008160809380008091B1008460DC
:102950008093B1008091B00081608093B00080913D
:102960007A00846080937A0080917A0082608093FC
:102970007A0080917A00816080937A0080917A0059
:10298000806880937A001092C10010921402109215
:10299000130210925F041092800410925D0481E093
:1029A00080935C041092370461E082E10E94BF12C0
:1029B00061E083E10E94BF128091B9008E7F809315
:1029C000B9008091B9008D7F8093B90088E480932D
:1029D000B80085E48093BC00E0919104F0919204EA
:1029E00082E08083E0918D04F0918E041082E0916A
:1029F0008F04F091900480E1808310929904E0911B
:102A00009504F091960486E08083E0919304F09120
:102A10009404808180618083E0919304F091940418
:102A2000808188608083E0919304F0919404808198
:102A300080688083E0919304F091940480818F7D7D
:102A400080836BE571E081E894E00E94431410926A
:102A50002B0510922905109226051092250584E079
:102A6000809324050E9430138B01809124050E94DD
:102A7000F81161E0809124050E94BF12FFB6F8941E
:102A80008091C001811124C0EAEAF0E08491EEEB6C
:102A9000F0E09491E82FF0E0EE0FFF1FEA56FF4FB1
:102AA000A591B491EC91E92321F461E08AE00E94C0
:102AB000BF128AE00E94F8118CB580618CBD8CB584
:102AC00080648CBD8DE00E94F8118BE00E94F811AB
:102AD0008091C0018F5F8093C001FFBE82E580932B
:102AE0001E0510921F0580911E0590911F050E94E2
:102AF000710B5AE0F52E8FEF0E94320BFA94F11011
:102B0000FACF80E295E00E94740B20E030E0A9014A
:102B100060E080E295E00E948A0BF82E80932A05FF
:102B200081E0F81649F00E943013601B710B613D83
:102B3000774058F381E056C02AEA31E040E050E0A7
:102B400068E080E295E00E948A0B82FF03C0F09269
:102B50002B0510C044E0F42E0E94390B80932A0507
:102B6000FA94F110F9CF8A3A11F082E03BC082E08A
:102B700080932B0580912B05823021F0C12CD12C24
:102B8000760105C0C12CD12CE12C30E4F32E20E0DD
:102B900030E0A90167E380E295E00E948A0BA7017B
:102BA000960169E280E295E00E948A0B80932A05F3
:102BB000882349F00E943013601B710B613D774000
:102BC00030F388E00FC080912B05823001F520E0C2
:102BD00030E0A9016AE380E295E00E948A0B882335
:102BE00041F086E08093250580E295E00E94270B66
:102BF000A8C00E94390B807C803C19F483E080934C
:102C00002B050E94390B0E94390B0E94390B80E280
:102C100095E00E94270B80E580931E0510921F050A
:102C200081E00E94C910882329F080914F058823F4
:102C300041F087C080E00E94C910882309F481C058
:102C4000F4CF80914305803109F582E080934F05F0
:102C5000109261051092620510926305109264054E
:102C60008091440590914505A0E0B0E025E0880FF3
:102C7000991FAA1FBB1F2A95D1F780935D059093DA
:102C80005E05A0935F05B09360051EC0803209F019
:102C900058C083E080934F05409146055091470509
:102CA0006091480570914905409361055093620514
:102CB00060936305709364052DE535E08CE295E043
:102CC0000E945D038823E9F18CE295E0909366050C
:102CD0008093650581E080934E0510925005109217
:102CE00051051092520510925305109254051092FE
:102CF00055051092560510925705109258051092DE
:102D0000590510925A0510925B0510925C058EE1F0
:102D10000E94BF1082E090E00E94BA1080E090E034
:102D20000E94BA100E945D1063E771E081E894E0B0
:102D30000E94431465E871E081E894E00E94431426
:102D40000FC068E871E081E894E00E94431465E8F0
:102D500071E081E894E00E94431481E08093C30114
:102D60004E01AEE18A0E911C8091C3018111D1C246
:102D700067E871E0CE0187589F4F0E94031464EA10
:102D800071E0CE0187589F4F0E94F4130E94A31256
:102D9000682FCE0187589F4F0E94B6136DE2CE0177
:102DA00087589F4F0E94E1130E947E12682FCE0128
:102DB00087589F4F0E94B6136DE2CE0187589F4FF0
:102DC0000E94E1130E946212682FCE0187589F4F24
:102DD0000E94B6136CE2CE0187589F4F0E94E11308
:102DE00088E60E94BF1082E090E00E94BA100E9424
:102DF0005D1061E070E088E690E00E94171289E6BD
:102E000095E00E94820A9C0196E0369527959A9556
:102E1000E1F7322F31703093C201282F2F70332306
:102E200049F085FB992790F99093C10182958170B3
:102E3000880F04C08695869586958670682F660FE4
:102E4000660F860F682F620FCE0187589F4F0E9432
:102E5000B6136AE3CE0187589F4F0E94E11388E6BC
:102E60000E94BF1081E090E00E94BA100E945D10A5
:102E700061E070E088E690E00E94171289E695E034
:102E80000E94820A982F92959F708F70682FBAE0E7
:102E90009B9F600D1124CE0187589F4F0E94B6134F
:102EA0006AE3CE0187589F4F0E94E11388E60E9493
:102EB000BF1080E090E00E94BA100E945D1061E0B7
:102EC00070E088E690E00E94171289E695E00E9483
:102ED000820A982F92959F708F70682FEAE09E9FCC
:102EE000600D1124CE0187589F4F0E94B61367EAE8
:102EF00071E0CE0187589F4F0E94F4138EE10E942B
:102F0000BF1083E090E00E94BA100E945D1066E05E
:102F100070E08EE190E00E9417128091130290E021
:102F200020911402821B910906970CF44FC089E688
:102F300095E00E94820AC058DF4F8883C058D04075
:102F4000C158DF4F1882CF57D04089E695E00E94E4
:102F5000820AC158DF4FC880D980CF57D040C82AD5
:102F6000D92A89E695E00E94820ACE57DF4F8883EE
:102F7000C258D040CF57DF4F1882C158D04089E6A1
:102F800095E00E94820ACF57DF4F08811981C1580E
:102F9000D040082B192B89E695E00E94820ACC5775
:102FA000DF4F8883C458D040CD57DF4F1882C358B5
:102FB000D04089E695E00E94820ACD57DF4FE88035
:102FC000F980C358D040E82AF92A06C000E010E092
:102FD000E12CF12CC12CD12CB601CE0187589F4F8A
:102FE0000E94861367EA71E0CE0187589F4F0E94C6
:102FF000F413B701CE0187589F4F0E94861367EAEA
:1030000071E0CE0187589F4F0E94F413B801CE01A2
:1030100087589F4F0E94861367EA71E0CE01875858
:103020009F4F0E94F41364EA71E0CE018D589F4FC8
:103030000E9403140E94A312682FCE018D589F4F47
:103040000E94B6130E947E12682FCE018D589F4FAA
:103050000E94B6130E946212682FCE018D589F4FB6
:103060000E94B6136EE2CE018D589F4F0E94E1136D
:1030700069EA71E0CE018D589F4F0E94F413E596E6
:10308000AEACBFACE5976AE475E0C4010E94190ECE
:103090001C821B828FE291E09A8389831E826501E4
:1030A0008E010F5F1F4F34016FE270E0C6010E9476
:1030B0007E1CD601009709F446C02C912F3249F4AA
:1030C000BFEFCB1ADB0A902F812F8301692E782E58
:1030D00034C08C198D3008F08CE0E82EF12CA7015B
:1030E000B601CE01885A9F4F0E94901CE8E5F0E09F
:1030F000EC0FFD1FEE0DFF1D1082C8010E94FD099F
:10310000F8018581882351F01EAE1DAE8FE291E05B
:103110009CAF8BAF21961FAE219722C021E0AE015C
:10312000485A5F4FB301C8010E944608882361F3E3
:10313000CE0CDF1CC3010E94FD09962D872D38019E
:10314000092F182FB1CFAA19BB09CB57DF4FB9836D
:10315000A883C558D040B301CE01CB960E94190E6A
:10316000CB57DF4FE881F981C558D040AE0EBF1E66
:10317000D5018C9181110AC0BE01655C7F4FCE01E3
:1031800001960E94190E4DEA51E04EC019A218A2F4
:10319000EFE2F1E0FF8FEE8F1BA221968FAD21971A
:1031A00081111CC06C961FAE1EAE6C9788EE93E02A
:1031B000A0E0B0E0A0968CAF9DAFAEAFBFAFA09740
:1031C000AFE0B1E06A96BFAFAEAF6A97E3961FAECD
:1031D0001EAEE397A5961FAEA5972EC0825023E1A1
:1031E000A501823040F46AE475E0C4010E944608FB
:1031F00081110DC0D7CFBE01655C7F4FC4010E9415
:103200004608882379F2CE01CB960E94FD0949A990
:103210005AA96BA97CA9C4010E940705B401CE017B
:1032200001960E94190EA501BE016F5F7F4FCE016E
:10323000885A9F4F0E946A0EE396EEADFFADE3976A
:103240003097F1F085818823D9F0BE0167587F4F10
:10325000CE01885A9F4F0E945814E3968EAD9FADC1
:10326000E3970097E9F00E94FD09E3968EAD9FADCC
:10327000E3970E94011BE3961FAE1EAEE39710C0BA
:103280006FEA71E081E894E00E944314BE016D583A
:103290007F4F81E894E00E94581481E08093C3013D
:1032A000BE0167587F4F81E894E00E9458140E9445
:1032B0000B132B013C0184E6C82ED12CE12CF12C00
:1032C0000E940B13DC01CB0184199509A609B709EB
:1032D000883E9340A105B10558F0B1E0CB1AD10862
:1032E000E108F108E8EE4E0EE3E05E1E611C711C81
:1032F000C114D104E104F10419F7E5968EAD9FAD38
:10330000E5970E94011BEB968EAD9FADEB970E9457
:10331000011B0E94510128CDE1E8F4E013821282E2
:1033200088EE93E0A0E0B0E084839583A683B78322
:103330002FE131E03183208325EC30E0358724878D
:1033400024EC30E03787268720EC30E0318B208B6F
:1033500021EC30E0338B228B22EC30E0358B248B58
:1033600026EC30E0378B268B118E128E138E148E46
:10337000EEE1F5E020E520831182E0E2F5E0158240
:1033800016821186138642E050E060E070E04487C8
:1033900055876687778713A215A614A62FE231E01A
:1033A00033A722A717A6E9E6F5E0138212828483E9
:1033B0009583A683B78387E391E091838083089503
:1033C000BB274A3031F4992322F4BDE290958195D0
:1033D0009F4F0C94EC19BB27FB015527AA27880F98
:1033E000991FAA1FA41710F0A41B83955051B9F779
:1033F000A05DAA3308F0A95DA193009779F7B111F8
:10340000B1931192CB010C94051ADC01FC01672FDA
:1034100071917723E1F7329704C07C916D937083AB
:103420006291AE17BF07C8F308950E94571AA59F6F
:10343000900DB49F900DA49F800D911D11240895AF
:103440002F923F924F925F926F927F928F929F92B4
:10345000AF92BF92CF92DF92EF92FF920F931F93A2
:10346000CF93DF93CDB7DEB7CA1BDB0B0FB6F89453
:10347000DEBF0FBECDBF09942A88398848885F8493
:103480006E847D848C849B84AA84B984C884DF8004
:10349000EE80FD800C811B81AA81B981CE0FD11DE8
:1034A0000FB6F894DEBF0FBECDBFED010895A29F09
:1034B000B001B39FC001A39F700D811D1124911D08
:1034C000B29F700D811D1124911D0895EE0FFF1FF5
:1034D0000590F491E02D0994CF93DF93823091050C
:1034E00010F482E090E0E0918205F091830520E005
:1034F00030E0C0E0D0E0309711F1408151814817B1
:103500005907C0F04817590761F4828193812097C9
:1035100019F09B838A832BC0909383058093820547
:1035200026C02115310519F04217530718F49A01E6
:10353000BE01DF01EF010280F381E02DDCCF211518
:10354000310509F1281B390B2430310590F412960E
:103550008D919C9113976115710521F0FB01938367
:10356000828304C09093830580938205FD01329687
:1035700044C0FD01E20FF31F819391932250310962
:103580002D933C933AC02091800530918105232BE7
:1035900041F4209106013091070130938105209379
:1035A000800520910401309105012115310541F478
:1035B0002DB73EB74091080150910901241B350BEE
:1035C000E0918005F0918105E217F307A0F42E1B2E
:1035D0003F0B2817390778F0AC014E5F5F4F241777
:1035E000350748F04E0F5F1F5093810540938005CB
:1035F0008193919302C0E0E0F0E0CF01DF91CF91A1
:1036000008950F931F93CF93DF93009709F48CC015
:10361000FC0132971382128200918205109183057A
:103620000115110581F420813181820F931F2091B2
:103630008005309181052817390779F5F0938105C8
:10364000E093800571C0D80140E050E0AE17BF079D
:1036500050F412962D913C911397AD01211531052F
:1036600009F1D901F3CF9D01DA013383228360810F
:103670007181860F971F8217930769F4EC012881E7
:103680003981260F371F2E5F3F4F318320838A8178
:103690009B8193838283452B29F4F0938305E093E8
:1036A000820542C01396FC93EE931297ED01499167
:1036B00059919E01240F351FE217F30771F48081A1
:1036C0009181840F951F029611969C938E9382810F
:1036D000938113969C938E931297E0E0F0E0D801CB
:1036E00012968D919C911397009719F0F8018C0117
:1036F000F6CF8D919C9198012E5F3F4F820F931FC3
:1037000020918005309181052817390769F4309799
:1037100029F4109283051092820502C0138212824E
:103720001093810500938005DF91CF911F910F9138
:103730000895A0E0B0E0EFE9FBE10C94241AEC015D
:10374000009721F4CB010E946C1AB8C0FC01E60F6F
:10375000F71F9C0122503109E217F30708F4ACC0AF
:10376000D9010D911C91119706171707B0F005307C
:10377000110508F49FC0C80104978617970708F43D
:1037800099C002501109061B170B019311936D93F9
:103790007C93CF010E94011B8DC05B01A01AB10A6E
:1037A0004C01800E911EA0918205B091830540E0EE
:1037B00050E0E12CF12C109709F44AC0A815B90586
:1037C000D1F56D907C901197630182E0C80ED11CF9
:1037D000CA14DB0480F1A3014A195B096A0182E083
:1037E000C80ED11C1296BC9012971396AC91B5E0FE
:1037F000CB16D10440F0B282A38351834083D90118
:103800006D937C930AC00E5F1F4FC301800F911F01
:10381000F90191838083EB2DFA2FE114F10431F04B
:10382000D7011396FC93EE93129744C0F09383054F
:10383000E09382053FC08D919C91119748175907DD
:1038400008F4AC017D0112960D90BC91A02DB3CF70
:10385000809180059091810588159905E1F44617BE
:103860005707C8F48091040190910501009741F435
:103870008DB79EB74091080150910901841B950BAB
:10388000E817F907C8F4F0938105E0938005F90182
:10389000718360830FC0CB010E946C1A7C0100977A
:1038A00059F0A801BE010E94751CCE010E94011BA7
:1038B000C70104C0CE0102C080E090E0CDB7DEB702
:1038C000EEE00C94401A81E090E0F8940C949F1C78
:1038D000FB01DC0104C08D910190801921F441505D
:1038E0005040C8F7881B990B0895FB01DC0102C00A
:1038F00001900D9241505040D8F70895FC018191FC
:10390000861721F08823D9F7992708953197CF0199
:103910000895FB01DC0101900D920020E1F708956C
:10392000FB01DC014150504048F001900D92002015
:10393000C9F701C01D9241505040E0F70895F89436
:02394000FFCFB7
:10394200FFFFFFFF00008405800000000000005C14
:103952000A050B3B0AA90FB30FFD0A00000000E89D
:1039620000DD0FB1008F00A3002F01000000002D29
:1039720007DD0F00000000CE0A9E0A960A820A7333
:103982000A720A000000005B01DD0F5B015B015B54
:10399200015B01000000005B01DD0F496E69746983
:1039A200616C697A696E6720534420636172642E88
:1039B2002E2E006361726420696E697469616C699C
:1039C2007A65642E000D0A004361726420666169A3
:1039D2006C65642C206F72206E6F74207072657338
:1039E200656E74003230002C00637376002F006520
:1039F20072726F72206F70656E696E673A20000096
:00000001FF
